{
	"Farm.sol": {
		"Farm": {
			"abi": [
				{
					"inputs": [
						{
							"internalType": "address",
							"name": "_rewardsToken",
							"type": "address"
						},
						{
							"internalType": "address",
							"name": "_stakingToken",
							"type": "address"
						},
						{
							"internalType": "uint256",
							"name": "_rewardsDuration",
							"type": "uint256"
						},
						{
							"internalType": "uint256",
							"name": "_stakingTokensDecimal",
							"type": "uint256"
						}
					],
					"stateMutability": "nonpayable",
					"type": "constructor"
				},
				{
					"anonymous": false,
					"inputs": [
						{
							"indexed": true,
							"internalType": "address",
							"name": "previousOwner",
							"type": "address"
						},
						{
							"indexed": true,
							"internalType": "address",
							"name": "newOwner",
							"type": "address"
						}
					],
					"name": "OwnershipTransferred",
					"type": "event"
				},
				{
					"anonymous": false,
					"inputs": [
						{
							"indexed": false,
							"internalType": "address",
							"name": "account",
							"type": "address"
						}
					],
					"name": "Paused",
					"type": "event"
				},
				{
					"anonymous": false,
					"inputs": [
						{
							"indexed": false,
							"internalType": "address",
							"name": "token",
							"type": "address"
						},
						{
							"indexed": false,
							"internalType": "uint256",
							"name": "amount",
							"type": "uint256"
						}
					],
					"name": "Recovered",
					"type": "event"
				},
				{
					"anonymous": false,
					"inputs": [
						{
							"indexed": false,
							"internalType": "uint256",
							"name": "reward",
							"type": "uint256"
						}
					],
					"name": "RewardAdded",
					"type": "event"
				},
				{
					"anonymous": false,
					"inputs": [
						{
							"indexed": true,
							"internalType": "address",
							"name": "user",
							"type": "address"
						},
						{
							"indexed": false,
							"internalType": "uint256",
							"name": "reward",
							"type": "uint256"
						}
					],
					"name": "RewardPaid",
					"type": "event"
				},
				{
					"anonymous": false,
					"inputs": [
						{
							"indexed": false,
							"internalType": "uint256",
							"name": "newDuration",
							"type": "uint256"
						}
					],
					"name": "RewardsDurationUpdated",
					"type": "event"
				},
				{
					"anonymous": false,
					"inputs": [
						{
							"indexed": true,
							"internalType": "address",
							"name": "user",
							"type": "address"
						},
						{
							"indexed": false,
							"internalType": "uint256",
							"name": "amount",
							"type": "uint256"
						}
					],
					"name": "Staked",
					"type": "event"
				},
				{
					"anonymous": false,
					"inputs": [
						{
							"indexed": false,
							"internalType": "address",
							"name": "account",
							"type": "address"
						}
					],
					"name": "Unpaused",
					"type": "event"
				},
				{
					"anonymous": false,
					"inputs": [
						{
							"indexed": true,
							"internalType": "address",
							"name": "user",
							"type": "address"
						},
						{
							"indexed": false,
							"internalType": "uint256",
							"name": "amount",
							"type": "uint256"
						}
					],
					"name": "Withdrawn",
					"type": "event"
				},
				{
					"inputs": [
						{
							"internalType": "address",
							"name": "account",
							"type": "address"
						}
					],
					"name": "balanceOf",
					"outputs": [
						{
							"internalType": "uint256",
							"name": "",
							"type": "uint256"
						}
					],
					"stateMutability": "view",
					"type": "function"
				},
				{
					"inputs": [
						{
							"internalType": "address",
							"name": "account",
							"type": "address"
						}
					],
					"name": "earned",
					"outputs": [
						{
							"internalType": "uint256",
							"name": "",
							"type": "uint256"
						}
					],
					"stateMutability": "view",
					"type": "function"
				},
				{
					"inputs": [],
					"name": "exit",
					"outputs": [],
					"stateMutability": "nonpayable",
					"type": "function"
				},
				{
					"inputs": [],
					"name": "getReward",
					"outputs": [],
					"stateMutability": "nonpayable",
					"type": "function"
				},
				{
					"inputs": [],
					"name": "getRewardForDuration",
					"outputs": [
						{
							"internalType": "uint256",
							"name": "",
							"type": "uint256"
						}
					],
					"stateMutability": "view",
					"type": "function"
				},
				{
					"inputs": [],
					"name": "lastTimeRewardApplicable",
					"outputs": [
						{
							"internalType": "uint256",
							"name": "",
							"type": "uint256"
						}
					],
					"stateMutability": "view",
					"type": "function"
				},
				{
					"inputs": [],
					"name": "lastUpdateTime",
					"outputs": [
						{
							"internalType": "uint256",
							"name": "",
							"type": "uint256"
						}
					],
					"stateMutability": "view",
					"type": "function"
				},
				{
					"inputs": [
						{
							"internalType": "uint256",
							"name": "a",
							"type": "uint256"
						},
						{
							"internalType": "uint256",
							"name": "b",
							"type": "uint256"
						}
					],
					"name": "min",
					"outputs": [
						{
							"internalType": "uint256",
							"name": "",
							"type": "uint256"
						}
					],
					"stateMutability": "pure",
					"type": "function"
				},
				{
					"inputs": [
						{
							"internalType": "uint256",
							"name": "reward",
							"type": "uint256"
						}
					],
					"name": "notifyRewardAmount",
					"outputs": [],
					"stateMutability": "nonpayable",
					"type": "function"
				},
				{
					"inputs": [],
					"name": "owner",
					"outputs": [
						{
							"internalType": "address",
							"name": "",
							"type": "address"
						}
					],
					"stateMutability": "view",
					"type": "function"
				},
				{
					"inputs": [],
					"name": "paused",
					"outputs": [
						{
							"internalType": "bool",
							"name": "",
							"type": "bool"
						}
					],
					"stateMutability": "view",
					"type": "function"
				},
				{
					"inputs": [],
					"name": "periodFinish",
					"outputs": [
						{
							"internalType": "uint256",
							"name": "",
							"type": "uint256"
						}
					],
					"stateMutability": "view",
					"type": "function"
				},
				{
					"inputs": [
						{
							"internalType": "uint256",
							"name": "n",
							"type": "uint256"
						},
						{
							"internalType": "uint256",
							"name": "e",
							"type": "uint256"
						}
					],
					"name": "pow",
					"outputs": [
						{
							"internalType": "uint256",
							"name": "",
							"type": "uint256"
						}
					],
					"stateMutability": "pure",
					"type": "function"
				},
				{
					"inputs": [
						{
							"internalType": "address",
							"name": "tokenAddress",
							"type": "address"
						},
						{
							"internalType": "uint256",
							"name": "tokenAmount",
							"type": "uint256"
						}
					],
					"name": "recoverERC20",
					"outputs": [],
					"stateMutability": "nonpayable",
					"type": "function"
				},
				{
					"inputs": [],
					"name": "renounceOwnership",
					"outputs": [],
					"stateMutability": "nonpayable",
					"type": "function"
				},
				{
					"inputs": [],
					"name": "rewardPerToken",
					"outputs": [
						{
							"internalType": "uint256",
							"name": "",
							"type": "uint256"
						}
					],
					"stateMutability": "view",
					"type": "function"
				},
				{
					"inputs": [],
					"name": "rewardPerTokenStored",
					"outputs": [
						{
							"internalType": "uint256",
							"name": "",
							"type": "uint256"
						}
					],
					"stateMutability": "view",
					"type": "function"
				},
				{
					"inputs": [],
					"name": "rewardRate",
					"outputs": [
						{
							"internalType": "uint256",
							"name": "",
							"type": "uint256"
						}
					],
					"stateMutability": "view",
					"type": "function"
				},
				{
					"inputs": [
						{
							"internalType": "address",
							"name": "",
							"type": "address"
						}
					],
					"name": "rewards",
					"outputs": [
						{
							"internalType": "uint256",
							"name": "",
							"type": "uint256"
						}
					],
					"stateMutability": "view",
					"type": "function"
				},
				{
					"inputs": [],
					"name": "rewardsDuration",
					"outputs": [
						{
							"internalType": "uint256",
							"name": "",
							"type": "uint256"
						}
					],
					"stateMutability": "view",
					"type": "function"
				},
				{
					"inputs": [],
					"name": "rewardsToken",
					"outputs": [
						{
							"internalType": "contract IERC20",
							"name": "",
							"type": "address"
						}
					],
					"stateMutability": "view",
					"type": "function"
				},
				{
					"inputs": [
						{
							"internalType": "uint256",
							"name": "_rewardsDuration",
							"type": "uint256"
						}
					],
					"name": "setRewardsDuration",
					"outputs": [],
					"stateMutability": "nonpayable",
					"type": "function"
				},
				{
					"inputs": [
						{
							"internalType": "uint256",
							"name": "amount",
							"type": "uint256"
						}
					],
					"name": "stake",
					"outputs": [],
					"stateMutability": "nonpayable",
					"type": "function"
				},
				{
					"inputs": [],
					"name": "stakingToken",
					"outputs": [
						{
							"internalType": "contract IERC20",
							"name": "",
							"type": "address"
						}
					],
					"stateMutability": "view",
					"type": "function"
				},
				{
					"inputs": [],
					"name": "stakingTokensDecimalRate",
					"outputs": [
						{
							"internalType": "uint256",
							"name": "",
							"type": "uint256"
						}
					],
					"stateMutability": "view",
					"type": "function"
				},
				{
					"inputs": [],
					"name": "totalSupply",
					"outputs": [
						{
							"internalType": "uint256",
							"name": "",
							"type": "uint256"
						}
					],
					"stateMutability": "view",
					"type": "function"
				},
				{
					"inputs": [
						{
							"internalType": "address",
							"name": "newOwner",
							"type": "address"
						}
					],
					"name": "transferOwnership",
					"outputs": [],
					"stateMutability": "nonpayable",
					"type": "function"
				},
				{
					"inputs": [
						{
							"internalType": "address",
							"name": "",
							"type": "address"
						}
					],
					"name": "userRewardPerTokenPaid",
					"outputs": [
						{
							"internalType": "uint256",
							"name": "",
							"type": "uint256"
						}
					],
					"stateMutability": "view",
					"type": "function"
				},
				{
					"inputs": [
						{
							"internalType": "uint256",
							"name": "amount",
							"type": "uint256"
						}
					],
					"name": "withdraw",
					"outputs": [],
					"stateMutability": "nonpayable",
					"type": "function"
				}
			],
			"devdoc": {
				"methods": {
					"owner()": {
						"details": "Returns the address of the current owner."
					},
					"paused()": {
						"details": "Returns true if the contract is paused, and false otherwise."
					},
					"renounceOwnership()": {
						"details": "Leaves the contract without owner. It will not be possible to call `onlyOwner` functions anymore. Can only be called by the current owner.      * NOTE: Renouncing ownership will leave the contract without an owner, thereby removing any functionality that is only available to the owner."
					},
					"transferOwnership(address)": {
						"details": "Transfers ownership of the contract to a new account (`newOwner`). Can only be called by the current owner."
					}
				}
			},
			"evm": {
				"assembly": "    /* \"Farm.sol\":23113:30261  contract Farm is ReentrancyGuard, Pausable, Ownable {\r... */\n  mstore(0x40, 0x80)\n    /* \"Farm.sol\":23387:23388  0 */\n  0x00\n    /* \"Farm.sol\":23357:23388  uint256 public periodFinish = 0 */\n  0x04\n  sstore\n    /* \"Farm.sol\":23423:23424  0 */\n  0x00\n    /* \"Farm.sol\":23395:23424  uint256 public rewardRate = 0 */\n  0x05\n  sstore\n    /* \"Farm.sol\":23876:24252  constructor (\r... */\n  callvalue\n    /* \"--CODEGEN--\":5:14   */\n  dup1\n    /* \"--CODEGEN--\":2:4   */\n  iszero\n  tag_1\n  jumpi\n    /* \"--CODEGEN--\":27:28   */\n  0x00\n    /* \"--CODEGEN--\":24:25   */\n  dup1\n    /* \"--CODEGEN--\":17:29   */\n  revert\n    /* \"--CODEGEN--\":2:4   */\ntag_1:\n    /* \"Farm.sol\":23876:24252  constructor (\r... */\n  pop\n  mload(0x40)\n  sub(codesize, bytecodeSize)\n  dup1\n  bytecodeSize\n  dup4\n  codecopy\n  dup2\n  dup2\n  add\n  0x40\n  mstore\n    /* \"--CODEGEN--\":15:18   */\n  0x80\n    /* \"--CODEGEN--\":10:13   */\n  dup2\n    /* \"--CODEGEN--\":7:19   */\n  lt\n    /* \"--CODEGEN--\":4:6   */\n  iszero\n  tag_2\n  jumpi\n    /* \"--CODEGEN--\":32:33   */\n  0x00\n    /* \"--CODEGEN--\":29:30   */\n  dup1\n    /* \"--CODEGEN--\":22:34   */\n  revert\n    /* \"--CODEGEN--\":4:6   */\ntag_2:\n    /* \"Farm.sol\":23876:24252  constructor (\r... */\n  dup2\n  add\n  swap1\n  dup1\n  dup1\n  mload\n  swap1\n  0x20\n  add\n  swap1\n  swap3\n  swap2\n  swap1\n  dup1\n  mload\n  swap1\n  0x20\n  add\n  swap1\n  swap3\n  swap2\n  swap1\n  dup1\n  mload\n  swap1\n  0x20\n  add\n  swap1\n  swap3\n  swap2\n  swap1\n  dup1\n  mload\n  swap1\n  0x20\n  add\n  swap1\n  swap3\n  swap2\n  swap1\n  pop\n  pop\n  pop\n    /* \"Farm.sol\":12520:12521  1 */\n  0x01\n    /* \"Farm.sol\":12641:12648  _status */\n  0x00\n    /* \"Farm.sol\":12641:12663  _status = _NOT_ENTERED */\n  dup2\n  swap1\n  sstore\n  pop\n    /* \"Farm.sol\":10391:10396  false */\n  0x00\n    /* \"Farm.sol\":10381:10388  _paused */\n  0x01\n  0x00\n    /* \"Farm.sol\":10381:10396  _paused = false */\n  0x0100\n  exp\n  dup2\n  sload\n  dup2\n  0xff\n  mul\n  not\n  and\n  swap1\n  dup4\n  iszero\n  iszero\n  mul\n  or\n  swap1\n  sstore\n  pop\n    /* \"Farm.sol\":21708:21725  address msgSender */\n  0x00\n    /* \"Farm.sol\":21728:21740  _msgSender() */\n  tag_10\n    /* \"Farm.sol\":21728:21738  _msgSender */\n  shl(0x20, tag_11)\n    /* \"Farm.sol\":21728:21740  _msgSender() */\n  0x20\n  shr\n  jump\t// in\ntag_10:\n    /* \"Farm.sol\":21708:21740  address msgSender = _msgSender() */\n  swap1\n  pop\n    /* \"Farm.sol\":21760:21769  msgSender */\n  dup1\n    /* \"Farm.sol\":21751:21757  _owner */\n  0x01\n  dup1\n    /* \"Farm.sol\":21751:21769  _owner = msgSender */\n  0x0100\n  exp\n  dup2\n  sload\n  dup2\n  0xffffffffffffffffffffffffffffffffffffffff\n  mul\n  not\n  and\n  swap1\n  dup4\n  0xffffffffffffffffffffffffffffffffffffffff\n  and\n  mul\n  or\n  swap1\n  sstore\n  pop\n    /* \"Farm.sol\":21818:21827  msgSender */\n  dup1\n    /* \"Farm.sol\":21785:21828  OwnershipTransferred(address(0), msgSender) */\n  0xffffffffffffffffffffffffffffffffffffffff\n  and\n    /* \"Farm.sol\":21814:21815  0 */\n  0x00\n    /* \"Farm.sol\":21785:21828  OwnershipTransferred(address(0), msgSender) */\n  0xffffffffffffffffffffffffffffffffffffffff\n  and\n  0x8be0079c531659141344cd1fd0a4f28419497f9722a3daafe3b4186f6b6457e0\n  mload(0x40)\n  mload(0x40)\n  dup1\n  swap2\n  sub\n  swap1\n  log3\n    /* \"Farm.sol\":21673:21836  constructor () internal {\r... */\n  pop\n    /* \"Farm.sol\":24075:24105  pow(10, _stakingTokensDecimal) */\n  tag_13\n    /* \"Farm.sol\":24079:24081  10 */\n  0x0a\n    /* \"Farm.sol\":24083:24104  _stakingTokensDecimal */\n  dup3\n    /* \"Farm.sol\":24075:24078  pow */\n  shl(0x20, tag_14)\n    /* \"Farm.sol\":24075:24105  pow(10, _stakingTokensDecimal) */\n  0x20\n  shr\n  jump\t// in\ntag_13:\n    /* \"Farm.sol\":24048:24072  stakingTokensDecimalRate */\n  0x09\n    /* \"Farm.sol\":24048:24105  stakingTokensDecimalRate = pow(10, _stakingTokensDecimal) */\n  dup2\n  swap1\n  sstore\n  pop\n    /* \"Farm.sol\":24138:24151  _rewardsToken */\n  dup4\n    /* \"Farm.sol\":24116:24128  rewardsToken */\n  0x02\n  0x00\n    /* \"Farm.sol\":24116:24152  rewardsToken = IERC20(_rewardsToken) */\n  0x0100\n  exp\n  dup2\n  sload\n  dup2\n  0xffffffffffffffffffffffffffffffffffffffff\n  mul\n  not\n  and\n  swap1\n  dup4\n  0xffffffffffffffffffffffffffffffffffffffff\n  and\n  mul\n  or\n  swap1\n  sstore\n  pop\n    /* \"Farm.sol\":24185:24198  _stakingToken */\n  dup3\n    /* \"Farm.sol\":24163:24175  stakingToken */\n  0x03\n  0x00\n    /* \"Farm.sol\":24163:24199  stakingToken = IERC20(_stakingToken) */\n  0x0100\n  exp\n  dup2\n  sload\n  dup2\n  0xffffffffffffffffffffffffffffffffffffffff\n  mul\n  not\n  and\n  swap1\n  dup4\n  0xffffffffffffffffffffffffffffffffffffffff\n  and\n  mul\n  or\n  swap1\n  sstore\n  pop\n    /* \"Farm.sol\":24228:24244  _rewardsDuration */\n  dup2\n    /* \"Farm.sol\":24210:24225  rewardsDuration */\n  0x06\n    /* \"Farm.sol\":24210:24244  rewardsDuration = _rewardsDuration */\n  dup2\n  swap1\n  sstore\n  pop\n    /* \"Farm.sol\":23876:24252  constructor (\r... */\n  pop\n  pop\n  pop\n  pop\n    /* \"Farm.sol\":23113:30261  contract Farm is ReentrancyGuard, Pausable, Ownable {\r... */\n  jump(tag_15)\n    /* \"Farm.sol\":9606:9712  function _msgSender() internal view virtual returns (address payable) {\r... */\ntag_11:\n    /* \"Farm.sol\":9659:9674  address payable */\n  0x00\n    /* \"Farm.sol\":9694:9704  msg.sender */\n  caller\n    /* \"Farm.sol\":9687:9704  return msg.sender */\n  swap1\n  pop\n    /* \"Farm.sol\":9606:9712  function _msgSender() internal view virtual returns (address payable) {\r... */\n  swap1\n  jump\t// out\n    /* \"Farm.sol\":24406:24770  function pow(uint n, uint e) public pure returns (uint) {\r... */\ntag_14:\n    /* \"Farm.sol\":24456:24460  uint */\n  0x00\n    /* \"Farm.sol\":24484:24485  0 */\n  dup1\n    /* \"Farm.sol\":24479:24480  e */\n  dup3\n    /* \"Farm.sol\":24479:24485  e == 0 */\n  eq\n    /* \"Farm.sol\":24475:24763  if (e == 0) {\r... */\n  iszero\n  tag_18\n  jumpi\n    /* \"Farm.sol\":24509:24510  1 */\n  0x01\n    /* \"Farm.sol\":24502:24510  return 1 */\n  swap1\n  pop\n  jump(tag_17)\n    /* \"Farm.sol\":24475:24763  if (e == 0) {\r... */\ntag_18:\n    /* \"Farm.sol\":24537:24538  1 */\n  0x01\n    /* \"Farm.sol\":24532:24533  e */\n  dup3\n    /* \"Farm.sol\":24532:24538  e == 1 */\n  eq\n    /* \"Farm.sol\":24528:24763  if (e == 1) {\r... */\n  iszero\n  tag_20\n  jumpi\n    /* \"Farm.sol\":24562:24563  n */\n  dup3\n    /* \"Farm.sol\":24555:24563  return n */\n  swap1\n  pop\n  jump(tag_17)\n    /* \"Farm.sol\":24528:24763  if (e == 1) {\r... */\ntag_20:\n    /* \"Farm.sol\":24596:24602  uint p */\n  0x00\n    /* \"Farm.sol\":24605:24621  pow(n, e.div(2)) */\n  tag_22\n    /* \"Farm.sol\":24609:24610  n */\n  dup5\n    /* \"Farm.sol\":24612:24620  e.div(2) */\n  tag_23\n    /* \"Farm.sol\":24618:24619  2 */\n  0x02\n    /* \"Farm.sol\":24612:24613  e */\n  dup7\n    /* \"Farm.sol\":24612:24617  e.div */\n  or(tag_0_109, shl(0x20, tag_24))\n  swap1\n    /* \"Farm.sol\":24612:24620  e.div(2) */\n  swap2\n  swap1\n  0x20\n  shr\n  jump\t// in\ntag_23:\n    /* \"Farm.sol\":24605:24608  pow */\n  shl(0x20, tag_14)\n    /* \"Farm.sol\":24605:24621  pow(n, e.div(2)) */\n  0x20\n  shr\n  jump\t// in\ntag_22:\n    /* \"Farm.sol\":24596:24621  uint p = pow(n, e.div(2)) */\n  swap1\n  pop\n    /* \"Farm.sol\":24640:24648  p.mul(p) */\n  tag_25\n    /* \"Farm.sol\":24646:24647  p */\n  dup2\n    /* \"Farm.sol\":24640:24641  p */\n  dup3\n    /* \"Farm.sol\":24640:24645  p.mul */\n  or(tag_0_110, shl(0x20, tag_26))\n  swap1\n    /* \"Farm.sol\":24640:24648  p.mul(p) */\n  swap2\n  swap1\n  0x20\n  shr\n  jump\t// in\ntag_25:\n    /* \"Farm.sol\":24636:24648  p = p.mul(p) */\n  swap1\n  pop\n    /* \"Farm.sol\":24679:24680  1 */\n  0x01\n    /* \"Farm.sol\":24667:24675  e.mod(2) */\n  tag_27\n    /* \"Farm.sol\":24673:24674  2 */\n  0x02\n    /* \"Farm.sol\":24667:24668  e */\n  dup6\n    /* \"Farm.sol\":24667:24672  e.mod */\n  or(tag_0_111, shl(0x20, tag_28))\n  swap1\n    /* \"Farm.sol\":24667:24675  e.mod(2) */\n  swap2\n  swap1\n  0x20\n  shr\n  jump\t// in\ntag_27:\n    /* \"Farm.sol\":24667:24680  e.mod(2) == 1 */\n  eq\n    /* \"Farm.sol\":24663:24729  if (e.mod(2) == 1) {\r... */\n  iszero\n  tag_29\n  jumpi\n    /* \"Farm.sol\":24705:24713  p.mul(n) */\n  tag_30\n    /* \"Farm.sol\":24711:24712  n */\n  dup5\n    /* \"Farm.sol\":24705:24706  p */\n  dup3\n    /* \"Farm.sol\":24705:24710  p.mul */\n  or(tag_0_110, shl(0x20, tag_26))\n  swap1\n    /* \"Farm.sol\":24705:24713  p.mul(n) */\n  swap2\n  swap1\n  0x20\n  shr\n  jump\t// in\ntag_30:\n    /* \"Farm.sol\":24701:24713  p = p.mul(n) */\n  swap1\n  pop\n    /* \"Farm.sol\":24663:24729  if (e.mod(2) == 1) {\r... */\ntag_29:\n    /* \"Farm.sol\":24750:24751  p */\n  dup1\n    /* \"Farm.sol\":24743:24751  return p */\n  swap2\n  pop\n  pop\n    /* \"Farm.sol\":24406:24770  function pow(uint n, uint e) public pure returns (uint) {\r... */\ntag_17:\n  swap3\n  swap2\n  pop\n  pop\n  jump\t// out\n    /* \"Farm.sol\":16083:16215  function div(uint256 a, uint256 b) internal pure returns (uint256) {\r... */\ntag_24:\n    /* \"Farm.sol\":16141:16148  uint256 */\n  0x00\n    /* \"Farm.sol\":16168:16207  div(a, b, \"SafeMath: division by zero\") */\n  tag_32\n    /* \"Farm.sol\":16172:16173  a */\n  dup4\n    /* \"Farm.sol\":16175:16176  b */\n  dup4\n    /* \"Farm.sol\":16168:16207  div(a, b, \"SafeMath: division by zero\") */\n  mload(0x40)\n  dup1\n  0x40\n  add\n  0x40\n  mstore\n  dup1\n  0x1a\n  dup2\n  mstore\n  0x20\n  add\n  0x536166654d6174683a206469766973696f6e206279207a65726f000000000000\n  dup2\n  mstore\n  pop\n    /* \"Farm.sol\":16168:16171  div */\n  shl(0x20, tag_33)\n    /* \"Farm.sol\":16168:16207  div(a, b, \"SafeMath: division by zero\") */\n  0x20\n  shr\n  jump\t// in\ntag_32:\n    /* \"Farm.sol\":16161:16207  return div(a, b, \"SafeMath: division by zero\") */\n  swap1\n  pop\n    /* \"Farm.sol\":16083:16215  function div(uint256 a, uint256 b) internal pure returns (uint256) {\r... */\n  swap3\n  swap2\n  pop\n  pop\n  jump\t// out\n    /* \"Farm.sol\":15136:15607  function mul(uint256 a, uint256 b) internal pure returns (uint256) {\r... */\ntag_26:\n    /* \"Farm.sol\":15194:15201  uint256 */\n  0x00\n    /* \"Farm.sol\":15444:15445  0 */\n  dup1\n    /* \"Farm.sol\":15439:15440  a */\n  dup4\n    /* \"Farm.sol\":15439:15445  a == 0 */\n  eq\n    /* \"Farm.sol\":15435:15482  if (a == 0) {\r... */\n  iszero\n  tag_35\n  jumpi\n    /* \"Farm.sol\":15469:15470  0 */\n  0x00\n    /* \"Farm.sol\":15462:15470  return 0 */\n  swap1\n  pop\n  jump(tag_34)\n    /* \"Farm.sol\":15435:15482  if (a == 0) {\r... */\ntag_35:\n    /* \"Farm.sol\":15494:15503  uint256 c */\n  0x00\n    /* \"Farm.sol\":15510:15511  b */\n  dup3\n    /* \"Farm.sol\":15506:15507  a */\n  dup5\n    /* \"Farm.sol\":15506:15511  a * b */\n  mul\n    /* \"Farm.sol\":15494:15511  uint256 c = a * b */\n  swap1\n  pop\n    /* \"Farm.sol\":15539:15540  b */\n  dup3\n    /* \"Farm.sol\":15534:15535  a */\n  dup5\n    /* \"Farm.sol\":15530:15531  c */\n  dup3\n    /* \"Farm.sol\":15530:15535  c / a */\n  dup2\n  tag_36\n  jumpi\n  invalid\ntag_36:\n  div\n    /* \"Farm.sol\":15530:15540  c / a == b */\n  eq\n    /* \"Farm.sol\":15522:15578  require(c / a == b, \"SafeMath: multiplication overflow\") */\n  tag_37\n  jumpi\n  mload(0x40)\n  0x08c379a000000000000000000000000000000000000000000000000000000000\n  dup2\n  mstore\n  0x04\n  add\n  dup1\n  dup1\n  0x20\n  add\n  dup3\n  dup2\n  sub\n  dup3\n  mstore\n  0x21\n  dup2\n  mstore\n  0x20\n  add\n  dup1\n  data_9113bb53c2876a3805b2c9242029423fc540a728243ce887ab24c82cf119fba3\n  0x21\n  swap2\n  codecopy\n  0x40\n  add\n  swap2\n  pop\n  pop\n  mload(0x40)\n  dup1\n  swap2\n  sub\n  swap1\n  revert\ntag_37:\n    /* \"Farm.sol\":15598:15599  c */\n  dup1\n    /* \"Farm.sol\":15591:15599  return c */\n  swap2\n  pop\n  pop\n    /* \"Farm.sol\":15136:15607  function mul(uint256 a, uint256 b) internal pure returns (uint256) {\r... */\ntag_34:\n  swap3\n  swap2\n  pop\n  pop\n  jump\t// out\n    /* \"Farm.sol\":17454:17584  function mod(uint256 a, uint256 b) internal pure returns (uint256) {\r... */\ntag_28:\n    /* \"Farm.sol\":17512:17519  uint256 */\n  0x00\n    /* \"Farm.sol\":17539:17576  mod(a, b, \"SafeMath: modulo by zero\") */\n  tag_39\n    /* \"Farm.sol\":17543:17544  a */\n  dup4\n    /* \"Farm.sol\":17546:17547  b */\n  dup4\n    /* \"Farm.sol\":17539:17576  mod(a, b, \"SafeMath: modulo by zero\") */\n  mload(0x40)\n  dup1\n  0x40\n  add\n  0x40\n  mstore\n  dup1\n  0x18\n  dup2\n  mstore\n  0x20\n  add\n  0x536166654d6174683a206d6f64756c6f206279207a65726f0000000000000000\n  dup2\n  mstore\n  pop\n    /* \"Farm.sol\":17539:17542  mod */\n  shl(0x20, tag_40)\n    /* \"Farm.sol\":17539:17576  mod(a, b, \"SafeMath: modulo by zero\") */\n  0x20\n  shr\n  jump\t// in\ntag_39:\n    /* \"Farm.sol\":17532:17576  return mod(a, b, \"SafeMath: modulo by zero\") */\n  swap1\n  pop\n    /* \"Farm.sol\":17454:17584  function mod(uint256 a, uint256 b) internal pure returns (uint256) {\r... */\n  swap3\n  swap2\n  pop\n  pop\n  jump\t// out\n    /* \"Farm.sol\":16711:16989  function div(uint256 a, uint256 b, string memory errorMessage) internal pure returns (uint256) {\r... */\ntag_33:\n    /* \"Farm.sol\":16797:16804  uint256 */\n  0x00\n    /* \"Farm.sol\":16829:16830  0 */\n  dup1\n    /* \"Farm.sol\":16825:16826  b */\n  dup4\n    /* \"Farm.sol\":16825:16830  b > 0 */\n  gt\n    /* \"Farm.sol\":16832:16844  errorMessage */\n  dup3\n    /* \"Farm.sol\":16817:16845  require(b > 0, errorMessage) */\n  swap1\n  tag_42\n  jumpi\n  mload(0x40)\n  0x08c379a000000000000000000000000000000000000000000000000000000000\n  dup2\n  mstore\n  0x04\n  add\n  dup1\n  dup1\n  0x20\n  add\n  dup3\n  dup2\n  sub\n  dup3\n  mstore\n  dup4\n  dup2\n  dup2\n  mload\n  dup2\n  mstore\n  0x20\n  add\n  swap2\n  pop\n  dup1\n  mload\n  swap1\n  0x20\n  add\n  swap1\n  dup1\n  dup4\n  dup4\n    /* \"--CODEGEN--\":23:24   */\n  0x00\n    /* \"--CODEGEN--\":8:108   */\ntag_43:\n    /* \"--CODEGEN--\":33:36   */\n  dup4\n    /* \"--CODEGEN--\":30:31   */\n  dup2\n    /* \"--CODEGEN--\":27:37   */\n  lt\n    /* \"--CODEGEN--\":8:108   */\n  iszero\n  tag_45\n  jumpi\n    /* \"--CODEGEN--\":99:100   */\n  dup1\n    /* \"--CODEGEN--\":94:97   */\n  dup3\n    /* \"--CODEGEN--\":90:101   */\n  add\n    /* \"--CODEGEN--\":84:102   */\n  mload\n    /* \"--CODEGEN--\":80:81   */\n  dup2\n    /* \"--CODEGEN--\":75:78   */\n  dup5\n    /* \"--CODEGEN--\":71:82   */\n  add\n    /* \"--CODEGEN--\":64:103   */\n  mstore\n    /* \"--CODEGEN--\":52:54   */\n  0x20\n    /* \"--CODEGEN--\":49:50   */\n  dup2\n    /* \"--CODEGEN--\":45:55   */\n  add\n    /* \"--CODEGEN--\":40:55   */\n  swap1\n  pop\n    /* \"--CODEGEN--\":8:108   */\n  jump(tag_43)\ntag_45:\n    /* \"--CODEGEN--\":12:26   */\n  pop\n    /* \"Farm.sol\":16817:16845  require(b > 0, errorMessage) */\n  pop\n  pop\n  pop\n  swap1\n  pop\n  swap1\n  dup2\n  add\n  swap1\n  0x1f\n  and\n  dup1\n  iszero\n  tag_46\n  jumpi\n  dup1\n  dup3\n  sub\n  dup1\n  mload\n  0x01\n  dup4\n  0x20\n  sub\n  0x0100\n  exp\n  sub\n  not\n  and\n  dup2\n  mstore\n  0x20\n  add\n  swap2\n  pop\ntag_46:\n  pop\n  swap3\n  pop\n  pop\n  pop\n  mload(0x40)\n  dup1\n  swap2\n  sub\n  swap1\n  revert\ntag_42:\n  pop\n    /* \"Farm.sol\":16856:16865  uint256 c */\n  0x00\n    /* \"Farm.sol\":16872:16873  b */\n  dup4\n    /* \"Farm.sol\":16868:16869  a */\n  dup6\n    /* \"Farm.sol\":16868:16873  a / b */\n  dup2\n  tag_47\n  jumpi\n  invalid\ntag_47:\n  div\n    /* \"Farm.sol\":16856:16873  uint256 c = a / b */\n  swap1\n  pop\n    /* \"Farm.sol\":16980:16981  c */\n  dup1\n    /* \"Farm.sol\":16973:16981  return c */\n  swap2\n  pop\n  pop\n    /* \"Farm.sol\":16711:16989  function div(uint256 a, uint256 b, string memory errorMessage) internal pure returns (uint256) {\r... */\n  swap4\n  swap3\n  pop\n  pop\n  pop\n  jump\t// out\n    /* \"Farm.sol\":18069:18235  function mod(uint256 a, uint256 b, string memory errorMessage) internal pure returns (uint256) {\r... */\ntag_40:\n    /* \"Farm.sol\":18155:18162  uint256 */\n  0x00\n    /* \"Farm.sol\":18188:18189  0 */\n  dup1\n    /* \"Farm.sol\":18183:18184  b */\n  dup4\n    /* \"Farm.sol\":18183:18189  b != 0 */\n  eq\n  iszero\n    /* \"Farm.sol\":18191:18203  errorMessage */\n  dup3\n    /* \"Farm.sol\":18175:18204  require(b != 0, errorMessage) */\n  swap1\n  tag_49\n  jumpi\n  mload(0x40)\n  0x08c379a000000000000000000000000000000000000000000000000000000000\n  dup2\n  mstore\n  0x04\n  add\n  dup1\n  dup1\n  0x20\n  add\n  dup3\n  dup2\n  sub\n  dup3\n  mstore\n  dup4\n  dup2\n  dup2\n  mload\n  dup2\n  mstore\n  0x20\n  add\n  swap2\n  pop\n  dup1\n  mload\n  swap1\n  0x20\n  add\n  swap1\n  dup1\n  dup4\n  dup4\n    /* \"--CODEGEN--\":23:24   */\n  0x00\n    /* \"--CODEGEN--\":8:108   */\ntag_50:\n    /* \"--CODEGEN--\":33:36   */\n  dup4\n    /* \"--CODEGEN--\":30:31   */\n  dup2\n    /* \"--CODEGEN--\":27:37   */\n  lt\n    /* \"--CODEGEN--\":8:108   */\n  iszero\n  tag_52\n  jumpi\n    /* \"--CODEGEN--\":99:100   */\n  dup1\n    /* \"--CODEGEN--\":94:97   */\n  dup3\n    /* \"--CODEGEN--\":90:101   */\n  add\n    /* \"--CODEGEN--\":84:102   */\n  mload\n    /* \"--CODEGEN--\":80:81   */\n  dup2\n    /* \"--CODEGEN--\":75:78   */\n  dup5\n    /* \"--CODEGEN--\":71:82   */\n  add\n    /* \"--CODEGEN--\":64:103   */\n  mstore\n    /* \"--CODEGEN--\":52:54   */\n  0x20\n    /* \"--CODEGEN--\":49:50   */\n  dup2\n    /* \"--CODEGEN--\":45:55   */\n  add\n    /* \"--CODEGEN--\":40:55   */\n  swap1\n  pop\n    /* \"--CODEGEN--\":8:108   */\n  jump(tag_50)\ntag_52:\n    /* \"--CODEGEN--\":12:26   */\n  pop\n    /* \"Farm.sol\":18175:18204  require(b != 0, errorMessage) */\n  pop\n  pop\n  pop\n  swap1\n  pop\n  swap1\n  dup2\n  add\n  swap1\n  0x1f\n  and\n  dup1\n  iszero\n  tag_53\n  jumpi\n  dup1\n  dup3\n  sub\n  dup1\n  mload\n  0x01\n  dup4\n  0x20\n  sub\n  0x0100\n  exp\n  sub\n  not\n  and\n  dup2\n  mstore\n  0x20\n  add\n  swap2\n  pop\ntag_53:\n  pop\n  swap3\n  pop\n  pop\n  pop\n  mload(0x40)\n  dup1\n  swap2\n  sub\n  swap1\n  revert\ntag_49:\n  pop\n    /* \"Farm.sol\":18226:18227  b */\n  dup3\n    /* \"Farm.sol\":18222:18223  a */\n  dup5\n    /* \"Farm.sol\":18222:18227  a % b */\n  dup2\n  tag_54\n  jumpi\n  invalid\ntag_54:\n  mod\n    /* \"Farm.sol\":18215:18227  return a % b */\n  swap1\n  pop\n    /* \"Farm.sol\":18069:18235  function mod(uint256 a, uint256 b, string memory errorMessage) internal pure returns (uint256) {\r... */\n  swap4\n  swap3\n  pop\n  pop\n  pop\n  jump\t// out\n    /* \"Farm.sol\":23113:30261  contract Farm is ReentrancyGuard, Pausable, Ownable {\r... */\ntag_15:\n  dataSize(sub_0)\n  dup1\n  dataOffset(sub_0)\n  0x00\n  codecopy\n  0x00\n  return\nstop\ndata_9113bb53c2876a3805b2c9242029423fc540a728243ce887ab24c82cf119fba3 536166654d6174683a206d756c7469706c69636174696f6e206f766572666c6f77\n\nsub_0: assembly {\n        /* \"Farm.sol\":23113:30261  contract Farm is ReentrancyGuard, Pausable, Ownable {\r... */\n      mstore(0x40, 0x80)\n      callvalue\n        /* \"--CODEGEN--\":5:14   */\n      dup1\n        /* \"--CODEGEN--\":2:4   */\n      iszero\n      tag_1\n      jumpi\n        /* \"--CODEGEN--\":27:28   */\n      0x00\n        /* \"--CODEGEN--\":24:25   */\n      dup1\n        /* \"--CODEGEN--\":17:29   */\n      revert\n        /* \"--CODEGEN--\":2:4   */\n    tag_1:\n        /* \"Farm.sol\":23113:30261  contract Farm is ReentrancyGuard, Pausable, Ownable {\r... */\n      pop\n      jumpi(tag_2, lt(calldatasize, 0x04))\n      shr(0xe0, calldataload(0x00))\n      dup1\n      0x7b0a47ee\n      gt\n      tag_32\n      jumpi\n      dup1\n      0xc8f33c91\n      gt\n      tag_33\n      jumpi\n      dup1\n      0xdf136d65\n      gt\n      tag_34\n      jumpi\n      dup1\n      0xdf136d65\n      eq\n      tag_28\n      jumpi\n      dup1\n      0xe9fad8ee\n      eq\n      tag_29\n      jumpi\n      dup1\n      0xebe2b12b\n      eq\n      tag_30\n      jumpi\n      dup1\n      0xf2fde38b\n      eq\n      tag_31\n      jumpi\n      jump(tag_2)\n    tag_34:\n      dup1\n      0xc8f33c91\n      eq\n      tag_24\n      jumpi\n      dup1\n      0xcc1a378f\n      eq\n      tag_25\n      jumpi\n      dup1\n      0xcd3daf9d\n      eq\n      tag_26\n      jumpi\n      dup1\n      0xd1af0c7d\n      eq\n      tag_27\n      jumpi\n      jump(tag_2)\n    tag_33:\n      dup1\n      0x8b876347\n      gt\n      tag_35\n      jumpi\n      dup1\n      0x8b876347\n      eq\n      tag_20\n      jumpi\n      dup1\n      0x8da5cb5b\n      eq\n      tag_21\n      jumpi\n      dup1\n      0xa694fc3a\n      eq\n      tag_22\n      jumpi\n      dup1\n      0xa85fe3b7\n      eq\n      tag_23\n      jumpi\n      jump(tag_2)\n    tag_35:\n      dup1\n      0x7b0a47ee\n      eq\n      tag_17\n      jumpi\n      dup1\n      0x80faa57d\n      eq\n      tag_18\n      jumpi\n      dup1\n      0x8980f11f\n      eq\n      tag_19\n      jumpi\n      jump(tag_2)\n    tag_32:\n      dup1\n      0x3c6b16ab\n      gt\n      tag_36\n      jumpi\n      dup1\n      0x70a08231\n      gt\n      tag_37\n      jumpi\n      dup1\n      0x70a08231\n      eq\n      tag_13\n      jumpi\n      dup1\n      0x715018a6\n      eq\n      tag_14\n      jumpi\n      dup1\n      0x72f702f3\n      eq\n      tag_15\n      jumpi\n      dup1\n      0x7ae2b5c7\n      eq\n      tag_16\n      jumpi\n      jump(tag_2)\n    tag_37:\n      dup1\n      0x3c6b16ab\n      eq\n      tag_10\n      jumpi\n      dup1\n      0x3d18b912\n      eq\n      tag_11\n      jumpi\n      dup1\n      0x5c975abb\n      eq\n      tag_12\n      jumpi\n      jump(tag_2)\n    tag_36:\n      dup1\n      0x1c1f78eb\n      gt\n      tag_38\n      jumpi\n      dup1\n      0x1c1f78eb\n      eq\n      tag_6\n      jumpi\n      dup1\n      0x2e1a7d4d\n      eq\n      tag_7\n      jumpi\n      dup1\n      0x2e4c697f\n      eq\n      tag_8\n      jumpi\n      dup1\n      0x386a9525\n      eq\n      tag_9\n      jumpi\n      jump(tag_2)\n    tag_38:\n      dup1\n      0x8cc262\n      eq\n      tag_3\n      jumpi\n      dup1\n      0x0700037d\n      eq\n      tag_4\n      jumpi\n      dup1\n      0x18160ddd\n      eq\n      tag_5\n      jumpi\n    tag_2:\n        /* \"--CODEGEN--\":12:13   */\n      0x00\n        /* \"--CODEGEN--\":9:10   */\n      dup1\n        /* \"--CODEGEN--\":2:14   */\n      revert\n        /* \"Farm.sol\":25434:25691  function earned(address account) public view returns (uint256) {\r... */\n    tag_3:\n      tag_39\n      0x04\n      dup1\n      calldatasize\n      sub\n        /* \"--CODEGEN--\":15:17   */\n      0x20\n        /* \"--CODEGEN--\":10:13   */\n      dup2\n        /* \"--CODEGEN--\":7:18   */\n      lt\n        /* \"--CODEGEN--\":4:6   */\n      iszero\n      tag_40\n      jumpi\n        /* \"--CODEGEN--\":31:32   */\n      0x00\n        /* \"--CODEGEN--\":28:29   */\n      dup1\n        /* \"--CODEGEN--\":21:33   */\n      revert\n        /* \"--CODEGEN--\":4:6   */\n    tag_40:\n        /* \"Farm.sol\":25434:25691  function earned(address account) public view returns (uint256) {\r... */\n      dup2\n      add\n      swap1\n      dup1\n      dup1\n      calldataload\n      0xffffffffffffffffffffffffffffffffffffffff\n      and\n      swap1\n      0x20\n      add\n      swap1\n      swap3\n      swap2\n      swap1\n      pop\n      pop\n      pop\n      tag_41\n      jump\t// in\n    tag_39:\n      mload(0x40)\n      dup1\n      dup3\n      dup2\n      mstore\n      0x20\n      add\n      swap2\n      pop\n      pop\n      mload(0x40)\n      dup1\n      swap2\n      sub\n      swap1\n      return\n        /* \"Farm.sol\":23689:23731  mapping(address => uint256) public rewards */\n    tag_4:\n      tag_42\n      0x04\n      dup1\n      calldatasize\n      sub\n        /* \"--CODEGEN--\":15:17   */\n      0x20\n        /* \"--CODEGEN--\":10:13   */\n      dup2\n        /* \"--CODEGEN--\":7:18   */\n      lt\n        /* \"--CODEGEN--\":4:6   */\n      iszero\n      tag_43\n      jumpi\n        /* \"--CODEGEN--\":31:32   */\n      0x00\n        /* \"--CODEGEN--\":28:29   */\n      dup1\n        /* \"--CODEGEN--\":21:33   */\n      revert\n        /* \"--CODEGEN--\":4:6   */\n    tag_43:\n        /* \"Farm.sol\":23689:23731  mapping(address => uint256) public rewards */\n      dup2\n      add\n      swap1\n      dup1\n      dup1\n      calldataload\n      0xffffffffffffffffffffffffffffffffffffffff\n      and\n      swap1\n      0x20\n      add\n      swap1\n      swap3\n      swap2\n      swap1\n      pop\n      pop\n      pop\n      tag_44\n      jump\t// in\n    tag_42:\n      mload(0x40)\n      dup1\n      dup3\n      dup2\n      mstore\n      0x20\n      add\n      swap2\n      pop\n      pop\n      mload(0x40)\n      dup1\n      swap2\n      sub\n      swap1\n      return\n        /* \"Farm.sol\":24305:24398  function totalSupply() external view returns (uint256) {\r... */\n    tag_5:\n      tag_45\n      tag_46\n      jump\t// in\n    tag_45:\n      mload(0x40)\n      dup1\n      dup3\n      dup2\n      mstore\n      0x20\n      add\n      swap2\n      pop\n      pop\n      mload(0x40)\n      dup1\n      swap2\n      sub\n      swap1\n      return\n        /* \"Farm.sol\":25699:25820  function getRewardForDuration() external view returns (uint256) {\r... */\n    tag_6:\n      tag_47\n      tag_48\n      jump\t// in\n    tag_47:\n      mload(0x40)\n      dup1\n      dup3\n      dup2\n      mstore\n      0x20\n      add\n      swap2\n      pop\n      pop\n      mload(0x40)\n      dup1\n      swap2\n      sub\n      swap1\n      return\n        /* \"Farm.sol\":26410:26789  function withdraw(uint256 amount)\r... */\n    tag_7:\n      tag_49\n      0x04\n      dup1\n      calldatasize\n      sub\n        /* \"--CODEGEN--\":15:17   */\n      0x20\n        /* \"--CODEGEN--\":10:13   */\n      dup2\n        /* \"--CODEGEN--\":7:18   */\n      lt\n        /* \"--CODEGEN--\":4:6   */\n      iszero\n      tag_50\n      jumpi\n        /* \"--CODEGEN--\":31:32   */\n      0x00\n        /* \"--CODEGEN--\":28:29   */\n      dup1\n        /* \"--CODEGEN--\":21:33   */\n      revert\n        /* \"--CODEGEN--\":4:6   */\n    tag_50:\n        /* \"Farm.sol\":26410:26789  function withdraw(uint256 amount)\r... */\n      dup2\n      add\n      swap1\n      dup1\n      dup1\n      calldataload\n      swap1\n      0x20\n      add\n      swap1\n      swap3\n      swap2\n      swap1\n      pop\n      pop\n      pop\n      tag_51\n      jump\t// in\n    tag_49:\n      stop\n        /* \"Farm.sol\":24406:24770  function pow(uint n, uint e) public pure returns (uint) {\r... */\n    tag_8:\n      tag_52\n      0x04\n      dup1\n      calldatasize\n      sub\n        /* \"--CODEGEN--\":15:17   */\n      0x40\n        /* \"--CODEGEN--\":10:13   */\n      dup2\n        /* \"--CODEGEN--\":7:18   */\n      lt\n        /* \"--CODEGEN--\":4:6   */\n      iszero\n      tag_53\n      jumpi\n        /* \"--CODEGEN--\":31:32   */\n      0x00\n        /* \"--CODEGEN--\":28:29   */\n      dup1\n        /* \"--CODEGEN--\":21:33   */\n      revert\n        /* \"--CODEGEN--\":4:6   */\n    tag_53:\n        /* \"Farm.sol\":24406:24770  function pow(uint n, uint e) public pure returns (uint) {\r... */\n      dup2\n      add\n      swap1\n      dup1\n      dup1\n      calldataload\n      swap1\n      0x20\n      add\n      swap1\n      swap3\n      swap2\n      swap1\n      dup1\n      calldataload\n      swap1\n      0x20\n      add\n      swap1\n      swap3\n      swap2\n      swap1\n      pop\n      pop\n      pop\n      tag_54\n      jump\t// in\n    tag_52:\n      mload(0x40)\n      dup1\n      dup3\n      dup2\n      mstore\n      0x20\n      add\n      swap2\n      pop\n      pop\n      mload(0x40)\n      dup1\n      swap2\n      sub\n      swap1\n      return\n        /* \"Farm.sol\":23431:23461  uint256 public rewardsDuration */\n    tag_9:\n      tag_55\n      tag_56\n      jump\t// in\n    tag_55:\n      mload(0x40)\n      dup1\n      dup3\n      dup2\n      mstore\n      0x20\n      add\n      swap2\n      pop\n      pop\n      mload(0x40)\n      dup1\n      swap2\n      sub\n      swap1\n      return\n        /* \"Farm.sol\":27273:28402  function notifyRewardAmount(uint256 reward)\r... */\n    tag_10:\n      tag_57\n      0x04\n      dup1\n      calldatasize\n      sub\n        /* \"--CODEGEN--\":15:17   */\n      0x20\n        /* \"--CODEGEN--\":10:13   */\n      dup2\n        /* \"--CODEGEN--\":7:18   */\n      lt\n        /* \"--CODEGEN--\":4:6   */\n      iszero\n      tag_58\n      jumpi\n        /* \"--CODEGEN--\":31:32   */\n      0x00\n        /* \"--CODEGEN--\":28:29   */\n      dup1\n        /* \"--CODEGEN--\":21:33   */\n      revert\n        /* \"--CODEGEN--\":4:6   */\n    tag_58:\n        /* \"Farm.sol\":27273:28402  function notifyRewardAmount(uint256 reward)\r... */\n      dup2\n      add\n      swap1\n      dup1\n      dup1\n      calldataload\n      swap1\n      0x20\n      add\n      swap1\n      swap3\n      swap2\n      swap1\n      pop\n      pop\n      pop\n      tag_59\n      jump\t// in\n    tag_57:\n      stop\n        /* \"Farm.sol\":26797:27104  function getReward() public nonReentrant updateReward(msg.sender) {\r... */\n    tag_11:\n      tag_60\n      tag_61\n      jump\t// in\n    tag_60:\n      stop\n        /* \"Farm.sol\":10504:10582  function paused() public view returns (bool) {\r... */\n    tag_12:\n      tag_62\n      tag_63\n      jump\t// in\n    tag_62:\n      mload(0x40)\n      dup1\n      dup3\n      iszero\n      iszero\n      iszero\n      iszero\n      dup2\n      mstore\n      0x20\n      add\n      swap2\n      pop\n      pop\n      mload(0x40)\n      dup1\n      swap2\n      sub\n      swap1\n      return\n        /* \"Farm.sol\":24778:24890  function balanceOf(address account) external view returns (uint256) {\r... */\n    tag_13:\n      tag_64\n      0x04\n      dup1\n      calldatasize\n      sub\n        /* \"--CODEGEN--\":15:17   */\n      0x20\n        /* \"--CODEGEN--\":10:13   */\n      dup2\n        /* \"--CODEGEN--\":7:18   */\n      lt\n        /* \"--CODEGEN--\":4:6   */\n      iszero\n      tag_65\n      jumpi\n        /* \"--CODEGEN--\":31:32   */\n      0x00\n        /* \"--CODEGEN--\":28:29   */\n      dup1\n        /* \"--CODEGEN--\":21:33   */\n      revert\n        /* \"--CODEGEN--\":4:6   */\n    tag_65:\n        /* \"Farm.sol\":24778:24890  function balanceOf(address account) external view returns (uint256) {\r... */\n      dup2\n      add\n      swap1\n      dup1\n      dup1\n      calldataload\n      0xffffffffffffffffffffffffffffffffffffffff\n      and\n      swap1\n      0x20\n      add\n      swap1\n      swap3\n      swap2\n      swap1\n      pop\n      pop\n      pop\n      tag_66\n      jump\t// in\n    tag_64:\n      mload(0x40)\n      dup1\n      dup3\n      dup2\n      mstore\n      0x20\n      add\n      swap2\n      pop\n      pop\n      mload(0x40)\n      dup1\n      swap2\n      sub\n      swap1\n      return\n        /* \"Farm.sol\":22559:22707  function renounceOwnership() public virtual onlyOwner {\r... */\n    tag_14:\n      tag_67\n      tag_68\n      jump\t// in\n    tag_67:\n      stop\n        /* \"Farm.sol\":23324:23350  IERC20 public stakingToken */\n    tag_15:\n      tag_69\n      tag_70\n      jump\t// in\n    tag_69:\n      mload(0x40)\n      dup1\n      dup3\n      0xffffffffffffffffffffffffffffffffffffffff\n      and\n      0xffffffffffffffffffffffffffffffffffffffff\n      and\n      dup2\n      mstore\n      0x20\n      add\n      swap2\n      pop\n      pop\n      mload(0x40)\n      dup1\n      swap2\n      sub\n      swap1\n      return\n        /* \"Farm.sol\":25828:25932  function min(uint256 a, uint256 b) public pure returns (uint256) {\r... */\n    tag_16:\n      tag_71\n      0x04\n      dup1\n      calldatasize\n      sub\n        /* \"--CODEGEN--\":15:17   */\n      0x40\n        /* \"--CODEGEN--\":10:13   */\n      dup2\n        /* \"--CODEGEN--\":7:18   */\n      lt\n        /* \"--CODEGEN--\":4:6   */\n      iszero\n      tag_72\n      jumpi\n        /* \"--CODEGEN--\":31:32   */\n      0x00\n        /* \"--CODEGEN--\":28:29   */\n      dup1\n        /* \"--CODEGEN--\":21:33   */\n      revert\n        /* \"--CODEGEN--\":4:6   */\n    tag_72:\n        /* \"Farm.sol\":25828:25932  function min(uint256 a, uint256 b) public pure returns (uint256) {\r... */\n      dup2\n      add\n      swap1\n      dup1\n      dup1\n      calldataload\n      swap1\n      0x20\n      add\n      swap1\n      swap3\n      swap2\n      swap1\n      dup1\n      calldataload\n      swap1\n      0x20\n      add\n      swap1\n      swap3\n      swap2\n      swap1\n      pop\n      pop\n      pop\n      tag_73\n      jump\t// in\n    tag_71:\n      mload(0x40)\n      dup1\n      dup3\n      dup2\n      mstore\n      0x20\n      add\n      swap2\n      pop\n      pop\n      mload(0x40)\n      dup1\n      swap2\n      sub\n      swap1\n      return\n        /* \"Farm.sol\":23395:23424  uint256 public rewardRate = 0 */\n    tag_17:\n      tag_74\n      tag_75\n      jump\t// in\n    tag_74:\n      mload(0x40)\n      dup1\n      dup3\n      dup2\n      mstore\n      0x20\n      add\n      swap2\n      pop\n      pop\n      mload(0x40)\n      dup1\n      swap2\n      sub\n      swap1\n      return\n        /* \"Farm.sol\":24898:25024  function lastTimeRewardApplicable() public view returns (uint256) {\r... */\n    tag_18:\n      tag_76\n      tag_77\n      jump\t// in\n    tag_76:\n      mload(0x40)\n      dup1\n      dup3\n      dup2\n      mstore\n      0x20\n      add\n      swap2\n      pop\n      pop\n      mload(0x40)\n      dup1\n      swap2\n      sub\n      swap1\n      return\n        /* \"Farm.sol\":28517:29136  function recoverERC20(address tokenAddress, uint256 tokenAmount)\r... */\n    tag_19:\n      tag_78\n      0x04\n      dup1\n      calldatasize\n      sub\n        /* \"--CODEGEN--\":15:17   */\n      0x40\n        /* \"--CODEGEN--\":10:13   */\n      dup2\n        /* \"--CODEGEN--\":7:18   */\n      lt\n        /* \"--CODEGEN--\":4:6   */\n      iszero\n      tag_79\n      jumpi\n        /* \"--CODEGEN--\":31:32   */\n      0x00\n        /* \"--CODEGEN--\":28:29   */\n      dup1\n        /* \"--CODEGEN--\":21:33   */\n      revert\n        /* \"--CODEGEN--\":4:6   */\n    tag_79:\n        /* \"Farm.sol\":28517:29136  function recoverERC20(address tokenAddress, uint256 tokenAmount)\r... */\n      dup2\n      add\n      swap1\n      dup1\n      dup1\n      calldataload\n      0xffffffffffffffffffffffffffffffffffffffff\n      and\n      swap1\n      0x20\n      add\n      swap1\n      swap3\n      swap2\n      swap1\n      dup1\n      calldataload\n      swap1\n      0x20\n      add\n      swap1\n      swap3\n      swap2\n      swap1\n      pop\n      pop\n      pop\n      tag_80\n      jump\t// in\n    tag_78:\n      stop\n        /* \"Farm.sol\":23625:23682  mapping(address => uint256) public userRewardPerTokenPaid */\n    tag_20:\n      tag_81\n      0x04\n      dup1\n      calldatasize\n      sub\n        /* \"--CODEGEN--\":15:17   */\n      0x20\n        /* \"--CODEGEN--\":10:13   */\n      dup2\n        /* \"--CODEGEN--\":7:18   */\n      lt\n        /* \"--CODEGEN--\":4:6   */\n      iszero\n      tag_82\n      jumpi\n        /* \"--CODEGEN--\":31:32   */\n      0x00\n        /* \"--CODEGEN--\":28:29   */\n      dup1\n        /* \"--CODEGEN--\":21:33   */\n      revert\n        /* \"--CODEGEN--\":4:6   */\n    tag_82:\n        /* \"Farm.sol\":23625:23682  mapping(address => uint256) public userRewardPerTokenPaid */\n      dup2\n      add\n      swap1\n      dup1\n      dup1\n      calldataload\n      0xffffffffffffffffffffffffffffffffffffffff\n      and\n      swap1\n      0x20\n      add\n      swap1\n      swap3\n      swap2\n      swap1\n      pop\n      pop\n      pop\n      tag_83\n      jump\t// in\n    tag_81:\n      mload(0x40)\n      dup1\n      dup3\n      dup2\n      mstore\n      0x20\n      add\n      swap2\n      pop\n      pop\n      mload(0x40)\n      dup1\n      swap2\n      sub\n      swap1\n      return\n        /* \"Farm.sol\":21917:21996  function owner() public view returns (address) {\r... */\n    tag_21:\n      tag_84\n      tag_85\n      jump\t// in\n    tag_84:\n      mload(0x40)\n      dup1\n      dup3\n      0xffffffffffffffffffffffffffffffffffffffff\n      and\n      0xffffffffffffffffffffffffffffffffffffffff\n      and\n      dup2\n      mstore\n      0x20\n      add\n      swap2\n      pop\n      pop\n      mload(0x40)\n      dup1\n      swap2\n      sub\n      swap1\n      return\n        /* \"Farm.sol\":25994:26402  function stake(uint256 amount)\r... */\n    tag_22:\n      tag_86\n      0x04\n      dup1\n      calldatasize\n      sub\n        /* \"--CODEGEN--\":15:17   */\n      0x20\n        /* \"--CODEGEN--\":10:13   */\n      dup2\n        /* \"--CODEGEN--\":7:18   */\n      lt\n        /* \"--CODEGEN--\":4:6   */\n      iszero\n      tag_87\n      jumpi\n        /* \"--CODEGEN--\":31:32   */\n      0x00\n        /* \"--CODEGEN--\":28:29   */\n      dup1\n        /* \"--CODEGEN--\":21:33   */\n      revert\n        /* \"--CODEGEN--\":4:6   */\n    tag_87:\n        /* \"Farm.sol\":25994:26402  function stake(uint256 amount)\r... */\n      dup2\n      add\n      swap1\n      dup1\n      dup1\n      calldataload\n      swap1\n      0x20\n      add\n      swap1\n      swap3\n      swap2\n      swap1\n      pop\n      pop\n      pop\n      tag_88\n      jump\t// in\n    tag_86:\n      stop\n        /* \"Farm.sol\":23546:23585  uint256 public stakingTokensDecimalRate */\n    tag_23:\n      tag_89\n      tag_90\n      jump\t// in\n    tag_89:\n      mload(0x40)\n      dup1\n      dup3\n      dup2\n      mstore\n      0x20\n      add\n      swap2\n      pop\n      pop\n      mload(0x40)\n      dup1\n      swap2\n      sub\n      swap1\n      return\n        /* \"Farm.sol\":23468:23497  uint256 public lastUpdateTime */\n    tag_24:\n      tag_91\n      tag_92\n      jump\t// in\n    tag_91:\n      mload(0x40)\n      dup1\n      dup3\n      dup2\n      mstore\n      0x20\n      add\n      swap2\n      pop\n      pop\n      mload(0x40)\n      dup1\n      swap2\n      sub\n      swap1\n      return\n        /* \"Farm.sol\":29144:29504  function setRewardsDuration(uint256 _rewardsDuration) external onlyOwner {\r... */\n    tag_25:\n      tag_93\n      0x04\n      dup1\n      calldatasize\n      sub\n        /* \"--CODEGEN--\":15:17   */\n      0x20\n        /* \"--CODEGEN--\":10:13   */\n      dup2\n        /* \"--CODEGEN--\":7:18   */\n      lt\n        /* \"--CODEGEN--\":4:6   */\n      iszero\n      tag_94\n      jumpi\n        /* \"--CODEGEN--\":31:32   */\n      0x00\n        /* \"--CODEGEN--\":28:29   */\n      dup1\n        /* \"--CODEGEN--\":21:33   */\n      revert\n        /* \"--CODEGEN--\":4:6   */\n    tag_94:\n        /* \"Farm.sol\":29144:29504  function setRewardsDuration(uint256 _rewardsDuration) external onlyOwner {\r... */\n      dup2\n      add\n      swap1\n      dup1\n      dup1\n      calldataload\n      swap1\n      0x20\n      add\n      swap1\n      swap3\n      swap2\n      swap1\n      pop\n      pop\n      pop\n      tag_95\n      jump\t// in\n    tag_93:\n      stop\n        /* \"Farm.sol\":25032:25426  function rewardPerToken() public view returns (uint256) {\r... */\n    tag_26:\n      tag_96\n      tag_97\n      jump\t// in\n    tag_96:\n      mload(0x40)\n      dup1\n      dup3\n      dup2\n      mstore\n      0x20\n      add\n      swap2\n      pop\n      pop\n      mload(0x40)\n      dup1\n      swap2\n      sub\n      swap1\n      return\n        /* \"Farm.sol\":23291:23317  IERC20 public rewardsToken */\n    tag_27:\n      tag_98\n      tag_99\n      jump\t// in\n    tag_98:\n      mload(0x40)\n      dup1\n      dup3\n      0xffffffffffffffffffffffffffffffffffffffff\n      and\n      0xffffffffffffffffffffffffffffffffffffffff\n      and\n      dup2\n      mstore\n      0x20\n      add\n      swap2\n      pop\n      pop\n      mload(0x40)\n      dup1\n      swap2\n      sub\n      swap1\n      return\n        /* \"Farm.sol\":23504:23539  uint256 public rewardPerTokenStored */\n    tag_28:\n      tag_100\n      tag_101\n      jump\t// in\n    tag_100:\n      mload(0x40)\n      dup1\n      dup3\n      dup2\n      mstore\n      0x20\n      add\n      swap2\n      pop\n      pop\n      mload(0x40)\n      dup1\n      swap2\n      sub\n      swap1\n      return\n        /* \"Farm.sol\":27112:27209  function exit() external {\r... */\n    tag_29:\n      tag_102\n      tag_103\n      jump\t// in\n    tag_102:\n      stop\n        /* \"Farm.sol\":23357:23388  uint256 public periodFinish = 0 */\n    tag_30:\n      tag_104\n      tag_105\n      jump\t// in\n    tag_104:\n      mload(0x40)\n      dup1\n      dup3\n      dup2\n      mstore\n      0x20\n      add\n      swap2\n      pop\n      pop\n      mload(0x40)\n      dup1\n      swap2\n      sub\n      swap1\n      return\n        /* \"Farm.sol\":22862:23106  function transferOwnership(address newOwner) public virtual onlyOwner {\r... */\n    tag_31:\n      tag_106\n      0x04\n      dup1\n      calldatasize\n      sub\n        /* \"--CODEGEN--\":15:17   */\n      0x20\n        /* \"--CODEGEN--\":10:13   */\n      dup2\n        /* \"--CODEGEN--\":7:18   */\n      lt\n        /* \"--CODEGEN--\":4:6   */\n      iszero\n      tag_107\n      jumpi\n        /* \"--CODEGEN--\":31:32   */\n      0x00\n        /* \"--CODEGEN--\":28:29   */\n      dup1\n        /* \"--CODEGEN--\":21:33   */\n      revert\n        /* \"--CODEGEN--\":4:6   */\n    tag_107:\n        /* \"Farm.sol\":22862:23106  function transferOwnership(address newOwner) public virtual onlyOwner {\r... */\n      dup2\n      add\n      swap1\n      dup1\n      dup1\n      calldataload\n      0xffffffffffffffffffffffffffffffffffffffff\n      and\n      swap1\n      0x20\n      add\n      swap1\n      swap3\n      swap2\n      swap1\n      pop\n      pop\n      pop\n      tag_108\n      jump\t// in\n    tag_106:\n      stop\n        /* \"Farm.sol\":25434:25691  function earned(address account) public view returns (uint256) {\r... */\n    tag_41:\n        /* \"Farm.sol\":25488:25495  uint256 */\n      0x00\n        /* \"Farm.sol\":25524:25683  _balances[account]\r... */\n      tag_113\n        /* \"Farm.sol\":25666:25673  rewards */\n      0x0c\n        /* \"Farm.sol\":25666:25682  rewards[account] */\n      0x00\n        /* \"Farm.sol\":25674:25681  account */\n      dup5\n        /* \"Farm.sol\":25666:25682  rewards[account] */\n      0xffffffffffffffffffffffffffffffffffffffff\n      and\n      0xffffffffffffffffffffffffffffffffffffffff\n      and\n      dup2\n      mstore\n      0x20\n      add\n      swap1\n      dup2\n      mstore\n      0x20\n      add\n      0x00\n      keccak256\n      sload\n        /* \"Farm.sol\":25524:25651  _balances[account]\r... */\n      tag_114\n        /* \"Farm.sol\":25626:25650  stakingTokensDecimalRate */\n      sload(0x09)\n        /* \"Farm.sol\":25524:25611  _balances[account]\r... */\n      tag_115\n        /* \"Farm.sol\":25557:25610  rewardPerToken().sub(userRewardPerTokenPaid[account]) */\n      tag_116\n        /* \"Farm.sol\":25578:25600  userRewardPerTokenPaid */\n      0x0b\n        /* \"Farm.sol\":25578:25609  userRewardPerTokenPaid[account] */\n      0x00\n        /* \"Farm.sol\":25601:25608  account */\n      dup10\n        /* \"Farm.sol\":25578:25609  userRewardPerTokenPaid[account] */\n      0xffffffffffffffffffffffffffffffffffffffff\n      and\n      0xffffffffffffffffffffffffffffffffffffffff\n      and\n      dup2\n      mstore\n      0x20\n      add\n      swap1\n      dup2\n      mstore\n      0x20\n      add\n      0x00\n      keccak256\n      sload\n        /* \"Farm.sol\":25557:25573  rewardPerToken() */\n      tag_117\n        /* \"Farm.sol\":25557:25571  rewardPerToken */\n      tag_97\n        /* \"Farm.sol\":25557:25573  rewardPerToken() */\n      jump\t// in\n    tag_117:\n        /* \"Farm.sol\":25557:25577  rewardPerToken().sub */\n      tag_118\n      swap1\n        /* \"Farm.sol\":25557:25610  rewardPerToken().sub(userRewardPerTokenPaid[account]) */\n      swap2\n      swap1\n      0xffffffff\n      and\n      jump\t// in\n    tag_116:\n        /* \"Farm.sol\":25524:25533  _balances */\n      0x0e\n        /* \"Farm.sol\":25524:25542  _balances[account] */\n      0x00\n        /* \"Farm.sol\":25534:25541  account */\n      dup10\n        /* \"Farm.sol\":25524:25542  _balances[account] */\n      0xffffffffffffffffffffffffffffffffffffffff\n      and\n      0xffffffffffffffffffffffffffffffffffffffff\n      and\n      dup2\n      mstore\n      0x20\n      add\n      swap1\n      dup2\n      mstore\n      0x20\n      add\n      0x00\n      keccak256\n      sload\n        /* \"Farm.sol\":25524:25556  _balances[account]\r... */\n      tag_110\n      swap1\n        /* \"Farm.sol\":25524:25611  _balances[account]\r... */\n      swap2\n      swap1\n      0xffffffff\n      and\n      jump\t// in\n    tag_115:\n        /* \"Farm.sol\":25524:25625  _balances[account]\r... */\n      tag_109\n      swap1\n        /* \"Farm.sol\":25524:25651  _balances[account]\r... */\n      swap2\n      swap1\n      0xffffffff\n      and\n      jump\t// in\n    tag_114:\n        /* \"Farm.sol\":25524:25665  _balances[account]\r... */\n      tag_119\n      swap1\n        /* \"Farm.sol\":25524:25683  _balances[account]\r... */\n      swap2\n      swap1\n      0xffffffff\n      and\n      jump\t// in\n    tag_113:\n        /* \"Farm.sol\":25508:25683  return\r... */\n      swap1\n      pop\n        /* \"Farm.sol\":25434:25691  function earned(address account) public view returns (uint256) {\r... */\n      swap2\n      swap1\n      pop\n      jump\t// out\n        /* \"Farm.sol\":23689:23731  mapping(address => uint256) public rewards */\n    tag_44:\n      mstore(0x20, 0x0c)\n      dup1\n      0x00\n      mstore\n      keccak256(0x00, 0x40)\n      0x00\n      swap2\n      pop\n      swap1\n      pop\n      sload\n      dup2\n      jump\t// out\n        /* \"Farm.sol\":24305:24398  function totalSupply() external view returns (uint256) {\r... */\n    tag_46:\n        /* \"Farm.sol\":24351:24358  uint256 */\n      0x00\n        /* \"Farm.sol\":24378:24390  _totalSupply */\n      sload(0x0d)\n        /* \"Farm.sol\":24371:24390  return _totalSupply */\n      swap1\n      pop\n        /* \"Farm.sol\":24305:24398  function totalSupply() external view returns (uint256) {\r... */\n      swap1\n      jump\t// out\n        /* \"Farm.sol\":25699:25820  function getRewardForDuration() external view returns (uint256) {\r... */\n    tag_48:\n        /* \"Farm.sol\":25754:25761  uint256 */\n      0x00\n        /* \"Farm.sol\":25781:25812  rewardRate.mul(rewardsDuration) */\n      tag_122\n        /* \"Farm.sol\":25796:25811  rewardsDuration */\n      sload(0x06)\n        /* \"Farm.sol\":25781:25791  rewardRate */\n      sload(0x05)\n        /* \"Farm.sol\":25781:25795  rewardRate.mul */\n      tag_110\n      swap1\n        /* \"Farm.sol\":25781:25812  rewardRate.mul(rewardsDuration) */\n      swap2\n      swap1\n      0xffffffff\n      and\n      jump\t// in\n    tag_122:\n        /* \"Farm.sol\":25774:25812  return rewardRate.mul(rewardsDuration) */\n      swap1\n      pop\n        /* \"Farm.sol\":25699:25820  function getRewardForDuration() external view returns (uint256) {\r... */\n      swap1\n      jump\t// out\n        /* \"Farm.sol\":26410:26789  function withdraw(uint256 amount)\r... */\n    tag_51:\n        /* \"Farm.sol\":12564:12565  2 */\n      0x02\n        /* \"Farm.sol\":13170:13177  _status */\n      sload(0x00)\n        /* \"Farm.sol\":13170:13189  _status != _ENTERED */\n      eq\n      iszero\n        /* \"Farm.sol\":13162:13225  require(_status != _ENTERED, \"ReentrancyGuard: reentrant call\") */\n      tag_124\n      jumpi\n      mload(0x40)\n      0x08c379a000000000000000000000000000000000000000000000000000000000\n      dup2\n      mstore\n      0x04\n      add\n      dup1\n      dup1\n      0x20\n      add\n      dup3\n      dup2\n      sub\n      dup3\n      mstore\n      0x1f\n      dup2\n      mstore\n      0x20\n      add\n      dup1\n      0x5265656e7472616e637947756172643a207265656e7472616e742063616c6c00\n      dup2\n      mstore\n      pop\n      0x20\n      add\n      swap2\n      pop\n      pop\n      mload(0x40)\n      dup1\n      swap2\n      sub\n      swap1\n      revert\n    tag_124:\n        /* \"Farm.sol\":12564:12565  2 */\n      0x02\n        /* \"Farm.sol\":13303:13310  _status */\n      0x00\n        /* \"Farm.sol\":13303:13321  _status = _ENTERED */\n      dup2\n      swap1\n      sstore\n      pop\n        /* \"Farm.sol\":26492:26502  msg.sender */\n      caller\n        /* \"Farm.sol\":29630:29646  rewardPerToken() */\n      tag_126\n        /* \"Farm.sol\":29630:29644  rewardPerToken */\n      tag_97\n        /* \"Farm.sol\":29630:29646  rewardPerToken() */\n      jump\t// in\n    tag_126:\n        /* \"Farm.sol\":29607:29627  rewardPerTokenStored */\n      0x08\n        /* \"Farm.sol\":29607:29646  rewardPerTokenStored = rewardPerToken() */\n      dup2\n      swap1\n      sstore\n      pop\n        /* \"Farm.sol\":29674:29700  lastTimeRewardApplicable() */\n      tag_127\n        /* \"Farm.sol\":29674:29698  lastTimeRewardApplicable */\n      tag_77\n        /* \"Farm.sol\":29674:29700  lastTimeRewardApplicable() */\n      jump\t// in\n    tag_127:\n        /* \"Farm.sol\":29657:29671  lastUpdateTime */\n      0x07\n        /* \"Farm.sol\":29657:29700  lastUpdateTime = lastTimeRewardApplicable() */\n      dup2\n      swap1\n      sstore\n      pop\n        /* \"Farm.sol\":29734:29735  0 */\n      0x00\n        /* \"Farm.sol\":29715:29736  account != address(0) */\n      0xffffffffffffffffffffffffffffffffffffffff\n      and\n        /* \"Farm.sol\":29715:29722  account */\n      dup2\n        /* \"Farm.sol\":29715:29736  account != address(0) */\n      0xffffffffffffffffffffffffffffffffffffffff\n      and\n      eq\n        /* \"Farm.sol\":29711:29868  if (account != address(0)) {\r... */\n      tag_128\n      jumpi\n        /* \"Farm.sol\":29772:29787  earned(account) */\n      tag_129\n        /* \"Farm.sol\":29779:29786  account */\n      dup2\n        /* \"Farm.sol\":29772:29778  earned */\n      tag_41\n        /* \"Farm.sol\":29772:29787  earned(account) */\n      jump\t// in\n    tag_129:\n        /* \"Farm.sol\":29753:29760  rewards */\n      0x0c\n        /* \"Farm.sol\":29753:29769  rewards[account] */\n      0x00\n        /* \"Farm.sol\":29761:29768  account */\n      dup4\n        /* \"Farm.sol\":29753:29769  rewards[account] */\n      0xffffffffffffffffffffffffffffffffffffffff\n      and\n      0xffffffffffffffffffffffffffffffffffffffff\n      and\n      dup2\n      mstore\n      0x20\n      add\n      swap1\n      dup2\n      mstore\n      0x20\n      add\n      0x00\n      keccak256\n        /* \"Farm.sol\":29753:29787  rewards[account] = earned(account) */\n      dup2\n      swap1\n      sstore\n      pop\n        /* \"Farm.sol\":29836:29856  rewardPerTokenStored */\n      sload(0x08)\n        /* \"Farm.sol\":29802:29824  userRewardPerTokenPaid */\n      0x0b\n        /* \"Farm.sol\":29802:29833  userRewardPerTokenPaid[account] */\n      0x00\n        /* \"Farm.sol\":29825:29832  account */\n      dup4\n        /* \"Farm.sol\":29802:29833  userRewardPerTokenPaid[account] */\n      0xffffffffffffffffffffffffffffffffffffffff\n      and\n      0xffffffffffffffffffffffffffffffffffffffff\n      and\n      dup2\n      mstore\n      0x20\n      add\n      swap1\n      dup2\n      mstore\n      0x20\n      add\n      0x00\n      keccak256\n        /* \"Farm.sol\":29802:29856  userRewardPerTokenPaid[account] = rewardPerTokenStored */\n      dup2\n      swap1\n      sstore\n      pop\n        /* \"Farm.sol\":29711:29868  if (account != address(0)) {\r... */\n    tag_128:\n        /* \"Farm.sol\":26537:26538  0 */\n      0x00\n        /* \"Farm.sol\":26528:26534  amount */\n      dup3\n        /* \"Farm.sol\":26528:26538  amount > 0 */\n      gt\n        /* \"Farm.sol\":26520:26560  require(amount > 0, \"Cannot withdraw 0\") */\n      tag_131\n      jumpi\n      mload(0x40)\n      0x08c379a000000000000000000000000000000000000000000000000000000000\n      dup2\n      mstore\n      0x04\n      add\n      dup1\n      dup1\n      0x20\n      add\n      dup3\n      dup2\n      sub\n      dup3\n      mstore\n      0x11\n      dup2\n      mstore\n      0x20\n      add\n      dup1\n      0x43616e6e6f742077697468647261772030000000000000000000000000000000\n      dup2\n      mstore\n      pop\n      0x20\n      add\n      swap2\n      pop\n      pop\n      mload(0x40)\n      dup1\n      swap2\n      sub\n      swap1\n      revert\n    tag_131:\n        /* \"Farm.sol\":26588:26612  _totalSupply.sub(amount) */\n      tag_132\n        /* \"Farm.sol\":26605:26611  amount */\n      dup3\n        /* \"Farm.sol\":26588:26600  _totalSupply */\n      sload(0x0d)\n        /* \"Farm.sol\":26588:26604  _totalSupply.sub */\n      tag_118\n      swap1\n        /* \"Farm.sol\":26588:26612  _totalSupply.sub(amount) */\n      swap2\n      swap1\n      0xffffffff\n      and\n      jump\t// in\n    tag_132:\n        /* \"Farm.sol\":26573:26585  _totalSupply */\n      0x0d\n        /* \"Farm.sol\":26573:26612  _totalSupply = _totalSupply.sub(amount) */\n      dup2\n      swap1\n      sstore\n      pop\n        /* \"Farm.sol\":26647:26680  _balances[msg.sender].sub(amount) */\n      tag_133\n        /* \"Farm.sol\":26673:26679  amount */\n      dup3\n        /* \"Farm.sol\":26647:26656  _balances */\n      0x0e\n        /* \"Farm.sol\":26647:26668  _balances[msg.sender] */\n      0x00\n        /* \"Farm.sol\":26657:26667  msg.sender */\n      caller\n        /* \"Farm.sol\":26647:26668  _balances[msg.sender] */\n      0xffffffffffffffffffffffffffffffffffffffff\n      and\n      0xffffffffffffffffffffffffffffffffffffffff\n      and\n      dup2\n      mstore\n      0x20\n      add\n      swap1\n      dup2\n      mstore\n      0x20\n      add\n      0x00\n      keccak256\n      sload\n        /* \"Farm.sol\":26647:26672  _balances[msg.sender].sub */\n      tag_118\n      swap1\n        /* \"Farm.sol\":26647:26680  _balances[msg.sender].sub(amount) */\n      swap2\n      swap1\n      0xffffffff\n      and\n      jump\t// in\n    tag_133:\n        /* \"Farm.sol\":26623:26632  _balances */\n      0x0e\n        /* \"Farm.sol\":26623:26644  _balances[msg.sender] */\n      0x00\n        /* \"Farm.sol\":26633:26643  msg.sender */\n      caller\n        /* \"Farm.sol\":26623:26644  _balances[msg.sender] */\n      0xffffffffffffffffffffffffffffffffffffffff\n      and\n      0xffffffffffffffffffffffffffffffffffffffff\n      and\n      dup2\n      mstore\n      0x20\n      add\n      swap1\n      dup2\n      mstore\n      0x20\n      add\n      0x00\n      keccak256\n        /* \"Farm.sol\":26623:26680  _balances[msg.sender] = _balances[msg.sender].sub(amount) */\n      dup2\n      swap1\n      sstore\n      pop\n        /* \"Farm.sol\":26691:26736  stakingToken.safeTransfer(msg.sender, amount) */\n      tag_134\n        /* \"Farm.sol\":26717:26727  msg.sender */\n      caller\n        /* \"Farm.sol\":26729:26735  amount */\n      dup4\n        /* \"Farm.sol\":26691:26703  stakingToken */\n      0x03\n      0x00\n      swap1\n      sload\n      swap1\n      0x0100\n      exp\n      swap1\n      div\n      0xffffffffffffffffffffffffffffffffffffffff\n      and\n        /* \"Farm.sol\":26691:26716  stakingToken.safeTransfer */\n      0xffffffffffffffffffffffffffffffffffffffff\n      and\n      tag_135\n      swap1\n        /* \"Farm.sol\":26691:26736  stakingToken.safeTransfer(msg.sender, amount) */\n      swap3\n      swap2\n      swap1\n      0xffffffff\n      and\n      jump\t// in\n    tag_134:\n        /* \"Farm.sol\":26762:26772  msg.sender */\n      caller\n        /* \"Farm.sol\":26752:26781  Withdrawn(msg.sender, amount) */\n      0xffffffffffffffffffffffffffffffffffffffff\n      and\n      0x7084f5476618d8e60b11ef0d7d3f06914655adb8793e28ff7f018d4c76d505d5\n        /* \"Farm.sol\":26774:26780  amount */\n      dup4\n        /* \"Farm.sol\":26752:26781  Withdrawn(msg.sender, amount) */\n      mload(0x40)\n      dup1\n      dup3\n      dup2\n      mstore\n      0x20\n      add\n      swap2\n      pop\n      pop\n      mload(0x40)\n      dup1\n      swap2\n      sub\n      swap1\n      log2\n        /* \"Farm.sol\":13334:13335  _ */\n      pop\n        /* \"Farm.sol\":12520:12521  1 */\n      0x01\n        /* \"Farm.sol\":13482:13489  _status */\n      0x00\n        /* \"Farm.sol\":13482:13504  _status = _NOT_ENTERED */\n      dup2\n      swap1\n      sstore\n      pop\n        /* \"Farm.sol\":26410:26789  function withdraw(uint256 amount)\r... */\n      pop\n      jump\t// out\n        /* \"Farm.sol\":24406:24770  function pow(uint n, uint e) public pure returns (uint) {\r... */\n    tag_54:\n        /* \"Farm.sol\":24456:24460  uint */\n      0x00\n        /* \"Farm.sol\":24484:24485  0 */\n      dup1\n        /* \"Farm.sol\":24479:24480  e */\n      dup3\n        /* \"Farm.sol\":24479:24485  e == 0 */\n      eq\n        /* \"Farm.sol\":24475:24763  if (e == 0) {\r... */\n      iszero\n      tag_137\n      jumpi\n        /* \"Farm.sol\":24509:24510  1 */\n      0x01\n        /* \"Farm.sol\":24502:24510  return 1 */\n      swap1\n      pop\n      jump(tag_136)\n        /* \"Farm.sol\":24475:24763  if (e == 0) {\r... */\n    tag_137:\n        /* \"Farm.sol\":24537:24538  1 */\n      0x01\n        /* \"Farm.sol\":24532:24533  e */\n      dup3\n        /* \"Farm.sol\":24532:24538  e == 1 */\n      eq\n        /* \"Farm.sol\":24528:24763  if (e == 1) {\r... */\n      iszero\n      tag_139\n      jumpi\n        /* \"Farm.sol\":24562:24563  n */\n      dup3\n        /* \"Farm.sol\":24555:24563  return n */\n      swap1\n      pop\n      jump(tag_136)\n        /* \"Farm.sol\":24528:24763  if (e == 1) {\r... */\n    tag_139:\n        /* \"Farm.sol\":24596:24602  uint p */\n      0x00\n        /* \"Farm.sol\":24605:24621  pow(n, e.div(2)) */\n      tag_141\n        /* \"Farm.sol\":24609:24610  n */\n      dup5\n        /* \"Farm.sol\":24612:24620  e.div(2) */\n      tag_142\n        /* \"Farm.sol\":24618:24619  2 */\n      0x02\n        /* \"Farm.sol\":24612:24613  e */\n      dup7\n        /* \"Farm.sol\":24612:24617  e.div */\n      tag_109\n      swap1\n        /* \"Farm.sol\":24612:24620  e.div(2) */\n      swap2\n      swap1\n      0xffffffff\n      and\n      jump\t// in\n    tag_142:\n        /* \"Farm.sol\":24605:24608  pow */\n      tag_54\n        /* \"Farm.sol\":24605:24621  pow(n, e.div(2)) */\n      jump\t// in\n    tag_141:\n        /* \"Farm.sol\":24596:24621  uint p = pow(n, e.div(2)) */\n      swap1\n      pop\n        /* \"Farm.sol\":24640:24648  p.mul(p) */\n      tag_143\n        /* \"Farm.sol\":24646:24647  p */\n      dup2\n        /* \"Farm.sol\":24640:24641  p */\n      dup3\n        /* \"Farm.sol\":24640:24645  p.mul */\n      tag_110\n      swap1\n        /* \"Farm.sol\":24640:24648  p.mul(p) */\n      swap2\n      swap1\n      0xffffffff\n      and\n      jump\t// in\n    tag_143:\n        /* \"Farm.sol\":24636:24648  p = p.mul(p) */\n      swap1\n      pop\n        /* \"Farm.sol\":24679:24680  1 */\n      0x01\n        /* \"Farm.sol\":24667:24675  e.mod(2) */\n      tag_144\n        /* \"Farm.sol\":24673:24674  2 */\n      0x02\n        /* \"Farm.sol\":24667:24668  e */\n      dup6\n        /* \"Farm.sol\":24667:24672  e.mod */\n      tag_111\n      swap1\n        /* \"Farm.sol\":24667:24675  e.mod(2) */\n      swap2\n      swap1\n      0xffffffff\n      and\n      jump\t// in\n    tag_144:\n        /* \"Farm.sol\":24667:24680  e.mod(2) == 1 */\n      eq\n        /* \"Farm.sol\":24663:24729  if (e.mod(2) == 1) {\r... */\n      iszero\n      tag_145\n      jumpi\n        /* \"Farm.sol\":24705:24713  p.mul(n) */\n      tag_146\n        /* \"Farm.sol\":24711:24712  n */\n      dup5\n        /* \"Farm.sol\":24705:24706  p */\n      dup3\n        /* \"Farm.sol\":24705:24710  p.mul */\n      tag_110\n      swap1\n        /* \"Farm.sol\":24705:24713  p.mul(n) */\n      swap2\n      swap1\n      0xffffffff\n      and\n      jump\t// in\n    tag_146:\n        /* \"Farm.sol\":24701:24713  p = p.mul(n) */\n      swap1\n      pop\n        /* \"Farm.sol\":24663:24729  if (e.mod(2) == 1) {\r... */\n    tag_145:\n        /* \"Farm.sol\":24750:24751  p */\n      dup1\n        /* \"Farm.sol\":24743:24751  return p */\n      swap2\n      pop\n      pop\n        /* \"Farm.sol\":24406:24770  function pow(uint n, uint e) public pure returns (uint) {\r... */\n    tag_136:\n      swap3\n      swap2\n      pop\n      pop\n      jump\t// out\n        /* \"Farm.sol\":23431:23461  uint256 public rewardsDuration */\n    tag_56:\n      sload(0x06)\n      dup2\n      jump\t// out\n        /* \"Farm.sol\":27273:28402  function notifyRewardAmount(uint256 reward)\r... */\n    tag_59:\n        /* \"Farm.sol\":22139:22151  _msgSender() */\n      tag_148\n        /* \"Farm.sol\":22139:22149  _msgSender */\n      tag_149\n        /* \"Farm.sol\":22139:22151  _msgSender() */\n      jump\t// in\n    tag_148:\n        /* \"Farm.sol\":22129:22151  _owner == _msgSender() */\n      0xffffffffffffffffffffffffffffffffffffffff\n      and\n        /* \"Farm.sol\":22129:22135  _owner */\n      0x01\n      dup1\n      swap1\n      sload\n      swap1\n      0x0100\n      exp\n      swap1\n      div\n      0xffffffffffffffffffffffffffffffffffffffff\n      and\n        /* \"Farm.sol\":22129:22151  _owner == _msgSender() */\n      0xffffffffffffffffffffffffffffffffffffffff\n      and\n      eq\n        /* \"Farm.sol\":22121:22188  require(_owner == _msgSender(), \"Ownable: caller is not the owner\") */\n      tag_150\n      jumpi\n      mload(0x40)\n      0x08c379a000000000000000000000000000000000000000000000000000000000\n      dup2\n      mstore\n      0x04\n      add\n      dup1\n      dup1\n      0x20\n      add\n      dup3\n      dup2\n      sub\n      dup3\n      mstore\n      0x20\n      dup2\n      mstore\n      0x20\n      add\n      dup1\n      0x4f776e61626c653a2063616c6c6572206973206e6f7420746865206f776e6572\n      dup2\n      mstore\n      pop\n      0x20\n      add\n      swap2\n      pop\n      pop\n      mload(0x40)\n      dup1\n      swap2\n      sub\n      swap1\n      revert\n    tag_150:\n        /* \"Farm.sol\":27372:27373  0 */\n      0x00\n        /* \"Farm.sol\":29630:29646  rewardPerToken() */\n      tag_152\n        /* \"Farm.sol\":29630:29644  rewardPerToken */\n      tag_97\n        /* \"Farm.sol\":29630:29646  rewardPerToken() */\n      jump\t// in\n    tag_152:\n        /* \"Farm.sol\":29607:29627  rewardPerTokenStored */\n      0x08\n        /* \"Farm.sol\":29607:29646  rewardPerTokenStored = rewardPerToken() */\n      dup2\n      swap1\n      sstore\n      pop\n        /* \"Farm.sol\":29674:29700  lastTimeRewardApplicable() */\n      tag_153\n        /* \"Farm.sol\":29674:29698  lastTimeRewardApplicable */\n      tag_77\n        /* \"Farm.sol\":29674:29700  lastTimeRewardApplicable() */\n      jump\t// in\n    tag_153:\n        /* \"Farm.sol\":29657:29671  lastUpdateTime */\n      0x07\n        /* \"Farm.sol\":29657:29700  lastUpdateTime = lastTimeRewardApplicable() */\n      dup2\n      swap1\n      sstore\n      pop\n        /* \"Farm.sol\":29734:29735  0 */\n      0x00\n        /* \"Farm.sol\":29715:29736  account != address(0) */\n      0xffffffffffffffffffffffffffffffffffffffff\n      and\n        /* \"Farm.sol\":29715:29722  account */\n      dup2\n        /* \"Farm.sol\":29715:29736  account != address(0) */\n      0xffffffffffffffffffffffffffffffffffffffff\n      and\n      eq\n        /* \"Farm.sol\":29711:29868  if (account != address(0)) {\r... */\n      tag_154\n      jumpi\n        /* \"Farm.sol\":29772:29787  earned(account) */\n      tag_155\n        /* \"Farm.sol\":29779:29786  account */\n      dup2\n        /* \"Farm.sol\":29772:29778  earned */\n      tag_41\n        /* \"Farm.sol\":29772:29787  earned(account) */\n      jump\t// in\n    tag_155:\n        /* \"Farm.sol\":29753:29760  rewards */\n      0x0c\n        /* \"Farm.sol\":29753:29769  rewards[account] */\n      0x00\n        /* \"Farm.sol\":29761:29768  account */\n      dup4\n        /* \"Farm.sol\":29753:29769  rewards[account] */\n      0xffffffffffffffffffffffffffffffffffffffff\n      and\n      0xffffffffffffffffffffffffffffffffffffffff\n      and\n      dup2\n      mstore\n      0x20\n      add\n      swap1\n      dup2\n      mstore\n      0x20\n      add\n      0x00\n      keccak256\n        /* \"Farm.sol\":29753:29787  rewards[account] = earned(account) */\n      dup2\n      swap1\n      sstore\n      pop\n        /* \"Farm.sol\":29836:29856  rewardPerTokenStored */\n      sload(0x08)\n        /* \"Farm.sol\":29802:29824  userRewardPerTokenPaid */\n      0x0b\n        /* \"Farm.sol\":29802:29833  userRewardPerTokenPaid[account] */\n      0x00\n        /* \"Farm.sol\":29825:29832  account */\n      dup4\n        /* \"Farm.sol\":29802:29833  userRewardPerTokenPaid[account] */\n      0xffffffffffffffffffffffffffffffffffffffff\n      and\n      0xffffffffffffffffffffffffffffffffffffffff\n      and\n      dup2\n      mstore\n      0x20\n      add\n      swap1\n      dup2\n      mstore\n      0x20\n      add\n      0x00\n      keccak256\n        /* \"Farm.sol\":29802:29856  userRewardPerTokenPaid[account] = rewardPerTokenStored */\n      dup2\n      swap1\n      sstore\n      pop\n        /* \"Farm.sol\":29711:29868  if (account != address(0)) {\r... */\n    tag_154:\n        /* \"Farm.sol\":27415:27427  periodFinish */\n      sload(0x04)\n        /* \"Farm.sol\":27396:27411  block.timestamp */\n      timestamp\n        /* \"Farm.sol\":27396:27427  block.timestamp >= periodFinish */\n      lt\n        /* \"Farm.sol\":27392:27710  if (block.timestamp >= periodFinish) {\r... */\n      tag_157\n      jumpi\n        /* \"Farm.sol\":27457:27484  reward.div(rewardsDuration) */\n      tag_158\n        /* \"Farm.sol\":27468:27483  rewardsDuration */\n      sload(0x06)\n        /* \"Farm.sol\":27457:27463  reward */\n      dup4\n        /* \"Farm.sol\":27457:27467  reward.div */\n      tag_109\n      swap1\n        /* \"Farm.sol\":27457:27484  reward.div(rewardsDuration) */\n      swap2\n      swap1\n      0xffffffff\n      and\n      jump\t// in\n    tag_158:\n        /* \"Farm.sol\":27444:27454  rewardRate */\n      0x05\n        /* \"Farm.sol\":27444:27484  rewardRate = reward.div(rewardsDuration) */\n      dup2\n      swap1\n      sstore\n      pop\n        /* \"Farm.sol\":27392:27710  if (block.timestamp >= periodFinish) {\r... */\n      jump(tag_159)\n    tag_157:\n        /* \"Farm.sol\":27517:27534  uint256 remaining */\n      0x00\n        /* \"Farm.sol\":27537:27570  periodFinish.sub(block.timestamp) */\n      tag_160\n        /* \"Farm.sol\":27554:27569  block.timestamp */\n      timestamp\n        /* \"Farm.sol\":27537:27549  periodFinish */\n      sload(0x04)\n        /* \"Farm.sol\":27537:27553  periodFinish.sub */\n      tag_118\n      swap1\n        /* \"Farm.sol\":27537:27570  periodFinish.sub(block.timestamp) */\n      swap2\n      swap1\n      0xffffffff\n      and\n      jump\t// in\n    tag_160:\n        /* \"Farm.sol\":27517:27570  uint256 remaining = periodFinish.sub(block.timestamp) */\n      swap1\n      pop\n        /* \"Farm.sol\":27585:27601  uint256 leftover */\n      0x00\n        /* \"Farm.sol\":27604:27629  remaining.mul(rewardRate) */\n      tag_161\n        /* \"Farm.sol\":27618:27628  rewardRate */\n      sload(0x05)\n        /* \"Farm.sol\":27604:27613  remaining */\n      dup4\n        /* \"Farm.sol\":27604:27617  remaining.mul */\n      tag_110\n      swap1\n        /* \"Farm.sol\":27604:27629  remaining.mul(rewardRate) */\n      swap2\n      swap1\n      0xffffffff\n      and\n      jump\t// in\n    tag_161:\n        /* \"Farm.sol\":27585:27629  uint256 leftover = remaining.mul(rewardRate) */\n      swap1\n      pop\n        /* \"Farm.sol\":27657:27698  reward.add(leftover).div(rewardsDuration) */\n      tag_162\n        /* \"Farm.sol\":27682:27697  rewardsDuration */\n      sload(0x06)\n        /* \"Farm.sol\":27657:27677  reward.add(leftover) */\n      tag_163\n        /* \"Farm.sol\":27668:27676  leftover */\n      dup4\n        /* \"Farm.sol\":27657:27663  reward */\n      dup8\n        /* \"Farm.sol\":27657:27667  reward.add */\n      tag_119\n      swap1\n        /* \"Farm.sol\":27657:27677  reward.add(leftover) */\n      swap2\n      swap1\n      0xffffffff\n      and\n      jump\t// in\n    tag_163:\n        /* \"Farm.sol\":27657:27681  reward.add(leftover).div */\n      tag_109\n      swap1\n        /* \"Farm.sol\":27657:27698  reward.add(leftover).div(rewardsDuration) */\n      swap2\n      swap1\n      0xffffffff\n      and\n      jump\t// in\n    tag_162:\n        /* \"Farm.sol\":27644:27654  rewardRate */\n      0x05\n        /* \"Farm.sol\":27644:27698  rewardRate = reward.add(leftover).div(rewardsDuration) */\n      dup2\n      swap1\n      sstore\n      pop\n        /* \"Farm.sol\":27392:27710  if (block.timestamp >= periodFinish) {\r... */\n      pop\n      pop\n    tag_159:\n        /* \"Farm.sol\":28070:28085  uint256 balance */\n      0x00\n        /* \"Farm.sol\":28088:28100  rewardsToken */\n      0x02\n      0x00\n      swap1\n      sload\n      swap1\n      0x0100\n      exp\n      swap1\n      div\n      0xffffffffffffffffffffffffffffffffffffffff\n      and\n        /* \"Farm.sol\":28088:28110  rewardsToken.balanceOf */\n      0xffffffffffffffffffffffffffffffffffffffff\n      and\n      0x70a08231\n        /* \"Farm.sol\":28119:28123  this */\n      address\n        /* \"Farm.sol\":28088:28125  rewardsToken.balanceOf(address(this)) */\n      mload(0x40)\n      dup3\n      0xffffffff\n      and\n      0xe0\n      shl\n      dup2\n      mstore\n      0x04\n      add\n      dup1\n      dup3\n      0xffffffffffffffffffffffffffffffffffffffff\n      and\n      0xffffffffffffffffffffffffffffffffffffffff\n      and\n      dup2\n      mstore\n      0x20\n      add\n      swap2\n      pop\n      pop\n      0x20\n      mload(0x40)\n      dup1\n      dup4\n      sub\n      dup2\n      dup7\n      dup1\n      extcodesize\n      iszero\n        /* \"--CODEGEN--\":5:14   */\n      dup1\n        /* \"--CODEGEN--\":2:4   */\n      iszero\n      tag_164\n      jumpi\n        /* \"--CODEGEN--\":27:28   */\n      0x00\n        /* \"--CODEGEN--\":24:25   */\n      dup1\n        /* \"--CODEGEN--\":17:29   */\n      revert\n        /* \"--CODEGEN--\":2:4   */\n    tag_164:\n        /* \"Farm.sol\":28088:28125  rewardsToken.balanceOf(address(this)) */\n      pop\n      gas\n      staticcall\n      iszero\n        /* \"--CODEGEN--\":8:17   */\n      dup1\n        /* \"--CODEGEN--\":5:7   */\n      iszero\n      tag_166\n      jumpi\n        /* \"--CODEGEN--\":45:61   */\n      returndatasize\n        /* \"--CODEGEN--\":42:43   */\n      0x00\n        /* \"--CODEGEN--\":39:40   */\n      dup1\n        /* \"--CODEGEN--\":24:62   */\n      returndatacopy\n        /* \"--CODEGEN--\":77:93   */\n      returndatasize\n        /* \"--CODEGEN--\":74:75   */\n      0x00\n        /* \"--CODEGEN--\":67:94   */\n      revert\n        /* \"--CODEGEN--\":5:7   */\n    tag_166:\n        /* \"Farm.sol\":28088:28125  rewardsToken.balanceOf(address(this)) */\n      pop\n      pop\n      pop\n      pop\n      mload(0x40)\n      returndatasize\n        /* \"--CODEGEN--\":15:17   */\n      0x20\n        /* \"--CODEGEN--\":10:13   */\n      dup2\n        /* \"--CODEGEN--\":7:18   */\n      lt\n        /* \"--CODEGEN--\":4:6   */\n      iszero\n      tag_167\n      jumpi\n        /* \"--CODEGEN--\":31:32   */\n      0x00\n        /* \"--CODEGEN--\":28:29   */\n      dup1\n        /* \"--CODEGEN--\":21:33   */\n      revert\n        /* \"--CODEGEN--\":4:6   */\n    tag_167:\n        /* \"Farm.sol\":28088:28125  rewardsToken.balanceOf(address(this)) */\n      dup2\n      add\n      swap1\n      dup1\n      dup1\n      mload\n      swap1\n      0x20\n      add\n      swap1\n      swap3\n      swap2\n      swap1\n      pop\n      pop\n      pop\n        /* \"Farm.sol\":28070:28125  uint256 balance = rewardsToken.balanceOf(address(this)) */\n      swap1\n      pop\n        /* \"Farm.sol\":28172:28200  balance.div(rewardsDuration) */\n      tag_168\n        /* \"Farm.sol\":28184:28199  rewardsDuration */\n      sload(0x06)\n        /* \"Farm.sol\":28172:28179  balance */\n      dup3\n        /* \"Farm.sol\":28172:28183  balance.div */\n      tag_109\n      swap1\n        /* \"Farm.sol\":28172:28200  balance.div(rewardsDuration) */\n      swap2\n      swap1\n      0xffffffff\n      and\n      jump\t// in\n    tag_168:\n        /* \"Farm.sol\":28158:28168  rewardRate */\n      sload(0x05)\n        /* \"Farm.sol\":28158:28200  rewardRate <= balance.div(rewardsDuration) */\n      gt\n      iszero\n        /* \"Farm.sol\":28136:28252  require(\r... */\n      tag_169\n      jumpi\n      mload(0x40)\n      0x08c379a000000000000000000000000000000000000000000000000000000000\n      dup2\n      mstore\n      0x04\n      add\n      dup1\n      dup1\n      0x20\n      add\n      dup3\n      dup2\n      sub\n      dup3\n      mstore\n      0x18\n      dup2\n      mstore\n      0x20\n      add\n      dup1\n      0x50726f76696465642072657761726420746f6f20686967680000000000000000\n      dup2\n      mstore\n      pop\n      0x20\n      add\n      swap2\n      pop\n      pop\n      mload(0x40)\n      dup1\n      swap2\n      sub\n      swap1\n      revert\n    tag_169:\n        /* \"Farm.sol\":28282:28297  block.timestamp */\n      timestamp\n        /* \"Farm.sol\":28265:28279  lastUpdateTime */\n      0x07\n        /* \"Farm.sol\":28265:28297  lastUpdateTime = block.timestamp */\n      dup2\n      swap1\n      sstore\n      pop\n        /* \"Farm.sol\":28323:28359  block.timestamp.add(rewardsDuration) */\n      tag_170\n        /* \"Farm.sol\":28343:28358  rewardsDuration */\n      sload(0x06)\n        /* \"Farm.sol\":28323:28338  block.timestamp */\n      timestamp\n        /* \"Farm.sol\":28323:28342  block.timestamp.add */\n      tag_119\n      swap1\n        /* \"Farm.sol\":28323:28359  block.timestamp.add(rewardsDuration) */\n      swap2\n      swap1\n      0xffffffff\n      and\n      jump\t// in\n    tag_170:\n        /* \"Farm.sol\":28308:28320  periodFinish */\n      0x04\n        /* \"Farm.sol\":28308:28359  periodFinish = block.timestamp.add(rewardsDuration) */\n      dup2\n      swap1\n      sstore\n      pop\n        /* \"Farm.sol\":28375:28394  RewardAdded(reward) */\n      0xde88a922e0d3b88b24e9623efeb464919c6bf9f66857a65e2bfcf2ce87a9433d\n        /* \"Farm.sol\":28387:28393  reward */\n      dup4\n        /* \"Farm.sol\":28375:28394  RewardAdded(reward) */\n      mload(0x40)\n      dup1\n      dup3\n      dup2\n      mstore\n      0x20\n      add\n      swap2\n      pop\n      pop\n      mload(0x40)\n      dup1\n      swap2\n      sub\n      swap1\n      log1\n        /* \"Farm.sol\":29878:29879  _ */\n      pop\n        /* \"Farm.sol\":22199:22200  _ */\n      pop\n        /* \"Farm.sol\":27273:28402  function notifyRewardAmount(uint256 reward)\r... */\n      pop\n      jump\t// out\n        /* \"Farm.sol\":26797:27104  function getReward() public nonReentrant updateReward(msg.sender) {\r... */\n    tag_61:\n        /* \"Farm.sol\":12564:12565  2 */\n      0x02\n        /* \"Farm.sol\":13170:13177  _status */\n      sload(0x00)\n        /* \"Farm.sol\":13170:13189  _status != _ENTERED */\n      eq\n      iszero\n        /* \"Farm.sol\":13162:13225  require(_status != _ENTERED, \"ReentrancyGuard: reentrant call\") */\n      tag_172\n      jumpi\n      mload(0x40)\n      0x08c379a000000000000000000000000000000000000000000000000000000000\n      dup2\n      mstore\n      0x04\n      add\n      dup1\n      dup1\n      0x20\n      add\n      dup3\n      dup2\n      sub\n      dup3\n      mstore\n      0x1f\n      dup2\n      mstore\n      0x20\n      add\n      dup1\n      0x5265656e7472616e637947756172643a207265656e7472616e742063616c6c00\n      dup2\n      mstore\n      pop\n      0x20\n      add\n      swap2\n      pop\n      pop\n      mload(0x40)\n      dup1\n      swap2\n      sub\n      swap1\n      revert\n    tag_172:\n        /* \"Farm.sol\":12564:12565  2 */\n      0x02\n        /* \"Farm.sol\":13303:13310  _status */\n      0x00\n        /* \"Farm.sol\":13303:13321  _status = _ENTERED */\n      dup2\n      swap1\n      sstore\n      pop\n        /* \"Farm.sol\":26851:26861  msg.sender */\n      caller\n        /* \"Farm.sol\":29630:29646  rewardPerToken() */\n      tag_174\n        /* \"Farm.sol\":29630:29644  rewardPerToken */\n      tag_97\n        /* \"Farm.sol\":29630:29646  rewardPerToken() */\n      jump\t// in\n    tag_174:\n        /* \"Farm.sol\":29607:29627  rewardPerTokenStored */\n      0x08\n        /* \"Farm.sol\":29607:29646  rewardPerTokenStored = rewardPerToken() */\n      dup2\n      swap1\n      sstore\n      pop\n        /* \"Farm.sol\":29674:29700  lastTimeRewardApplicable() */\n      tag_175\n        /* \"Farm.sol\":29674:29698  lastTimeRewardApplicable */\n      tag_77\n        /* \"Farm.sol\":29674:29700  lastTimeRewardApplicable() */\n      jump\t// in\n    tag_175:\n        /* \"Farm.sol\":29657:29671  lastUpdateTime */\n      0x07\n        /* \"Farm.sol\":29657:29700  lastUpdateTime = lastTimeRewardApplicable() */\n      dup2\n      swap1\n      sstore\n      pop\n        /* \"Farm.sol\":29734:29735  0 */\n      0x00\n        /* \"Farm.sol\":29715:29736  account != address(0) */\n      0xffffffffffffffffffffffffffffffffffffffff\n      and\n        /* \"Farm.sol\":29715:29722  account */\n      dup2\n        /* \"Farm.sol\":29715:29736  account != address(0) */\n      0xffffffffffffffffffffffffffffffffffffffff\n      and\n      eq\n        /* \"Farm.sol\":29711:29868  if (account != address(0)) {\r... */\n      tag_176\n      jumpi\n        /* \"Farm.sol\":29772:29787  earned(account) */\n      tag_177\n        /* \"Farm.sol\":29779:29786  account */\n      dup2\n        /* \"Farm.sol\":29772:29778  earned */\n      tag_41\n        /* \"Farm.sol\":29772:29787  earned(account) */\n      jump\t// in\n    tag_177:\n        /* \"Farm.sol\":29753:29760  rewards */\n      0x0c\n        /* \"Farm.sol\":29753:29769  rewards[account] */\n      0x00\n        /* \"Farm.sol\":29761:29768  account */\n      dup4\n        /* \"Farm.sol\":29753:29769  rewards[account] */\n      0xffffffffffffffffffffffffffffffffffffffff\n      and\n      0xffffffffffffffffffffffffffffffffffffffff\n      and\n      dup2\n      mstore\n      0x20\n      add\n      swap1\n      dup2\n      mstore\n      0x20\n      add\n      0x00\n      keccak256\n        /* \"Farm.sol\":29753:29787  rewards[account] = earned(account) */\n      dup2\n      swap1\n      sstore\n      pop\n        /* \"Farm.sol\":29836:29856  rewardPerTokenStored */\n      sload(0x08)\n        /* \"Farm.sol\":29802:29824  userRewardPerTokenPaid */\n      0x0b\n        /* \"Farm.sol\":29802:29833  userRewardPerTokenPaid[account] */\n      0x00\n        /* \"Farm.sol\":29825:29832  account */\n      dup4\n        /* \"Farm.sol\":29802:29833  userRewardPerTokenPaid[account] */\n      0xffffffffffffffffffffffffffffffffffffffff\n      and\n      0xffffffffffffffffffffffffffffffffffffffff\n      and\n      dup2\n      mstore\n      0x20\n      add\n      swap1\n      dup2\n      mstore\n      0x20\n      add\n      0x00\n      keccak256\n        /* \"Farm.sol\":29802:29856  userRewardPerTokenPaid[account] = rewardPerTokenStored */\n      dup2\n      swap1\n      sstore\n      pop\n        /* \"Farm.sol\":29711:29868  if (account != address(0)) {\r... */\n    tag_176:\n        /* \"Farm.sol\":26874:26888  uint256 reward */\n      0x00\n        /* \"Farm.sol\":26891:26898  rewards */\n      0x0c\n        /* \"Farm.sol\":26891:26910  rewards[msg.sender] */\n      0x00\n        /* \"Farm.sol\":26899:26909  msg.sender */\n      caller\n        /* \"Farm.sol\":26891:26910  rewards[msg.sender] */\n      0xffffffffffffffffffffffffffffffffffffffff\n      and\n      0xffffffffffffffffffffffffffffffffffffffff\n      and\n      dup2\n      mstore\n      0x20\n      add\n      swap1\n      dup2\n      mstore\n      0x20\n      add\n      0x00\n      keccak256\n      sload\n        /* \"Farm.sol\":26874:26910  uint256 reward = rewards[msg.sender] */\n      swap1\n      pop\n        /* \"Farm.sol\":26934:26935  0 */\n      0x00\n        /* \"Farm.sol\":26925:26931  reward */\n      dup2\n        /* \"Farm.sol\":26925:26935  reward > 0 */\n      gt\n        /* \"Farm.sol\":26921:27097  if (reward > 0) {\r... */\n      iszero\n      tag_179\n      jumpi\n        /* \"Farm.sol\":26974:26975  0 */\n      0x00\n        /* \"Farm.sol\":26952:26959  rewards */\n      0x0c\n        /* \"Farm.sol\":26952:26971  rewards[msg.sender] */\n      0x00\n        /* \"Farm.sol\":26960:26970  msg.sender */\n      caller\n        /* \"Farm.sol\":26952:26971  rewards[msg.sender] */\n      0xffffffffffffffffffffffffffffffffffffffff\n      and\n      0xffffffffffffffffffffffffffffffffffffffff\n      and\n      dup2\n      mstore\n      0x20\n      add\n      swap1\n      dup2\n      mstore\n      0x20\n      add\n      0x00\n      keccak256\n        /* \"Farm.sol\":26952:26975  rewards[msg.sender] = 0 */\n      dup2\n      swap1\n      sstore\n      pop\n        /* \"Farm.sol\":26990:27035  rewardsToken.safeTransfer(msg.sender, reward) */\n      tag_180\n        /* \"Farm.sol\":27016:27026  msg.sender */\n      caller\n        /* \"Farm.sol\":27028:27034  reward */\n      dup3\n        /* \"Farm.sol\":26990:27002  rewardsToken */\n      0x02\n      0x00\n      swap1\n      sload\n      swap1\n      0x0100\n      exp\n      swap1\n      div\n      0xffffffffffffffffffffffffffffffffffffffff\n      and\n        /* \"Farm.sol\":26990:27015  rewardsToken.safeTransfer */\n      0xffffffffffffffffffffffffffffffffffffffff\n      and\n      tag_135\n      swap1\n        /* \"Farm.sol\":26990:27035  rewardsToken.safeTransfer(msg.sender, reward) */\n      swap3\n      swap2\n      swap1\n      0xffffffff\n      and\n      jump\t// in\n    tag_180:\n        /* \"Farm.sol\":27066:27076  msg.sender */\n      caller\n        /* \"Farm.sol\":27055:27085  RewardPaid(msg.sender, reward) */\n      0xffffffffffffffffffffffffffffffffffffffff\n      and\n      0xe2403640ba68fed3a2f88b7557551d1993f84b99bb10ff833f0cf8db0c5e0486\n        /* \"Farm.sol\":27078:27084  reward */\n      dup3\n        /* \"Farm.sol\":27055:27085  RewardPaid(msg.sender, reward) */\n      mload(0x40)\n      dup1\n      dup3\n      dup2\n      mstore\n      0x20\n      add\n      swap2\n      pop\n      pop\n      mload(0x40)\n      dup1\n      swap2\n      sub\n      swap1\n      log2\n        /* \"Farm.sol\":26921:27097  if (reward > 0) {\r... */\n    tag_179:\n        /* \"Farm.sol\":29878:29879  _ */\n      pop\n        /* \"Farm.sol\":13334:13335  _ */\n      pop\n        /* \"Farm.sol\":12520:12521  1 */\n      0x01\n        /* \"Farm.sol\":13482:13489  _status */\n      0x00\n        /* \"Farm.sol\":13482:13504  _status = _NOT_ENTERED */\n      dup2\n      swap1\n      sstore\n      pop\n        /* \"Farm.sol\":26797:27104  function getReward() public nonReentrant updateReward(msg.sender) {\r... */\n      jump\t// out\n        /* \"Farm.sol\":10504:10582  function paused() public view returns (bool) {\r... */\n    tag_63:\n        /* \"Farm.sol\":10543:10547  bool */\n      0x00\n        /* \"Farm.sol\":10567:10574  _paused */\n      0x01\n      0x00\n      swap1\n      sload\n      swap1\n      0x0100\n      exp\n      swap1\n      div\n      0xff\n      and\n        /* \"Farm.sol\":10560:10574  return _paused */\n      swap1\n      pop\n        /* \"Farm.sol\":10504:10582  function paused() public view returns (bool) {\r... */\n      swap1\n      jump\t// out\n        /* \"Farm.sol\":24778:24890  function balanceOf(address account) external view returns (uint256) {\r... */\n    tag_66:\n        /* \"Farm.sol\":24837:24844  uint256 */\n      0x00\n        /* \"Farm.sol\":24864:24873  _balances */\n      0x0e\n        /* \"Farm.sol\":24864:24882  _balances[account] */\n      0x00\n        /* \"Farm.sol\":24874:24881  account */\n      dup4\n        /* \"Farm.sol\":24864:24882  _balances[account] */\n      0xffffffffffffffffffffffffffffffffffffffff\n      and\n      0xffffffffffffffffffffffffffffffffffffffff\n      and\n      dup2\n      mstore\n      0x20\n      add\n      swap1\n      dup2\n      mstore\n      0x20\n      add\n      0x00\n      keccak256\n      sload\n        /* \"Farm.sol\":24857:24882  return _balances[account] */\n      swap1\n      pop\n        /* \"Farm.sol\":24778:24890  function balanceOf(address account) external view returns (uint256) {\r... */\n      swap2\n      swap1\n      pop\n      jump\t// out\n        /* \"Farm.sol\":22559:22707  function renounceOwnership() public virtual onlyOwner {\r... */\n    tag_68:\n        /* \"Farm.sol\":22139:22151  _msgSender() */\n      tag_184\n        /* \"Farm.sol\":22139:22149  _msgSender */\n      tag_149\n        /* \"Farm.sol\":22139:22151  _msgSender() */\n      jump\t// in\n    tag_184:\n        /* \"Farm.sol\":22129:22151  _owner == _msgSender() */\n      0xffffffffffffffffffffffffffffffffffffffff\n      and\n        /* \"Farm.sol\":22129:22135  _owner */\n      0x01\n      dup1\n      swap1\n      sload\n      swap1\n      0x0100\n      exp\n      swap1\n      div\n      0xffffffffffffffffffffffffffffffffffffffff\n      and\n        /* \"Farm.sol\":22129:22151  _owner == _msgSender() */\n      0xffffffffffffffffffffffffffffffffffffffff\n      and\n      eq\n        /* \"Farm.sol\":22121:22188  require(_owner == _msgSender(), \"Ownable: caller is not the owner\") */\n      tag_185\n      jumpi\n      mload(0x40)\n      0x08c379a000000000000000000000000000000000000000000000000000000000\n      dup2\n      mstore\n      0x04\n      add\n      dup1\n      dup1\n      0x20\n      add\n      dup3\n      dup2\n      sub\n      dup3\n      mstore\n      0x20\n      dup2\n      mstore\n      0x20\n      add\n      dup1\n      0x4f776e61626c653a2063616c6c6572206973206e6f7420746865206f776e6572\n      dup2\n      mstore\n      pop\n      0x20\n      add\n      swap2\n      pop\n      pop\n      mload(0x40)\n      dup1\n      swap2\n      sub\n      swap1\n      revert\n    tag_185:\n        /* \"Farm.sol\":22666:22667  0 */\n      0x00\n        /* \"Farm.sol\":22629:22669  OwnershipTransferred(_owner, address(0)) */\n      0xffffffffffffffffffffffffffffffffffffffff\n      and\n        /* \"Farm.sol\":22650:22656  _owner */\n      0x01\n      dup1\n      swap1\n      sload\n      swap1\n      0x0100\n      exp\n      swap1\n      div\n      0xffffffffffffffffffffffffffffffffffffffff\n      and\n        /* \"Farm.sol\":22629:22669  OwnershipTransferred(_owner, address(0)) */\n      0xffffffffffffffffffffffffffffffffffffffff\n      and\n      0x8be0079c531659141344cd1fd0a4f28419497f9722a3daafe3b4186f6b6457e0\n      mload(0x40)\n      mload(0x40)\n      dup1\n      swap2\n      sub\n      swap1\n      log3\n        /* \"Farm.sol\":22697:22698  0 */\n      0x00\n        /* \"Farm.sol\":22680:22686  _owner */\n      0x01\n      dup1\n        /* \"Farm.sol\":22680:22699  _owner = address(0) */\n      0x0100\n      exp\n      dup2\n      sload\n      dup2\n      0xffffffffffffffffffffffffffffffffffffffff\n      mul\n      not\n      and\n      swap1\n      dup4\n      0xffffffffffffffffffffffffffffffffffffffff\n      and\n      mul\n      or\n      swap1\n      sstore\n      pop\n        /* \"Farm.sol\":22559:22707  function renounceOwnership() public virtual onlyOwner {\r... */\n      jump\t// out\n        /* \"Farm.sol\":23324:23350  IERC20 public stakingToken */\n    tag_70:\n      0x03\n      0x00\n      swap1\n      sload\n      swap1\n      0x0100\n      exp\n      swap1\n      div\n      0xffffffffffffffffffffffffffffffffffffffff\n      and\n      dup2\n      jump\t// out\n        /* \"Farm.sol\":25828:25932  function min(uint256 a, uint256 b) public pure returns (uint256) {\r... */\n    tag_73:\n        /* \"Farm.sol\":25884:25891  uint256 */\n      0x00\n        /* \"Farm.sol\":25915:25916  b */\n      dup2\n        /* \"Farm.sol\":25911:25912  a */\n      dup4\n        /* \"Farm.sol\":25911:25916  a < b */\n      lt\n        /* \"Farm.sol\":25911:25924  a < b ? a : b */\n      tag_188\n      jumpi\n        /* \"Farm.sol\":25923:25924  b */\n      dup2\n        /* \"Farm.sol\":25911:25924  a < b ? a : b */\n      jump(tag_189)\n    tag_188:\n        /* \"Farm.sol\":25919:25920  a */\n      dup3\n        /* \"Farm.sol\":25911:25924  a < b ? a : b */\n    tag_189:\n        /* \"Farm.sol\":25904:25924  return a < b ? a : b */\n      swap1\n      pop\n        /* \"Farm.sol\":25828:25932  function min(uint256 a, uint256 b) public pure returns (uint256) {\r... */\n      swap3\n      swap2\n      pop\n      pop\n      jump\t// out\n        /* \"Farm.sol\":23395:23424  uint256 public rewardRate = 0 */\n    tag_75:\n      sload(0x05)\n      dup2\n      jump\t// out\n        /* \"Farm.sol\":24898:25024  function lastTimeRewardApplicable() public view returns (uint256) {\r... */\n    tag_77:\n        /* \"Farm.sol\":24955:24962  uint256 */\n      0x00\n        /* \"Farm.sol\":24982:25016  min(block.timestamp, periodFinish) */\n      tag_191\n        /* \"Farm.sol\":24986:25001  block.timestamp */\n      timestamp\n        /* \"Farm.sol\":25003:25015  periodFinish */\n      sload(0x04)\n        /* \"Farm.sol\":24982:24985  min */\n      tag_73\n        /* \"Farm.sol\":24982:25016  min(block.timestamp, periodFinish) */\n      jump\t// in\n    tag_191:\n        /* \"Farm.sol\":24975:25016  return min(block.timestamp, periodFinish) */\n      swap1\n      pop\n        /* \"Farm.sol\":24898:25024  function lastTimeRewardApplicable() public view returns (uint256) {\r... */\n      swap1\n      jump\t// out\n        /* \"Farm.sol\":28517:29136  function recoverERC20(address tokenAddress, uint256 tokenAmount)\r... */\n    tag_80:\n        /* \"Farm.sol\":22139:22151  _msgSender() */\n      tag_193\n        /* \"Farm.sol\":22139:22149  _msgSender */\n      tag_149\n        /* \"Farm.sol\":22139:22151  _msgSender() */\n      jump\t// in\n    tag_193:\n        /* \"Farm.sol\":22129:22151  _owner == _msgSender() */\n      0xffffffffffffffffffffffffffffffffffffffff\n      and\n        /* \"Farm.sol\":22129:22135  _owner */\n      0x01\n      dup1\n      swap1\n      sload\n      swap1\n      0x0100\n      exp\n      swap1\n      div\n      0xffffffffffffffffffffffffffffffffffffffff\n      and\n        /* \"Farm.sol\":22129:22151  _owner == _msgSender() */\n      0xffffffffffffffffffffffffffffffffffffffff\n      and\n      eq\n        /* \"Farm.sol\":22121:22188  require(_owner == _msgSender(), \"Ownable: caller is not the owner\") */\n      tag_194\n      jumpi\n      mload(0x40)\n      0x08c379a000000000000000000000000000000000000000000000000000000000\n      dup2\n      mstore\n      0x04\n      add\n      dup1\n      dup1\n      0x20\n      add\n      dup3\n      dup2\n      sub\n      dup3\n      mstore\n      0x20\n      dup2\n      mstore\n      0x20\n      add\n      dup1\n      0x4f776e61626c653a2063616c6c6572206973206e6f7420746865206f776e6572\n      dup2\n      mstore\n      pop\n      0x20\n      add\n      swap2\n      pop\n      pop\n      mload(0x40)\n      dup1\n      swap2\n      sub\n      swap1\n      revert\n    tag_194:\n        /* \"Farm.sol\":28739:28751  rewardsToken */\n      0x02\n      0x00\n      swap1\n      sload\n      swap1\n      0x0100\n      exp\n      swap1\n      div\n      0xffffffffffffffffffffffffffffffffffffffff\n      and\n        /* \"Farm.sol\":28715:28752  tokenAddress != address(rewardsToken) */\n      0xffffffffffffffffffffffffffffffffffffffff\n      and\n        /* \"Farm.sol\":28715:28727  tokenAddress */\n      dup3\n        /* \"Farm.sol\":28715:28752  tokenAddress != address(rewardsToken) */\n      0xffffffffffffffffffffffffffffffffffffffff\n      and\n      eq\n      iszero\n        /* \"Farm.sol\":28693:28814  require(\r... */\n      tag_196\n      jumpi\n      mload(0x40)\n      0x08c379a000000000000000000000000000000000000000000000000000000000\n      dup2\n      mstore\n      0x04\n      add\n      dup1\n      dup1\n      0x20\n      add\n      dup3\n      dup2\n      sub\n      dup3\n      mstore\n      0x22\n      dup2\n      mstore\n      0x20\n      add\n      dup1\n      data_33e46392ca158ea5df202f3e8f1c6352c18f8d558a7b2ee13297c86b0124b24b\n      0x22\n      swap2\n      codecopy\n      0x40\n      add\n      swap2\n      pop\n      pop\n      mload(0x40)\n      dup1\n      swap2\n      sub\n      swap1\n      revert\n    tag_196:\n        /* \"Farm.sol\":28845:28846  0 */\n      0x00\n        /* \"Farm.sol\":28829:28841  _totalSupply */\n      sload(0x0d)\n        /* \"Farm.sol\":28829:28846  _totalSupply != 0 */\n      eq\n        /* \"Farm.sol\":28825:29008  if (_totalSupply != 0) {\r... */\n      tag_197\n      jumpi\n        /* \"Farm.sol\":28913:28925  stakingToken */\n      0x03\n      0x00\n      swap1\n      sload\n      swap1\n      0x0100\n      exp\n      swap1\n      div\n      0xffffffffffffffffffffffffffffffffffffffff\n      and\n        /* \"Farm.sol\":28889:28926  tokenAddress != address(stakingToken) */\n      0xffffffffffffffffffffffffffffffffffffffff\n      and\n        /* \"Farm.sol\":28889:28901  tokenAddress */\n      dup3\n        /* \"Farm.sol\":28889:28926  tokenAddress != address(stakingToken) */\n      0xffffffffffffffffffffffffffffffffffffffff\n      and\n      eq\n      iszero\n        /* \"Farm.sol\":28863:28996  require(\r... */\n      tag_198\n      jumpi\n      mload(0x40)\n      0x08c379a000000000000000000000000000000000000000000000000000000000\n      dup2\n      mstore\n      0x04\n      add\n      dup1\n      dup1\n      0x20\n      add\n      dup3\n      dup2\n      sub\n      dup3\n      mstore\n      0x22\n      dup2\n      mstore\n      0x20\n      add\n      dup1\n      data_af0c9f96e3436322e9da29c326b11e6accd66534db56878361aecdeda5c8936f\n      0x22\n      swap2\n      codecopy\n      0x40\n      add\n      swap2\n      pop\n      pop\n      mload(0x40)\n      dup1\n      swap2\n      sub\n      swap1\n      revert\n    tag_198:\n        /* \"Farm.sol\":28825:29008  if (_totalSupply != 0) {\r... */\n    tag_197:\n        /* \"Farm.sol\":29018:29076  IERC20(tokenAddress).safeTransfer(msg.sender, tokenAmount) */\n      tag_199\n        /* \"Farm.sol\":29052:29062  msg.sender */\n      caller\n        /* \"Farm.sol\":29064:29075  tokenAmount */\n      dup3\n        /* \"Farm.sol\":29025:29037  tokenAddress */\n      dup5\n        /* \"Farm.sol\":29018:29051  IERC20(tokenAddress).safeTransfer */\n      0xffffffffffffffffffffffffffffffffffffffff\n      and\n      tag_135\n      swap1\n        /* \"Farm.sol\":29018:29076  IERC20(tokenAddress).safeTransfer(msg.sender, tokenAmount) */\n      swap3\n      swap2\n      swap1\n      0xffffffff\n      and\n      jump\t// in\n    tag_199:\n        /* \"Farm.sol\":29092:29128  Recovered(tokenAddress, tokenAmount) */\n      0x8c1256b8896378cd5044f80c202f9772b9d77dc85c8a6eb51967210b09bfaa28\n        /* \"Farm.sol\":29102:29114  tokenAddress */\n      dup3\n        /* \"Farm.sol\":29116:29127  tokenAmount */\n      dup3\n        /* \"Farm.sol\":29092:29128  Recovered(tokenAddress, tokenAmount) */\n      mload(0x40)\n      dup1\n      dup4\n      0xffffffffffffffffffffffffffffffffffffffff\n      and\n      0xffffffffffffffffffffffffffffffffffffffff\n      and\n      dup2\n      mstore\n      0x20\n      add\n      dup3\n      dup2\n      mstore\n      0x20\n      add\n      swap3\n      pop\n      pop\n      pop\n      mload(0x40)\n      dup1\n      swap2\n      sub\n      swap1\n      log1\n        /* \"Farm.sol\":28517:29136  function recoverERC20(address tokenAddress, uint256 tokenAmount)\r... */\n      pop\n      pop\n      jump\t// out\n        /* \"Farm.sol\":23625:23682  mapping(address => uint256) public userRewardPerTokenPaid */\n    tag_83:\n      mstore(0x20, 0x0b)\n      dup1\n      0x00\n      mstore\n      keccak256(0x00, 0x40)\n      0x00\n      swap2\n      pop\n      swap1\n      pop\n      sload\n      dup2\n      jump\t// out\n        /* \"Farm.sol\":21917:21996  function owner() public view returns (address) {\r... */\n    tag_85:\n        /* \"Farm.sol\":21955:21962  address */\n      0x00\n        /* \"Farm.sol\":21982:21988  _owner */\n      0x01\n      dup1\n      swap1\n      sload\n      swap1\n      0x0100\n      exp\n      swap1\n      div\n      0xffffffffffffffffffffffffffffffffffffffff\n      and\n        /* \"Farm.sol\":21975:21988  return _owner */\n      swap1\n      pop\n        /* \"Farm.sol\":21917:21996  function owner() public view returns (address) {\r... */\n      swap1\n      jump\t// out\n        /* \"Farm.sol\":25994:26402  function stake(uint256 amount)\r... */\n    tag_88:\n        /* \"Farm.sol\":12564:12565  2 */\n      0x02\n        /* \"Farm.sol\":13170:13177  _status */\n      sload(0x00)\n        /* \"Farm.sol\":13170:13189  _status != _ENTERED */\n      eq\n      iszero\n        /* \"Farm.sol\":13162:13225  require(_status != _ENTERED, \"ReentrancyGuard: reentrant call\") */\n      tag_202\n      jumpi\n      mload(0x40)\n      0x08c379a000000000000000000000000000000000000000000000000000000000\n      dup2\n      mstore\n      0x04\n      add\n      dup1\n      dup1\n      0x20\n      add\n      dup3\n      dup2\n      sub\n      dup3\n      mstore\n      0x1f\n      dup2\n      mstore\n      0x20\n      add\n      dup1\n      0x5265656e7472616e637947756172643a207265656e7472616e742063616c6c00\n      dup2\n      mstore\n      pop\n      0x20\n      add\n      swap2\n      pop\n      pop\n      mload(0x40)\n      dup1\n      swap2\n      sub\n      swap1\n      revert\n    tag_202:\n        /* \"Farm.sol\":12564:12565  2 */\n      0x02\n        /* \"Farm.sol\":13303:13310  _status */\n      0x00\n        /* \"Farm.sol\":13303:13321  _status = _ENTERED */\n      dup2\n      swap1\n      sstore\n      pop\n        /* \"Farm.sol\":10822:10829  _paused */\n      0x01\n      0x00\n      swap1\n      sload\n      swap1\n      0x0100\n      exp\n      swap1\n      div\n      0xff\n      and\n        /* \"Farm.sol\":10821:10829  !_paused */\n      iszero\n        /* \"Farm.sol\":10813:10850  require(!_paused, \"Pausable: paused\") */\n      tag_204\n      jumpi\n      mload(0x40)\n      0x08c379a000000000000000000000000000000000000000000000000000000000\n      dup2\n      mstore\n      0x04\n      add\n      dup1\n      dup1\n      0x20\n      add\n      dup3\n      dup2\n      sub\n      dup3\n      mstore\n      0x10\n      dup2\n      mstore\n      0x20\n      add\n      dup1\n      0x5061757361626c653a2070617573656400000000000000000000000000000000\n      dup2\n      mstore\n      pop\n      0x20\n      add\n      swap2\n      pop\n      pop\n      mload(0x40)\n      dup1\n      swap2\n      sub\n      swap1\n      revert\n    tag_204:\n        /* \"Farm.sol\":26094:26104  msg.sender */\n      caller\n        /* \"Farm.sol\":29630:29646  rewardPerToken() */\n      tag_206\n        /* \"Farm.sol\":29630:29644  rewardPerToken */\n      tag_97\n        /* \"Farm.sol\":29630:29646  rewardPerToken() */\n      jump\t// in\n    tag_206:\n        /* \"Farm.sol\":29607:29627  rewardPerTokenStored */\n      0x08\n        /* \"Farm.sol\":29607:29646  rewardPerTokenStored = rewardPerToken() */\n      dup2\n      swap1\n      sstore\n      pop\n        /* \"Farm.sol\":29674:29700  lastTimeRewardApplicable() */\n      tag_207\n        /* \"Farm.sol\":29674:29698  lastTimeRewardApplicable */\n      tag_77\n        /* \"Farm.sol\":29674:29700  lastTimeRewardApplicable() */\n      jump\t// in\n    tag_207:\n        /* \"Farm.sol\":29657:29671  lastUpdateTime */\n      0x07\n        /* \"Farm.sol\":29657:29700  lastUpdateTime = lastTimeRewardApplicable() */\n      dup2\n      swap1\n      sstore\n      pop\n        /* \"Farm.sol\":29734:29735  0 */\n      0x00\n        /* \"Farm.sol\":29715:29736  account != address(0) */\n      0xffffffffffffffffffffffffffffffffffffffff\n      and\n        /* \"Farm.sol\":29715:29722  account */\n      dup2\n        /* \"Farm.sol\":29715:29736  account != address(0) */\n      0xffffffffffffffffffffffffffffffffffffffff\n      and\n      eq\n        /* \"Farm.sol\":29711:29868  if (account != address(0)) {\r... */\n      tag_208\n      jumpi\n        /* \"Farm.sol\":29772:29787  earned(account) */\n      tag_209\n        /* \"Farm.sol\":29779:29786  account */\n      dup2\n        /* \"Farm.sol\":29772:29778  earned */\n      tag_41\n        /* \"Farm.sol\":29772:29787  earned(account) */\n      jump\t// in\n    tag_209:\n        /* \"Farm.sol\":29753:29760  rewards */\n      0x0c\n        /* \"Farm.sol\":29753:29769  rewards[account] */\n      0x00\n        /* \"Farm.sol\":29761:29768  account */\n      dup4\n        /* \"Farm.sol\":29753:29769  rewards[account] */\n      0xffffffffffffffffffffffffffffffffffffffff\n      and\n      0xffffffffffffffffffffffffffffffffffffffff\n      and\n      dup2\n      mstore\n      0x20\n      add\n      swap1\n      dup2\n      mstore\n      0x20\n      add\n      0x00\n      keccak256\n        /* \"Farm.sol\":29753:29787  rewards[account] = earned(account) */\n      dup2\n      swap1\n      sstore\n      pop\n        /* \"Farm.sol\":29836:29856  rewardPerTokenStored */\n      sload(0x08)\n        /* \"Farm.sol\":29802:29824  userRewardPerTokenPaid */\n      0x0b\n        /* \"Farm.sol\":29802:29833  userRewardPerTokenPaid[account] */\n      0x00\n        /* \"Farm.sol\":29825:29832  account */\n      dup4\n        /* \"Farm.sol\":29802:29833  userRewardPerTokenPaid[account] */\n      0xffffffffffffffffffffffffffffffffffffffff\n      and\n      0xffffffffffffffffffffffffffffffffffffffff\n      and\n      dup2\n      mstore\n      0x20\n      add\n      swap1\n      dup2\n      mstore\n      0x20\n      add\n      0x00\n      keccak256\n        /* \"Farm.sol\":29802:29856  userRewardPerTokenPaid[account] = rewardPerTokenStored */\n      dup2\n      swap1\n      sstore\n      pop\n        /* \"Farm.sol\":29711:29868  if (account != address(0)) {\r... */\n    tag_208:\n        /* \"Farm.sol\":26139:26140  0 */\n      0x00\n        /* \"Farm.sol\":26130:26136  amount */\n      dup3\n        /* \"Farm.sol\":26130:26140  amount > 0 */\n      gt\n        /* \"Farm.sol\":26122:26159  require(amount > 0, \"Cannot stake 0\") */\n      tag_211\n      jumpi\n      mload(0x40)\n      0x08c379a000000000000000000000000000000000000000000000000000000000\n      dup2\n      mstore\n      0x04\n      add\n      dup1\n      dup1\n      0x20\n      add\n      dup3\n      dup2\n      sub\n      dup3\n      mstore\n      0x0e\n      dup2\n      mstore\n      0x20\n      add\n      dup1\n      0x43616e6e6f74207374616b652030000000000000000000000000000000000000\n      dup2\n      mstore\n      pop\n      0x20\n      add\n      swap2\n      pop\n      pop\n      mload(0x40)\n      dup1\n      swap2\n      sub\n      swap1\n      revert\n    tag_211:\n        /* \"Farm.sol\":26185:26209  _totalSupply.add(amount) */\n      tag_212\n        /* \"Farm.sol\":26202:26208  amount */\n      dup3\n        /* \"Farm.sol\":26185:26197  _totalSupply */\n      sload(0x0d)\n        /* \"Farm.sol\":26185:26201  _totalSupply.add */\n      tag_119\n      swap1\n        /* \"Farm.sol\":26185:26209  _totalSupply.add(amount) */\n      swap2\n      swap1\n      0xffffffff\n      and\n      jump\t// in\n    tag_212:\n        /* \"Farm.sol\":26170:26182  _totalSupply */\n      0x0d\n        /* \"Farm.sol\":26170:26209  _totalSupply = _totalSupply.add(amount) */\n      dup2\n      swap1\n      sstore\n      pop\n        /* \"Farm.sol\":26244:26277  _balances[msg.sender].add(amount) */\n      tag_213\n        /* \"Farm.sol\":26270:26276  amount */\n      dup3\n        /* \"Farm.sol\":26244:26253  _balances */\n      0x0e\n        /* \"Farm.sol\":26244:26265  _balances[msg.sender] */\n      0x00\n        /* \"Farm.sol\":26254:26264  msg.sender */\n      caller\n        /* \"Farm.sol\":26244:26265  _balances[msg.sender] */\n      0xffffffffffffffffffffffffffffffffffffffff\n      and\n      0xffffffffffffffffffffffffffffffffffffffff\n      and\n      dup2\n      mstore\n      0x20\n      add\n      swap1\n      dup2\n      mstore\n      0x20\n      add\n      0x00\n      keccak256\n      sload\n        /* \"Farm.sol\":26244:26269  _balances[msg.sender].add */\n      tag_119\n      swap1\n        /* \"Farm.sol\":26244:26277  _balances[msg.sender].add(amount) */\n      swap2\n      swap1\n      0xffffffff\n      and\n      jump\t// in\n    tag_213:\n        /* \"Farm.sol\":26220:26229  _balances */\n      0x0e\n        /* \"Farm.sol\":26220:26241  _balances[msg.sender] */\n      0x00\n        /* \"Farm.sol\":26230:26240  msg.sender */\n      caller\n        /* \"Farm.sol\":26220:26241  _balances[msg.sender] */\n      0xffffffffffffffffffffffffffffffffffffffff\n      and\n      0xffffffffffffffffffffffffffffffffffffffff\n      and\n      dup2\n      mstore\n      0x20\n      add\n      swap1\n      dup2\n      mstore\n      0x20\n      add\n      0x00\n      keccak256\n        /* \"Farm.sol\":26220:26277  _balances[msg.sender] = _balances[msg.sender].add(amount) */\n      dup2\n      swap1\n      sstore\n      pop\n        /* \"Farm.sol\":26288:26352  stakingToken.safeTransferFrom(msg.sender, address(this), amount) */\n      tag_214\n        /* \"Farm.sol\":26318:26328  msg.sender */\n      caller\n        /* \"Farm.sol\":26338:26342  this */\n      address\n        /* \"Farm.sol\":26345:26351  amount */\n      dup5\n        /* \"Farm.sol\":26288:26300  stakingToken */\n      0x03\n      0x00\n      swap1\n      sload\n      swap1\n      0x0100\n      exp\n      swap1\n      div\n      0xffffffffffffffffffffffffffffffffffffffff\n      and\n        /* \"Farm.sol\":26288:26317  stakingToken.safeTransferFrom */\n      0xffffffffffffffffffffffffffffffffffffffff\n      and\n      tag_215\n      swap1\n        /* \"Farm.sol\":26288:26352  stakingToken.safeTransferFrom(msg.sender, address(this), amount) */\n      swap4\n      swap3\n      swap2\n      swap1\n      0xffffffff\n      and\n      jump\t// in\n    tag_214:\n        /* \"Farm.sol\":26375:26385  msg.sender */\n      caller\n        /* \"Farm.sol\":26368:26394  Staked(msg.sender, amount) */\n      0xffffffffffffffffffffffffffffffffffffffff\n      and\n      0x9e71bc8eea02a63969f509818f2dafb9254532904319f9dbda79b67bd34a5f3d\n        /* \"Farm.sol\":26387:26393  amount */\n      dup4\n        /* \"Farm.sol\":26368:26394  Staked(msg.sender, amount) */\n      mload(0x40)\n      dup1\n      dup3\n      dup2\n      mstore\n      0x20\n      add\n      swap2\n      pop\n      pop\n      mload(0x40)\n      dup1\n      swap2\n      sub\n      swap1\n      log2\n        /* \"Farm.sol\":10861:10862  _ */\n      pop\n        /* \"Farm.sol\":12520:12521  1 */\n      0x01\n        /* \"Farm.sol\":13482:13489  _status */\n      0x00\n        /* \"Farm.sol\":13482:13504  _status = _NOT_ENTERED */\n      dup2\n      swap1\n      sstore\n      pop\n        /* \"Farm.sol\":25994:26402  function stake(uint256 amount)\r... */\n      pop\n      jump\t// out\n        /* \"Farm.sol\":23546:23585  uint256 public stakingTokensDecimalRate */\n    tag_90:\n      sload(0x09)\n      dup2\n      jump\t// out\n        /* \"Farm.sol\":23468:23497  uint256 public lastUpdateTime */\n    tag_92:\n      sload(0x07)\n      dup2\n      jump\t// out\n        /* \"Farm.sol\":29144:29504  function setRewardsDuration(uint256 _rewardsDuration) external onlyOwner {\r... */\n    tag_95:\n        /* \"Farm.sol\":22139:22151  _msgSender() */\n      tag_217\n        /* \"Farm.sol\":22139:22149  _msgSender */\n      tag_149\n        /* \"Farm.sol\":22139:22151  _msgSender() */\n      jump\t// in\n    tag_217:\n        /* \"Farm.sol\":22129:22151  _owner == _msgSender() */\n      0xffffffffffffffffffffffffffffffffffffffff\n      and\n        /* \"Farm.sol\":22129:22135  _owner */\n      0x01\n      dup1\n      swap1\n      sload\n      swap1\n      0x0100\n      exp\n      swap1\n      div\n      0xffffffffffffffffffffffffffffffffffffffff\n      and\n        /* \"Farm.sol\":22129:22151  _owner == _msgSender() */\n      0xffffffffffffffffffffffffffffffffffffffff\n      and\n      eq\n        /* \"Farm.sol\":22121:22188  require(_owner == _msgSender(), \"Ownable: caller is not the owner\") */\n      tag_218\n      jumpi\n      mload(0x40)\n      0x08c379a000000000000000000000000000000000000000000000000000000000\n      dup2\n      mstore\n      0x04\n      add\n      dup1\n      dup1\n      0x20\n      add\n      dup3\n      dup2\n      sub\n      dup3\n      mstore\n      0x20\n      dup2\n      mstore\n      0x20\n      add\n      dup1\n      0x4f776e61626c653a2063616c6c6572206973206e6f7420746865206f776e6572\n      dup2\n      mstore\n      pop\n      0x20\n      add\n      swap2\n      pop\n      pop\n      mload(0x40)\n      dup1\n      swap2\n      sub\n      swap1\n      revert\n    tag_218:\n        /* \"Farm.sol\":29268:29280  periodFinish */\n      sload(0x04)\n        /* \"Farm.sol\":29250:29265  block.timestamp */\n      timestamp\n        /* \"Farm.sol\":29250:29280  block.timestamp > periodFinish */\n      gt\n        /* \"Farm.sol\":29228:29396  require(\r... */\n      tag_220\n      jumpi\n      mload(0x40)\n      0x08c379a000000000000000000000000000000000000000000000000000000000\n      dup2\n      mstore\n      0x04\n      add\n      dup1\n      dup1\n      0x20\n      add\n      dup3\n      dup2\n      sub\n      dup3\n      mstore\n      0x58\n      dup2\n      mstore\n      0x20\n      add\n      dup1\n      data_07f2725172f5941b576a01ec7036d341e0c837e280f27b110cb3e6fd2f2c4a56\n      0x58\n      swap2\n      codecopy\n      0x60\n      add\n      swap2\n      pop\n      pop\n      mload(0x40)\n      dup1\n      swap2\n      sub\n      swap1\n      revert\n    tag_220:\n        /* \"Farm.sol\":29425:29441  _rewardsDuration */\n      dup1\n        /* \"Farm.sol\":29407:29422  rewardsDuration */\n      0x06\n        /* \"Farm.sol\":29407:29441  rewardsDuration = _rewardsDuration */\n      dup2\n      swap1\n      sstore\n      pop\n        /* \"Farm.sol\":29457:29496  RewardsDurationUpdated(rewardsDuration) */\n      0xfb46ca5a5e06d4540d6387b930a7c978bce0db5f449ec6b3f5d07c6e1d44f2d3\n        /* \"Farm.sol\":29480:29495  rewardsDuration */\n      sload(0x06)\n        /* \"Farm.sol\":29457:29496  RewardsDurationUpdated(rewardsDuration) */\n      mload(0x40)\n      dup1\n      dup3\n      dup2\n      mstore\n      0x20\n      add\n      swap2\n      pop\n      pop\n      mload(0x40)\n      dup1\n      swap2\n      sub\n      swap1\n      log1\n        /* \"Farm.sol\":29144:29504  function setRewardsDuration(uint256 _rewardsDuration) external onlyOwner {\r... */\n      pop\n      jump\t// out\n        /* \"Farm.sol\":25032:25426  function rewardPerToken() public view returns (uint256) {\r... */\n    tag_97:\n        /* \"Farm.sol\":25079:25086  uint256 */\n      0x00\n        /* \"Farm.sol\":25119:25120  0 */\n      dup1\n        /* \"Farm.sol\":25103:25115  _totalSupply */\n      sload(0x0d)\n        /* \"Farm.sol\":25103:25120  _totalSupply == 0 */\n      eq\n        /* \"Farm.sol\":25099:25176  if (_totalSupply == 0) {\r... */\n      iszero\n      tag_222\n      jumpi\n        /* \"Farm.sol\":25144:25164  rewardPerTokenStored */\n      sload(0x08)\n        /* \"Farm.sol\":25137:25164  return rewardPerTokenStored */\n      swap1\n      pop\n      jump(tag_221)\n        /* \"Farm.sol\":25099:25176  if (_totalSupply == 0) {\r... */\n    tag_222:\n        /* \"Farm.sol\":25202:25418  rewardPerTokenStored.add(\r... */\n      tag_223\n        /* \"Farm.sol\":25241:25407  lastTimeRewardApplicable()\r... */\n      tag_224\n        /* \"Farm.sol\":25394:25406  _totalSupply */\n      sload(0x0d)\n        /* \"Farm.sol\":25241:25375  lastTimeRewardApplicable()\r... */\n      tag_225\n        /* \"Farm.sol\":25350:25374  stakingTokensDecimalRate */\n      sload(0x09)\n        /* \"Farm.sol\":25241:25331  lastTimeRewardApplicable()\r... */\n      tag_226\n        /* \"Farm.sol\":25320:25330  rewardRate */\n      sload(0x05)\n        /* \"Farm.sol\":25241:25301  lastTimeRewardApplicable()\r... */\n      tag_227\n        /* \"Farm.sol\":25286:25300  lastUpdateTime */\n      sload(0x07)\n        /* \"Farm.sol\":25241:25267  lastTimeRewardApplicable() */\n      tag_228\n        /* \"Farm.sol\":25241:25265  lastTimeRewardApplicable */\n      tag_77\n        /* \"Farm.sol\":25241:25267  lastTimeRewardApplicable() */\n      jump\t// in\n    tag_228:\n        /* \"Farm.sol\":25241:25285  lastTimeRewardApplicable()\r... */\n      tag_118\n      swap1\n        /* \"Farm.sol\":25241:25301  lastTimeRewardApplicable()\r... */\n      swap2\n      swap1\n      0xffffffff\n      and\n      jump\t// in\n    tag_227:\n        /* \"Farm.sol\":25241:25319  lastTimeRewardApplicable()\r... */\n      tag_110\n      swap1\n        /* \"Farm.sol\":25241:25331  lastTimeRewardApplicable()\r... */\n      swap2\n      swap1\n      0xffffffff\n      and\n      jump\t// in\n    tag_226:\n        /* \"Farm.sol\":25241:25349  lastTimeRewardApplicable()\r... */\n      tag_110\n      swap1\n        /* \"Farm.sol\":25241:25375  lastTimeRewardApplicable()\r... */\n      swap2\n      swap1\n      0xffffffff\n      and\n      jump\t// in\n    tag_225:\n        /* \"Farm.sol\":25241:25393  lastTimeRewardApplicable()\r... */\n      tag_109\n      swap1\n        /* \"Farm.sol\":25241:25407  lastTimeRewardApplicable()\r... */\n      swap2\n      swap1\n      0xffffffff\n      and\n      jump\t// in\n    tag_224:\n        /* \"Farm.sol\":25202:25222  rewardPerTokenStored */\n      sload(0x08)\n        /* \"Farm.sol\":25202:25226  rewardPerTokenStored.add */\n      tag_119\n      swap1\n        /* \"Farm.sol\":25202:25418  rewardPerTokenStored.add(\r... */\n      swap2\n      swap1\n      0xffffffff\n      and\n      jump\t// in\n    tag_223:\n        /* \"Farm.sol\":25186:25418  return\r... */\n      swap1\n      pop\n        /* \"Farm.sol\":25032:25426  function rewardPerToken() public view returns (uint256) {\r... */\n    tag_221:\n      swap1\n      jump\t// out\n        /* \"Farm.sol\":23291:23317  IERC20 public rewardsToken */\n    tag_99:\n      0x02\n      0x00\n      swap1\n      sload\n      swap1\n      0x0100\n      exp\n      swap1\n      div\n      0xffffffffffffffffffffffffffffffffffffffff\n      and\n      dup2\n      jump\t// out\n        /* \"Farm.sol\":23504:23539  uint256 public rewardPerTokenStored */\n    tag_101:\n      sload(0x08)\n      dup2\n      jump\t// out\n        /* \"Farm.sol\":27112:27209  function exit() external {\r... */\n    tag_103:\n        /* \"Farm.sol\":27148:27179  withdraw(_balances[msg.sender]) */\n      tag_230\n        /* \"Farm.sol\":27157:27166  _balances */\n      0x0e\n        /* \"Farm.sol\":27157:27178  _balances[msg.sender] */\n      0x00\n        /* \"Farm.sol\":27167:27177  msg.sender */\n      caller\n        /* \"Farm.sol\":27157:27178  _balances[msg.sender] */\n      0xffffffffffffffffffffffffffffffffffffffff\n      and\n      0xffffffffffffffffffffffffffffffffffffffff\n      and\n      dup2\n      mstore\n      0x20\n      add\n      swap1\n      dup2\n      mstore\n      0x20\n      add\n      0x00\n      keccak256\n      sload\n        /* \"Farm.sol\":27148:27156  withdraw */\n      tag_51\n        /* \"Farm.sol\":27148:27179  withdraw(_balances[msg.sender]) */\n      jump\t// in\n    tag_230:\n        /* \"Farm.sol\":27190:27201  getReward() */\n      tag_231\n        /* \"Farm.sol\":27190:27199  getReward */\n      tag_61\n        /* \"Farm.sol\":27190:27201  getReward() */\n      jump\t// in\n    tag_231:\n        /* \"Farm.sol\":27112:27209  function exit() external {\r... */\n      jump\t// out\n        /* \"Farm.sol\":23357:23388  uint256 public periodFinish = 0 */\n    tag_105:\n      sload(0x04)\n      dup2\n      jump\t// out\n        /* \"Farm.sol\":22862:23106  function transferOwnership(address newOwner) public virtual onlyOwner {\r... */\n    tag_108:\n        /* \"Farm.sol\":22139:22151  _msgSender() */\n      tag_233\n        /* \"Farm.sol\":22139:22149  _msgSender */\n      tag_149\n        /* \"Farm.sol\":22139:22151  _msgSender() */\n      jump\t// in\n    tag_233:\n        /* \"Farm.sol\":22129:22151  _owner == _msgSender() */\n      0xffffffffffffffffffffffffffffffffffffffff\n      and\n        /* \"Farm.sol\":22129:22135  _owner */\n      0x01\n      dup1\n      swap1\n      sload\n      swap1\n      0x0100\n      exp\n      swap1\n      div\n      0xffffffffffffffffffffffffffffffffffffffff\n      and\n        /* \"Farm.sol\":22129:22151  _owner == _msgSender() */\n      0xffffffffffffffffffffffffffffffffffffffff\n      and\n      eq\n        /* \"Farm.sol\":22121:22188  require(_owner == _msgSender(), \"Ownable: caller is not the owner\") */\n      tag_234\n      jumpi\n      mload(0x40)\n      0x08c379a000000000000000000000000000000000000000000000000000000000\n      dup2\n      mstore\n      0x04\n      add\n      dup1\n      dup1\n      0x20\n      add\n      dup3\n      dup2\n      sub\n      dup3\n      mstore\n      0x20\n      dup2\n      mstore\n      0x20\n      add\n      dup1\n      0x4f776e61626c653a2063616c6c6572206973206e6f7420746865206f776e6572\n      dup2\n      mstore\n      pop\n      0x20\n      add\n      swap2\n      pop\n      pop\n      mload(0x40)\n      dup1\n      swap2\n      sub\n      swap1\n      revert\n    tag_234:\n        /* \"Farm.sol\":22971:22972  0 */\n      0x00\n        /* \"Farm.sol\":22951:22973  newOwner != address(0) */\n      0xffffffffffffffffffffffffffffffffffffffff\n      and\n        /* \"Farm.sol\":22951:22959  newOwner */\n      dup2\n        /* \"Farm.sol\":22951:22973  newOwner != address(0) */\n      0xffffffffffffffffffffffffffffffffffffffff\n      and\n      eq\n      iszero\n        /* \"Farm.sol\":22943:23016  require(newOwner != address(0), \"Ownable: new owner is the zero address\") */\n      tag_236\n      jumpi\n      mload(0x40)\n      0x08c379a000000000000000000000000000000000000000000000000000000000\n      dup2\n      mstore\n      0x04\n      add\n      dup1\n      dup1\n      0x20\n      add\n      dup3\n      dup2\n      sub\n      dup3\n      mstore\n      0x26\n      dup2\n      mstore\n      0x20\n      add\n      dup1\n      data_245f15ff17f551913a7a18385165551503906a406f905ac1c2437281a7cd0cfe\n      0x26\n      swap2\n      codecopy\n      0x40\n      add\n      swap2\n      pop\n      pop\n      mload(0x40)\n      dup1\n      swap2\n      sub\n      swap1\n      revert\n    tag_236:\n        /* \"Farm.sol\":23061:23069  newOwner */\n      dup1\n        /* \"Farm.sol\":23032:23070  OwnershipTransferred(_owner, newOwner) */\n      0xffffffffffffffffffffffffffffffffffffffff\n      and\n        /* \"Farm.sol\":23053:23059  _owner */\n      0x01\n      dup1\n      swap1\n      sload\n      swap1\n      0x0100\n      exp\n      swap1\n      div\n      0xffffffffffffffffffffffffffffffffffffffff\n      and\n        /* \"Farm.sol\":23032:23070  OwnershipTransferred(_owner, newOwner) */\n      0xffffffffffffffffffffffffffffffffffffffff\n      and\n      0x8be0079c531659141344cd1fd0a4f28419497f9722a3daafe3b4186f6b6457e0\n      mload(0x40)\n      mload(0x40)\n      dup1\n      swap2\n      sub\n      swap1\n      log3\n        /* \"Farm.sol\":23090:23098  newOwner */\n      dup1\n        /* \"Farm.sol\":23081:23087  _owner */\n      0x01\n      dup1\n        /* \"Farm.sol\":23081:23098  _owner = newOwner */\n      0x0100\n      exp\n      dup2\n      sload\n      dup2\n      0xffffffffffffffffffffffffffffffffffffffff\n      mul\n      not\n      and\n      swap1\n      dup4\n      0xffffffffffffffffffffffffffffffffffffffff\n      and\n      mul\n      or\n      swap1\n      sstore\n      pop\n        /* \"Farm.sol\":22862:23106  function transferOwnership(address newOwner) public virtual onlyOwner {\r... */\n      pop\n      jump\t// out\n        /* \"Farm.sol\":16083:16215  function div(uint256 a, uint256 b) internal pure returns (uint256) {\r... */\n    tag_109:\n        /* \"Farm.sol\":16141:16148  uint256 */\n      0x00\n        /* \"Farm.sol\":16168:16207  div(a, b, \"SafeMath: division by zero\") */\n      tag_238\n        /* \"Farm.sol\":16172:16173  a */\n      dup4\n        /* \"Farm.sol\":16175:16176  b */\n      dup4\n        /* \"Farm.sol\":16168:16207  div(a, b, \"SafeMath: division by zero\") */\n      mload(0x40)\n      dup1\n      0x40\n      add\n      0x40\n      mstore\n      dup1\n      0x1a\n      dup2\n      mstore\n      0x20\n      add\n      0x536166654d6174683a206469766973696f6e206279207a65726f000000000000\n      dup2\n      mstore\n      pop\n        /* \"Farm.sol\":16168:16171  div */\n      tag_239\n        /* \"Farm.sol\":16168:16207  div(a, b, \"SafeMath: division by zero\") */\n      jump\t// in\n    tag_238:\n        /* \"Farm.sol\":16161:16207  return div(a, b, \"SafeMath: division by zero\") */\n      swap1\n      pop\n        /* \"Farm.sol\":16083:16215  function div(uint256 a, uint256 b) internal pure returns (uint256) {\r... */\n      swap3\n      swap2\n      pop\n      pop\n      jump\t// out\n        /* \"Farm.sol\":15136:15607  function mul(uint256 a, uint256 b) internal pure returns (uint256) {\r... */\n    tag_110:\n        /* \"Farm.sol\":15194:15201  uint256 */\n      0x00\n        /* \"Farm.sol\":15444:15445  0 */\n      dup1\n        /* \"Farm.sol\":15439:15440  a */\n      dup4\n        /* \"Farm.sol\":15439:15445  a == 0 */\n      eq\n        /* \"Farm.sol\":15435:15482  if (a == 0) {\r... */\n      iszero\n      tag_241\n      jumpi\n        /* \"Farm.sol\":15469:15470  0 */\n      0x00\n        /* \"Farm.sol\":15462:15470  return 0 */\n      swap1\n      pop\n      jump(tag_240)\n        /* \"Farm.sol\":15435:15482  if (a == 0) {\r... */\n    tag_241:\n        /* \"Farm.sol\":15494:15503  uint256 c */\n      0x00\n        /* \"Farm.sol\":15510:15511  b */\n      dup3\n        /* \"Farm.sol\":15506:15507  a */\n      dup5\n        /* \"Farm.sol\":15506:15511  a * b */\n      mul\n        /* \"Farm.sol\":15494:15511  uint256 c = a * b */\n      swap1\n      pop\n        /* \"Farm.sol\":15539:15540  b */\n      dup3\n        /* \"Farm.sol\":15534:15535  a */\n      dup5\n        /* \"Farm.sol\":15530:15531  c */\n      dup3\n        /* \"Farm.sol\":15530:15535  c / a */\n      dup2\n      tag_242\n      jumpi\n      invalid\n    tag_242:\n      div\n        /* \"Farm.sol\":15530:15540  c / a == b */\n      eq\n        /* \"Farm.sol\":15522:15578  require(c / a == b, \"SafeMath: multiplication overflow\") */\n      tag_243\n      jumpi\n      mload(0x40)\n      0x08c379a000000000000000000000000000000000000000000000000000000000\n      dup2\n      mstore\n      0x04\n      add\n      dup1\n      dup1\n      0x20\n      add\n      dup3\n      dup2\n      sub\n      dup3\n      mstore\n      0x21\n      dup2\n      mstore\n      0x20\n      add\n      dup1\n      data_9113bb53c2876a3805b2c9242029423fc540a728243ce887ab24c82cf119fba3\n      0x21\n      swap2\n      codecopy\n      0x40\n      add\n      swap2\n      pop\n      pop\n      mload(0x40)\n      dup1\n      swap2\n      sub\n      swap1\n      revert\n    tag_243:\n        /* \"Farm.sol\":15598:15599  c */\n      dup1\n        /* \"Farm.sol\":15591:15599  return c */\n      swap2\n      pop\n      pop\n        /* \"Farm.sol\":15136:15607  function mul(uint256 a, uint256 b) internal pure returns (uint256) {\r... */\n    tag_240:\n      swap3\n      swap2\n      pop\n      pop\n      jump\t// out\n        /* \"Farm.sol\":17454:17584  function mod(uint256 a, uint256 b) internal pure returns (uint256) {\r... */\n    tag_111:\n        /* \"Farm.sol\":17512:17519  uint256 */\n      0x00\n        /* \"Farm.sol\":17539:17576  mod(a, b, \"SafeMath: modulo by zero\") */\n      tag_245\n        /* \"Farm.sol\":17543:17544  a */\n      dup4\n        /* \"Farm.sol\":17546:17547  b */\n      dup4\n        /* \"Farm.sol\":17539:17576  mod(a, b, \"SafeMath: modulo by zero\") */\n      mload(0x40)\n      dup1\n      0x40\n      add\n      0x40\n      mstore\n      dup1\n      0x18\n      dup2\n      mstore\n      0x20\n      add\n      0x536166654d6174683a206d6f64756c6f206279207a65726f0000000000000000\n      dup2\n      mstore\n      pop\n        /* \"Farm.sol\":17539:17542  mod */\n      tag_246\n        /* \"Farm.sol\":17539:17576  mod(a, b, \"SafeMath: modulo by zero\") */\n      jump\t// in\n    tag_245:\n        /* \"Farm.sol\":17532:17576  return mod(a, b, \"SafeMath: modulo by zero\") */\n      swap1\n      pop\n        /* \"Farm.sol\":17454:17584  function mod(uint256 a, uint256 b) internal pure returns (uint256) {\r... */\n      swap3\n      swap2\n      pop\n      pop\n      jump\t// out\n        /* \"Farm.sol\":14246:14382  function sub(uint256 a, uint256 b) internal pure returns (uint256) {\r... */\n    tag_118:\n        /* \"Farm.sol\":14304:14311  uint256 */\n      0x00\n        /* \"Farm.sol\":14331:14374  sub(a, b, \"SafeMath: subtraction overflow\") */\n      tag_248\n        /* \"Farm.sol\":14335:14336  a */\n      dup4\n        /* \"Farm.sol\":14338:14339  b */\n      dup4\n        /* \"Farm.sol\":14331:14374  sub(a, b, \"SafeMath: subtraction overflow\") */\n      mload(0x40)\n      dup1\n      0x40\n      add\n      0x40\n      mstore\n      dup1\n      0x1e\n      dup2\n      mstore\n      0x20\n      add\n      0x536166654d6174683a207375627472616374696f6e206f766572666c6f770000\n      dup2\n      mstore\n      pop\n        /* \"Farm.sol\":14331:14334  sub */\n      tag_249\n        /* \"Farm.sol\":14331:14374  sub(a, b, \"SafeMath: subtraction overflow\") */\n      jump\t// in\n    tag_248:\n        /* \"Farm.sol\":14324:14374  return sub(a, b, \"SafeMath: subtraction overflow\") */\n      swap1\n      pop\n        /* \"Farm.sol\":14246:14382  function sub(uint256 a, uint256 b) internal pure returns (uint256) {\r... */\n      swap3\n      swap2\n      pop\n      pop\n      jump\t// out\n        /* \"Farm.sol\":13782:13963  function add(uint256 a, uint256 b) internal pure returns (uint256) {\r... */\n    tag_119:\n        /* \"Farm.sol\":13840:13847  uint256 */\n      0x00\n        /* \"Farm.sol\":13860:13869  uint256 c */\n      dup1\n        /* \"Farm.sol\":13876:13877  b */\n      dup3\n        /* \"Farm.sol\":13872:13873  a */\n      dup5\n        /* \"Farm.sol\":13872:13877  a + b */\n      add\n        /* \"Farm.sol\":13860:13877  uint256 c = a + b */\n      swap1\n      pop\n        /* \"Farm.sol\":13901:13902  a */\n      dup4\n        /* \"Farm.sol\":13896:13897  c */\n      dup2\n        /* \"Farm.sol\":13896:13902  c >= a */\n      lt\n      iszero\n        /* \"Farm.sol\":13888:13934  require(c >= a, \"SafeMath: addition overflow\") */\n      tag_251\n      jumpi\n      mload(0x40)\n      0x08c379a000000000000000000000000000000000000000000000000000000000\n      dup2\n      mstore\n      0x04\n      add\n      dup1\n      dup1\n      0x20\n      add\n      dup3\n      dup2\n      sub\n      dup3\n      mstore\n      0x1b\n      dup2\n      mstore\n      0x20\n      add\n      dup1\n      0x536166654d6174683a206164646974696f6e206f766572666c6f770000000000\n      dup2\n      mstore\n      pop\n      0x20\n      add\n      swap2\n      pop\n      pop\n      mload(0x40)\n      dup1\n      swap2\n      sub\n      swap1\n      revert\n    tag_251:\n        /* \"Farm.sol\":13954:13955  c */\n      dup1\n        /* \"Farm.sol\":13947:13955  return c */\n      swap2\n      pop\n      pop\n        /* \"Farm.sol\":13782:13963  function add(uint256 a, uint256 b) internal pure returns (uint256) {\r... */\n      swap3\n      swap2\n      pop\n      pop\n      jump\t// out\n        /* \"Farm.sol\":18334:18511  function safeTransfer(IERC20 token, address to, uint256 value) internal {\r... */\n    tag_135:\n        /* \"Farm.sol\":18417:18503  _callOptionalReturn(token, abi.encodeWithSelector(token.transfer.selector, to, value)) */\n      tag_253\n        /* \"Farm.sol\":18437:18442  token */\n      dup4\n        /* \"Farm.sol\":18467:18490  token.transfer.selector */\n      shl(0xe0, 0xa9059cbb)\n        /* \"Farm.sol\":18492:18494  to */\n      dup5\n        /* \"Farm.sol\":18496:18501  value */\n      dup5\n        /* \"Farm.sol\":18444:18502  abi.encodeWithSelector(token.transfer.selector, to, value) */\n      add(0x24, mload(0x40))\n      dup1\n      dup4\n      0xffffffffffffffffffffffffffffffffffffffff\n      and\n      0xffffffffffffffffffffffffffffffffffffffff\n      and\n      dup2\n      mstore\n      0x20\n      add\n      dup3\n      dup2\n      mstore\n      0x20\n      add\n      swap3\n      pop\n      pop\n      pop\n      mload(0x40)\n        /* \"--CODEGEN--\":49:53   */\n      0x20\n        /* \"--CODEGEN--\":39:46   */\n      dup2\n        /* \"--CODEGEN--\":30:37   */\n      dup4\n        /* \"--CODEGEN--\":26:47   */\n      sub\n        /* \"--CODEGEN--\":22:54   */\n      sub\n        /* \"--CODEGEN--\":13:20   */\n      dup2\n        /* \"--CODEGEN--\":6:55   */\n      mstore\n        /* \"Farm.sol\":18444:18502  abi.encodeWithSelector(token.transfer.selector, to, value) */\n      swap1\n      0x40\n      mstore\n      swap1\n      not(0xffffffffffffffffffffffffffffffffffffffffffffffffffffffff)\n      and\n        /* \"--CODEGEN--\":38:42   */\n      0x20\n        /* \"--CODEGEN--\":29:36   */\n      dup3\n        /* \"--CODEGEN--\":25:43   */\n      add\n        /* \"--CODEGEN--\":67:77   */\n      dup1\n        /* \"--CODEGEN--\":61:78   */\n      mload\n        /* \"--CODEGEN--\":96:154   */\n      0xffffffffffffffffffffffffffffffffffffffffffffffffffffffff\n        /* \"--CODEGEN--\":199:207   */\n      dup4\n        /* \"--CODEGEN--\":192:196   */\n      dup2\n        /* \"--CODEGEN--\":186:190   */\n      dup4\n        /* \"--CODEGEN--\":182:197   */\n      and\n        /* \"--CODEGEN--\":179:208   */\n      or\n        /* \"--CODEGEN--\":167:177   */\n      dup4\n        /* \"--CODEGEN--\":160:209   */\n      mstore\n        /* \"--CODEGEN--\":0:215   */\n      pop\n      pop\n      pop\n        /* \"Farm.sol\":18444:18502  abi.encodeWithSelector(token.transfer.selector, to, value) */\n      pop\n        /* \"Farm.sol\":18417:18436  _callOptionalReturn */\n      tag_254\n        /* \"Farm.sol\":18417:18503  _callOptionalReturn(token, abi.encodeWithSelector(token.transfer.selector, to, value)) */\n      jump\t// in\n    tag_253:\n        /* \"Farm.sol\":18334:18511  function safeTransfer(IERC20 token, address to, uint256 value) internal {\r... */\n      pop\n      pop\n      pop\n      jump\t// out\n        /* \"Farm.sol\":9606:9712  function _msgSender() internal view virtual returns (address payable) {\r... */\n    tag_149:\n        /* \"Farm.sol\":9659:9674  address payable */\n      0x00\n        /* \"Farm.sol\":9694:9704  msg.sender */\n      caller\n        /* \"Farm.sol\":9687:9704  return msg.sender */\n      swap1\n      pop\n        /* \"Farm.sol\":9606:9712  function _msgSender() internal view virtual returns (address payable) {\r... */\n      swap1\n      jump\t// out\n        /* \"Farm.sol\":18519:18724  function safeTransferFrom(IERC20 token, address from, address to, uint256 value) internal {\r... */\n    tag_215:\n        /* \"Farm.sol\":18620:18716  _callOptionalReturn(token, abi.encodeWithSelector(token.transferFrom.selector, from, to, value)) */\n      tag_257\n        /* \"Farm.sol\":18640:18645  token */\n      dup5\n        /* \"Farm.sol\":18670:18697  token.transferFrom.selector */\n      shl(0xe0, 0x23b872dd)\n        /* \"Farm.sol\":18699:18703  from */\n      dup6\n        /* \"Farm.sol\":18705:18707  to */\n      dup6\n        /* \"Farm.sol\":18709:18714  value */\n      dup6\n        /* \"Farm.sol\":18647:18715  abi.encodeWithSelector(token.transferFrom.selector, from, to, value) */\n      add(0x24, mload(0x40))\n      dup1\n      dup5\n      0xffffffffffffffffffffffffffffffffffffffff\n      and\n      0xffffffffffffffffffffffffffffffffffffffff\n      and\n      dup2\n      mstore\n      0x20\n      add\n      dup4\n      0xffffffffffffffffffffffffffffffffffffffff\n      and\n      0xffffffffffffffffffffffffffffffffffffffff\n      and\n      dup2\n      mstore\n      0x20\n      add\n      dup3\n      dup2\n      mstore\n      0x20\n      add\n      swap4\n      pop\n      pop\n      pop\n      pop\n      mload(0x40)\n        /* \"--CODEGEN--\":49:53   */\n      0x20\n        /* \"--CODEGEN--\":39:46   */\n      dup2\n        /* \"--CODEGEN--\":30:37   */\n      dup4\n        /* \"--CODEGEN--\":26:47   */\n      sub\n        /* \"--CODEGEN--\":22:54   */\n      sub\n        /* \"--CODEGEN--\":13:20   */\n      dup2\n        /* \"--CODEGEN--\":6:55   */\n      mstore\n        /* \"Farm.sol\":18647:18715  abi.encodeWithSelector(token.transferFrom.selector, from, to, value) */\n      swap1\n      0x40\n      mstore\n      swap1\n      not(0xffffffffffffffffffffffffffffffffffffffffffffffffffffffff)\n      and\n        /* \"--CODEGEN--\":38:42   */\n      0x20\n        /* \"--CODEGEN--\":29:36   */\n      dup3\n        /* \"--CODEGEN--\":25:43   */\n      add\n        /* \"--CODEGEN--\":67:77   */\n      dup1\n        /* \"--CODEGEN--\":61:78   */\n      mload\n        /* \"--CODEGEN--\":96:154   */\n      0xffffffffffffffffffffffffffffffffffffffffffffffffffffffff\n        /* \"--CODEGEN--\":199:207   */\n      dup4\n        /* \"--CODEGEN--\":192:196   */\n      dup2\n        /* \"--CODEGEN--\":186:190   */\n      dup4\n        /* \"--CODEGEN--\":182:197   */\n      and\n        /* \"--CODEGEN--\":179:208   */\n      or\n        /* \"--CODEGEN--\":167:177   */\n      dup4\n        /* \"--CODEGEN--\":160:209   */\n      mstore\n        /* \"--CODEGEN--\":0:215   */\n      pop\n      pop\n      pop\n        /* \"Farm.sol\":18647:18715  abi.encodeWithSelector(token.transferFrom.selector, from, to, value) */\n      pop\n        /* \"Farm.sol\":18620:18639  _callOptionalReturn */\n      tag_254\n        /* \"Farm.sol\":18620:18716  _callOptionalReturn(token, abi.encodeWithSelector(token.transferFrom.selector, from, to, value)) */\n      jump\t// in\n    tag_257:\n        /* \"Farm.sol\":18519:18724  function safeTransferFrom(IERC20 token, address from, address to, uint256 value) internal {\r... */\n      pop\n      pop\n      pop\n      pop\n      jump\t// out\n        /* \"Farm.sol\":16711:16989  function div(uint256 a, uint256 b, string memory errorMessage) internal pure returns (uint256) {\r... */\n    tag_239:\n        /* \"Farm.sol\":16797:16804  uint256 */\n      0x00\n        /* \"Farm.sol\":16829:16830  0 */\n      dup1\n        /* \"Farm.sol\":16825:16826  b */\n      dup4\n        /* \"Farm.sol\":16825:16830  b > 0 */\n      gt\n        /* \"Farm.sol\":16832:16844  errorMessage */\n      dup3\n        /* \"Farm.sol\":16817:16845  require(b > 0, errorMessage) */\n      swap1\n      tag_259\n      jumpi\n      mload(0x40)\n      0x08c379a000000000000000000000000000000000000000000000000000000000\n      dup2\n      mstore\n      0x04\n      add\n      dup1\n      dup1\n      0x20\n      add\n      dup3\n      dup2\n      sub\n      dup3\n      mstore\n      dup4\n      dup2\n      dup2\n      mload\n      dup2\n      mstore\n      0x20\n      add\n      swap2\n      pop\n      dup1\n      mload\n      swap1\n      0x20\n      add\n      swap1\n      dup1\n      dup4\n      dup4\n        /* \"--CODEGEN--\":23:24   */\n      0x00\n        /* \"--CODEGEN--\":8:108   */\n    tag_260:\n        /* \"--CODEGEN--\":33:36   */\n      dup4\n        /* \"--CODEGEN--\":30:31   */\n      dup2\n        /* \"--CODEGEN--\":27:37   */\n      lt\n        /* \"--CODEGEN--\":8:108   */\n      iszero\n      tag_262\n      jumpi\n        /* \"--CODEGEN--\":99:100   */\n      dup1\n        /* \"--CODEGEN--\":94:97   */\n      dup3\n        /* \"--CODEGEN--\":90:101   */\n      add\n        /* \"--CODEGEN--\":84:102   */\n      mload\n        /* \"--CODEGEN--\":80:81   */\n      dup2\n        /* \"--CODEGEN--\":75:78   */\n      dup5\n        /* \"--CODEGEN--\":71:82   */\n      add\n        /* \"--CODEGEN--\":64:103   */\n      mstore\n        /* \"--CODEGEN--\":52:54   */\n      0x20\n        /* \"--CODEGEN--\":49:50   */\n      dup2\n        /* \"--CODEGEN--\":45:55   */\n      add\n        /* \"--CODEGEN--\":40:55   */\n      swap1\n      pop\n        /* \"--CODEGEN--\":8:108   */\n      jump(tag_260)\n    tag_262:\n        /* \"--CODEGEN--\":12:26   */\n      pop\n        /* \"Farm.sol\":16817:16845  require(b > 0, errorMessage) */\n      pop\n      pop\n      pop\n      swap1\n      pop\n      swap1\n      dup2\n      add\n      swap1\n      0x1f\n      and\n      dup1\n      iszero\n      tag_263\n      jumpi\n      dup1\n      dup3\n      sub\n      dup1\n      mload\n      0x01\n      dup4\n      0x20\n      sub\n      0x0100\n      exp\n      sub\n      not\n      and\n      dup2\n      mstore\n      0x20\n      add\n      swap2\n      pop\n    tag_263:\n      pop\n      swap3\n      pop\n      pop\n      pop\n      mload(0x40)\n      dup1\n      swap2\n      sub\n      swap1\n      revert\n    tag_259:\n      pop\n        /* \"Farm.sol\":16856:16865  uint256 c */\n      0x00\n        /* \"Farm.sol\":16872:16873  b */\n      dup4\n        /* \"Farm.sol\":16868:16869  a */\n      dup6\n        /* \"Farm.sol\":16868:16873  a / b */\n      dup2\n      tag_264\n      jumpi\n      invalid\n    tag_264:\n      div\n        /* \"Farm.sol\":16856:16873  uint256 c = a / b */\n      swap1\n      pop\n        /* \"Farm.sol\":16980:16981  c */\n      dup1\n        /* \"Farm.sol\":16973:16981  return c */\n      swap2\n      pop\n      pop\n        /* \"Farm.sol\":16711:16989  function div(uint256 a, uint256 b, string memory errorMessage) internal pure returns (uint256) {\r... */\n      swap4\n      swap3\n      pop\n      pop\n      pop\n      jump\t// out\n        /* \"Farm.sol\":18069:18235  function mod(uint256 a, uint256 b, string memory errorMessage) internal pure returns (uint256) {\r... */\n    tag_246:\n        /* \"Farm.sol\":18155:18162  uint256 */\n      0x00\n        /* \"Farm.sol\":18188:18189  0 */\n      dup1\n        /* \"Farm.sol\":18183:18184  b */\n      dup4\n        /* \"Farm.sol\":18183:18189  b != 0 */\n      eq\n      iszero\n        /* \"Farm.sol\":18191:18203  errorMessage */\n      dup3\n        /* \"Farm.sol\":18175:18204  require(b != 0, errorMessage) */\n      swap1\n      tag_266\n      jumpi\n      mload(0x40)\n      0x08c379a000000000000000000000000000000000000000000000000000000000\n      dup2\n      mstore\n      0x04\n      add\n      dup1\n      dup1\n      0x20\n      add\n      dup3\n      dup2\n      sub\n      dup3\n      mstore\n      dup4\n      dup2\n      dup2\n      mload\n      dup2\n      mstore\n      0x20\n      add\n      swap2\n      pop\n      dup1\n      mload\n      swap1\n      0x20\n      add\n      swap1\n      dup1\n      dup4\n      dup4\n        /* \"--CODEGEN--\":23:24   */\n      0x00\n        /* \"--CODEGEN--\":8:108   */\n    tag_267:\n        /* \"--CODEGEN--\":33:36   */\n      dup4\n        /* \"--CODEGEN--\":30:31   */\n      dup2\n        /* \"--CODEGEN--\":27:37   */\n      lt\n        /* \"--CODEGEN--\":8:108   */\n      iszero\n      tag_269\n      jumpi\n        /* \"--CODEGEN--\":99:100   */\n      dup1\n        /* \"--CODEGEN--\":94:97   */\n      dup3\n        /* \"--CODEGEN--\":90:101   */\n      add\n        /* \"--CODEGEN--\":84:102   */\n      mload\n        /* \"--CODEGEN--\":80:81   */\n      dup2\n        /* \"--CODEGEN--\":75:78   */\n      dup5\n        /* \"--CODEGEN--\":71:82   */\n      add\n        /* \"--CODEGEN--\":64:103   */\n      mstore\n        /* \"--CODEGEN--\":52:54   */\n      0x20\n        /* \"--CODEGEN--\":49:50   */\n      dup2\n        /* \"--CODEGEN--\":45:55   */\n      add\n        /* \"--CODEGEN--\":40:55   */\n      swap1\n      pop\n        /* \"--CODEGEN--\":8:108   */\n      jump(tag_267)\n    tag_269:\n        /* \"--CODEGEN--\":12:26   */\n      pop\n        /* \"Farm.sol\":18175:18204  require(b != 0, errorMessage) */\n      pop\n      pop\n      pop\n      swap1\n      pop\n      swap1\n      dup2\n      add\n      swap1\n      0x1f\n      and\n      dup1\n      iszero\n      tag_270\n      jumpi\n      dup1\n      dup3\n      sub\n      dup1\n      mload\n      0x01\n      dup4\n      0x20\n      sub\n      0x0100\n      exp\n      sub\n      not\n      and\n      dup2\n      mstore\n      0x20\n      add\n      swap2\n      pop\n    tag_270:\n      pop\n      swap3\n      pop\n      pop\n      pop\n      mload(0x40)\n      dup1\n      swap2\n      sub\n      swap1\n      revert\n    tag_266:\n      pop\n        /* \"Farm.sol\":18226:18227  b */\n      dup3\n        /* \"Farm.sol\":18222:18223  a */\n      dup5\n        /* \"Farm.sol\":18222:18227  a % b */\n      dup2\n      tag_271\n      jumpi\n      invalid\n    tag_271:\n      mod\n        /* \"Farm.sol\":18215:18227  return a % b */\n      swap1\n      pop\n        /* \"Farm.sol\":18069:18235  function mod(uint256 a, uint256 b, string memory errorMessage) internal pure returns (uint256) {\r... */\n      swap4\n      swap3\n      pop\n      pop\n      pop\n      jump\t// out\n        /* \"Farm.sol\":14685:14877  function sub(uint256 a, uint256 b, string memory errorMessage) internal pure returns (uint256) {\r... */\n    tag_249:\n        /* \"Farm.sol\":14771:14778  uint256 */\n      0x00\n        /* \"Farm.sol\":14804:14805  a */\n      dup4\n        /* \"Farm.sol\":14799:14800  b */\n      dup4\n        /* \"Farm.sol\":14799:14805  b <= a */\n      gt\n      iszero\n        /* \"Farm.sol\":14807:14819  errorMessage */\n      dup3\n        /* \"Farm.sol\":14791:14820  require(b <= a, errorMessage) */\n      swap1\n      tag_273\n      jumpi\n      mload(0x40)\n      0x08c379a000000000000000000000000000000000000000000000000000000000\n      dup2\n      mstore\n      0x04\n      add\n      dup1\n      dup1\n      0x20\n      add\n      dup3\n      dup2\n      sub\n      dup3\n      mstore\n      dup4\n      dup2\n      dup2\n      mload\n      dup2\n      mstore\n      0x20\n      add\n      swap2\n      pop\n      dup1\n      mload\n      swap1\n      0x20\n      add\n      swap1\n      dup1\n      dup4\n      dup4\n        /* \"--CODEGEN--\":23:24   */\n      0x00\n        /* \"--CODEGEN--\":8:108   */\n    tag_274:\n        /* \"--CODEGEN--\":33:36   */\n      dup4\n        /* \"--CODEGEN--\":30:31   */\n      dup2\n        /* \"--CODEGEN--\":27:37   */\n      lt\n        /* \"--CODEGEN--\":8:108   */\n      iszero\n      tag_276\n      jumpi\n        /* \"--CODEGEN--\":99:100   */\n      dup1\n        /* \"--CODEGEN--\":94:97   */\n      dup3\n        /* \"--CODEGEN--\":90:101   */\n      add\n        /* \"--CODEGEN--\":84:102   */\n      mload\n        /* \"--CODEGEN--\":80:81   */\n      dup2\n        /* \"--CODEGEN--\":75:78   */\n      dup5\n        /* \"--CODEGEN--\":71:82   */\n      add\n        /* \"--CODEGEN--\":64:103   */\n      mstore\n        /* \"--CODEGEN--\":52:54   */\n      0x20\n        /* \"--CODEGEN--\":49:50   */\n      dup2\n        /* \"--CODEGEN--\":45:55   */\n      add\n        /* \"--CODEGEN--\":40:55   */\n      swap1\n      pop\n        /* \"--CODEGEN--\":8:108   */\n      jump(tag_274)\n    tag_276:\n        /* \"--CODEGEN--\":12:26   */\n      pop\n        /* \"Farm.sol\":14791:14820  require(b <= a, errorMessage) */\n      pop\n      pop\n      pop\n      swap1\n      pop\n      swap1\n      dup2\n      add\n      swap1\n      0x1f\n      and\n      dup1\n      iszero\n      tag_277\n      jumpi\n      dup1\n      dup3\n      sub\n      dup1\n      mload\n      0x01\n      dup4\n      0x20\n      sub\n      0x0100\n      exp\n      sub\n      not\n      and\n      dup2\n      mstore\n      0x20\n      add\n      swap2\n      pop\n    tag_277:\n      pop\n      swap3\n      pop\n      pop\n      pop\n      mload(0x40)\n      dup1\n      swap2\n      sub\n      swap1\n      revert\n    tag_273:\n      pop\n        /* \"Farm.sol\":14831:14840  uint256 c */\n      0x00\n        /* \"Farm.sol\":14847:14848  b */\n      dup4\n        /* \"Farm.sol\":14843:14844  a */\n      dup6\n        /* \"Farm.sol\":14843:14848  a - b */\n      sub\n        /* \"Farm.sol\":14831:14848  uint256 c = a - b */\n      swap1\n      pop\n        /* \"Farm.sol\":14868:14869  c */\n      dup1\n        /* \"Farm.sol\":14861:14869  return c */\n      swap2\n      pop\n      pop\n        /* \"Farm.sol\":14685:14877  function sub(uint256 a, uint256 b, string memory errorMessage) internal pure returns (uint256) {\r... */\n      swap4\n      swap3\n      pop\n      pop\n      pop\n      jump\t// out\n        /* \"Farm.sol\":20639:21400  function _callOptionalReturn(IERC20 token, bytes memory data) private {\r... */\n    tag_254:\n        /* \"Farm.sol\":21063:21086  bytes memory returndata */\n      0x60\n        /* \"Farm.sol\":21089:21158  address(token).functionCall(data, \"SafeERC20: low-level call failed\") */\n      tag_279\n        /* \"Farm.sol\":21117:21121  data */\n      dup3\n        /* \"Farm.sol\":21089:21158  address(token).functionCall(data, \"SafeERC20: low-level call failed\") */\n      mload(0x40)\n      dup1\n      0x40\n      add\n      0x40\n      mstore\n      dup1\n      0x20\n      dup2\n      mstore\n      0x20\n      add\n      0x5361666545524332303a206c6f772d6c6576656c2063616c6c206661696c6564\n      dup2\n      mstore\n      pop\n        /* \"Farm.sol\":21097:21102  token */\n      dup6\n        /* \"Farm.sol\":21089:21116  address(token).functionCall */\n      0xffffffffffffffffffffffffffffffffffffffff\n      and\n      tag_280\n      swap1\n        /* \"Farm.sol\":21089:21158  address(token).functionCall(data, \"SafeERC20: low-level call failed\") */\n      swap3\n      swap2\n      swap1\n      0xffffffff\n      and\n      jump\t// in\n    tag_279:\n        /* \"Farm.sol\":21063:21158  bytes memory returndata = address(token).functionCall(data, \"SafeERC20: low-level call failed\") */\n      swap1\n      pop\n        /* \"Farm.sol\":21193:21194  0 */\n      0x00\n        /* \"Farm.sol\":21173:21183  returndata */\n      dup2\n        /* \"Farm.sol\":21173:21190  returndata.length */\n      mload\n        /* \"Farm.sol\":21173:21194  returndata.length > 0 */\n      gt\n        /* \"Farm.sol\":21169:21393  if (returndata.length > 0) { // Return data is optional\r... */\n      iszero\n      tag_281\n      jumpi\n        /* \"Farm.sol\":21315:21325  returndata */\n      dup1\n        /* \"Farm.sol\":21304:21334  abi.decode(returndata, (bool)) */\n      dup1\n      0x20\n      add\n      swap1\n      mload\n        /* \"--CODEGEN--\":15:17   */\n      0x20\n        /* \"--CODEGEN--\":10:13   */\n      dup2\n        /* \"--CODEGEN--\":7:18   */\n      lt\n        /* \"--CODEGEN--\":4:6   */\n      iszero\n      tag_282\n      jumpi\n        /* \"--CODEGEN--\":31:32   */\n      0x00\n        /* \"--CODEGEN--\":28:29   */\n      dup1\n        /* \"--CODEGEN--\":21:33   */\n      revert\n        /* \"--CODEGEN--\":4:6   */\n    tag_282:\n        /* \"Farm.sol\":21304:21334  abi.decode(returndata, (bool)) */\n      dup2\n      add\n      swap1\n      dup1\n      dup1\n      mload\n      swap1\n      0x20\n      add\n      swap1\n      swap3\n      swap2\n      swap1\n      pop\n      pop\n      pop\n        /* \"Farm.sol\":21296:21381  require(abi.decode(returndata, (bool)), \"SafeERC20: ERC20 operation did not succeed\") */\n      tag_283\n      jumpi\n      mload(0x40)\n      0x08c379a000000000000000000000000000000000000000000000000000000000\n      dup2\n      mstore\n      0x04\n      add\n      dup1\n      dup1\n      0x20\n      add\n      dup3\n      dup2\n      sub\n      dup3\n      mstore\n      0x2a\n      dup2\n      mstore\n      0x20\n      add\n      dup1\n      data_e11ad79d1e4a7f2e5f376964cb99e8e8f7904e3fc16a109f7a7ecb9aa7956dcd\n      0x2a\n      swap2\n      codecopy\n      0x40\n      add\n      swap2\n      pop\n      pop\n      mload(0x40)\n      dup1\n      swap2\n      sub\n      swap1\n      revert\n    tag_283:\n        /* \"Farm.sol\":21169:21393  if (returndata.length > 0) { // Return data is optional\r... */\n    tag_281:\n        /* \"Farm.sol\":20639:21400  function _callOptionalReturn(IERC20 token, bytes memory data) private {\r... */\n      pop\n      pop\n      pop\n      jump\t// out\n        /* \"Farm.sol\":3595:3790  function functionCall(address target, bytes memory data, string memory errorMessage) internal returns (bytes memory) {\r... */\n    tag_280:\n        /* \"Farm.sol\":3698:3710  bytes memory */\n      0x60\n        /* \"Farm.sol\":3730:3782  functionCallWithValue(target, data, 0, errorMessage) */\n      tag_285\n        /* \"Farm.sol\":3752:3758  target */\n      dup5\n        /* \"Farm.sol\":3760:3764  data */\n      dup5\n        /* \"Farm.sol\":3766:3767  0 */\n      0x00\n        /* \"Farm.sol\":3769:3781  errorMessage */\n      dup6\n        /* \"Farm.sol\":3730:3751  functionCallWithValue */\n      tag_286\n        /* \"Farm.sol\":3730:3782  functionCallWithValue(target, data, 0, errorMessage) */\n      jump\t// in\n    tag_285:\n        /* \"Farm.sol\":3723:3782  return functionCallWithValue(target, data, 0, errorMessage) */\n      swap1\n      pop\n        /* \"Farm.sol\":3595:3790  function functionCall(address target, bytes memory data, string memory errorMessage) internal returns (bytes memory) {\r... */\n      swap4\n      swap3\n      pop\n      pop\n      pop\n      jump\t// out\n        /* \"Farm.sol\":4647:5177  function functionCallWithValue(address target, bytes memory data, uint256 value, string memory errorMessage) internal returns (bytes memory) {\r... */\n    tag_286:\n        /* \"Farm.sol\":4774:4786  bytes memory */\n      0x60\n        /* \"Farm.sol\":4832:4837  value */\n      dup3\n        /* \"Farm.sol\":4807:4828  address(this).balance */\n      selfbalance\n        /* \"Farm.sol\":4807:4837  address(this).balance >= value */\n      lt\n      iszero\n        /* \"Farm.sol\":4799:4880  require(address(this).balance >= value, \"Address: insufficient balance for call\") */\n      tag_288\n      jumpi\n      mload(0x40)\n      0x08c379a000000000000000000000000000000000000000000000000000000000\n      dup2\n      mstore\n      0x04\n      add\n      dup1\n      dup1\n      0x20\n      add\n      dup3\n      dup2\n      sub\n      dup3\n      mstore\n      0x26\n      dup2\n      mstore\n      0x20\n      add\n      dup1\n      data_565f1a77334fc4792800921178c71e4521acffab18ff9e7885b49377ee80ab4c\n      0x26\n      swap2\n      codecopy\n      0x40\n      add\n      swap2\n      pop\n      pop\n      mload(0x40)\n      dup1\n      swap2\n      sub\n      swap1\n      revert\n    tag_288:\n        /* \"Farm.sol\":4899:4917  isContract(target) */\n      tag_289\n        /* \"Farm.sol\":4910:4916  target */\n      dup6\n        /* \"Farm.sol\":4899:4909  isContract */\n      tag_290\n        /* \"Farm.sol\":4899:4917  isContract(target) */\n      jump\t// in\n    tag_289:\n        /* \"Farm.sol\":4891:4951  require(isContract(target), \"Address: call to non-contract\") */\n      tag_291\n      jumpi\n      mload(0x40)\n      0x08c379a000000000000000000000000000000000000000000000000000000000\n      dup2\n      mstore\n      0x04\n      add\n      dup1\n      dup1\n      0x20\n      add\n      dup3\n      dup2\n      sub\n      dup3\n      mstore\n      0x1d\n      dup2\n      mstore\n      0x20\n      add\n      dup1\n      0x416464726573733a2063616c6c20746f206e6f6e2d636f6e7472616374000000\n      dup2\n      mstore\n      pop\n      0x20\n      add\n      swap2\n      pop\n      pop\n      mload(0x40)\n      dup1\n      swap2\n      sub\n      swap1\n      revert\n    tag_291:\n        /* \"Farm.sol\":5025:5037  bool success */\n      0x00\n        /* \"Farm.sol\":5039:5062  bytes memory returndata */\n      0x60\n        /* \"Farm.sol\":5066:5072  target */\n      dup7\n        /* \"Farm.sol\":5066:5077  target.call */\n      0xffffffffffffffffffffffffffffffffffffffff\n      and\n        /* \"Farm.sol\":5086:5091  value */\n      dup6\n        /* \"Farm.sol\":5094:5098  data */\n      dup8\n        /* \"Farm.sol\":5066:5099  target.call{ value: value }(data) */\n      mload(0x40)\n      dup1\n      dup3\n      dup1\n      mload\n      swap1\n      0x20\n      add\n      swap1\n      dup1\n      dup4\n      dup4\n        /* \"--CODEGEN--\":36:189   */\n    tag_292:\n        /* \"--CODEGEN--\":66:68   */\n      0x20\n        /* \"--CODEGEN--\":61:64   */\n      dup4\n        /* \"--CODEGEN--\":58:69   */\n      lt\n        /* \"--CODEGEN--\":36:189   */\n      tag_294\n      jumpi\n        /* \"--CODEGEN--\":182:185   */\n      dup1\n        /* \"--CODEGEN--\":176:186   */\n      mload\n        /* \"--CODEGEN--\":171:174   */\n      dup3\n        /* \"--CODEGEN--\":164:187   */\n      mstore\n        /* \"--CODEGEN--\":98:100   */\n      0x20\n        /* \"--CODEGEN--\":93:96   */\n      dup3\n        /* \"--CODEGEN--\":89:101   */\n      add\n        /* \"--CODEGEN--\":82:101   */\n      swap2\n      pop\n        /* \"--CODEGEN--\":123:125   */\n      0x20\n        /* \"--CODEGEN--\":118:121   */\n      dup2\n        /* \"--CODEGEN--\":114:126   */\n      add\n        /* \"--CODEGEN--\":107:126   */\n      swap1\n      pop\n        /* \"--CODEGEN--\":148:150   */\n      0x20\n        /* \"--CODEGEN--\":143:146   */\n      dup4\n        /* \"--CODEGEN--\":139:151   */\n      sub\n        /* \"--CODEGEN--\":132:151   */\n      swap3\n      pop\n        /* \"--CODEGEN--\":36:189   */\n      jump(tag_292)\n    tag_294:\n        /* \"--CODEGEN--\":274:275   */\n      0x01\n        /* \"--CODEGEN--\":267:270   */\n      dup4\n        /* \"--CODEGEN--\":263:265   */\n      0x20\n        /* \"--CODEGEN--\":259:271   */\n      sub\n        /* \"--CODEGEN--\":254:257   */\n      0x0100\n        /* \"--CODEGEN--\":250:272   */\n      exp\n        /* \"--CODEGEN--\":246:276   */\n      sub\n        /* \"--CODEGEN--\":315:319   */\n      dup1\n        /* \"--CODEGEN--\":311:320   */\n      not\n        /* \"--CODEGEN--\":305:308   */\n      dup3\n        /* \"--CODEGEN--\":299:309   */\n      mload\n        /* \"--CODEGEN--\":295:321   */\n      and\n        /* \"--CODEGEN--\":356:360   */\n      dup2\n        /* \"--CODEGEN--\":350:353   */\n      dup5\n        /* \"--CODEGEN--\":344:354   */\n      mload\n        /* \"--CODEGEN--\":340:361   */\n      and\n        /* \"--CODEGEN--\":389:396   */\n      dup1\n        /* \"--CODEGEN--\":380:387   */\n      dup3\n        /* \"--CODEGEN--\":377:397   */\n      or\n        /* \"--CODEGEN--\":372:375   */\n      dup6\n        /* \"--CODEGEN--\":365:398   */\n      mstore\n        /* \"--CODEGEN--\":3:402   */\n      pop\n      pop\n      pop\n        /* \"Farm.sol\":5066:5099  target.call{ value: value }(data) */\n      pop\n      pop\n      pop\n      swap1\n      pop\n      add\n      swap2\n      pop\n      pop\n      0x00\n      mload(0x40)\n      dup1\n      dup4\n      sub\n      dup2\n      dup6\n      dup8\n      gas\n      call\n      swap3\n      pop\n      pop\n      pop\n      returndatasize\n        /* \"--CODEGEN--\":12:13   */\n      dup1\n        /* \"--CODEGEN--\":19:20   */\n      0x00\n        /* \"--CODEGEN--\":14:41   */\n      dup2\n      eq\n      tag_297\n      jumpi\n        /* \"--CODEGEN--\":67:71   */\n      0x40\n        /* \"--CODEGEN--\":61:72   */\n      mload\n        /* \"--CODEGEN--\":56:72   */\n      swap2\n      pop\n        /* \"--CODEGEN--\":134:138   */\n      0x1f\n        /* \"--CODEGEN--\":130:139   */\n      not\n        /* \"--CODEGEN--\":123:127   */\n      0x3f\n        /* \"--CODEGEN--\":105:121   */\n      returndatasize\n        /* \"--CODEGEN--\":101:128   */\n      add\n        /* \"--CODEGEN--\":97:140   */\n      and\n        /* \"--CODEGEN--\":94:95   */\n      dup3\n        /* \"--CODEGEN--\":90:141   */\n      add\n        /* \"--CODEGEN--\":84:88   */\n      0x40\n        /* \"--CODEGEN--\":77:142   */\n      mstore\n        /* \"--CODEGEN--\":157:173   */\n      returndatasize\n        /* \"--CODEGEN--\":154:155   */\n      dup3\n        /* \"--CODEGEN--\":147:174   */\n      mstore\n        /* \"--CODEGEN--\":211:227   */\n      returndatasize\n        /* \"--CODEGEN--\":208:209   */\n      0x00\n        /* \"--CODEGEN--\":201:205   */\n      0x20\n        /* \"--CODEGEN--\":198:199   */\n      dup5\n        /* \"--CODEGEN--\":194:206   */\n      add\n        /* \"--CODEGEN--\":179:228   */\n      returndatacopy\n        /* \"--CODEGEN--\":5:233   */\n      jump(tag_296)\n        /* \"--CODEGEN--\":14:41   */\n    tag_297:\n        /* \"--CODEGEN--\":32:36   */\n      0x60\n        /* \"--CODEGEN--\":27:36   */\n      swap2\n      pop\n        /* \"--CODEGEN--\":5:233   */\n    tag_296:\n      pop\n        /* \"Farm.sol\":5024:5099  (bool success, bytes memory returndata) = target.call{ value: value }(data) */\n      swap2\n      pop\n      swap2\n      pop\n        /* \"Farm.sol\":5117:5169  _verifyCallResult(success, returndata, errorMessage) */\n      tag_298\n        /* \"Farm.sol\":5135:5142  success */\n      dup3\n        /* \"Farm.sol\":5144:5154  returndata */\n      dup3\n        /* \"Farm.sol\":5156:5168  errorMessage */\n      dup7\n        /* \"Farm.sol\":5117:5134  _verifyCallResult */\n      tag_299\n        /* \"Farm.sol\":5117:5169  _verifyCallResult(success, returndata, errorMessage) */\n      jump\t// in\n    tag_298:\n        /* \"Farm.sol\":5110:5169  return _verifyCallResult(success, returndata, errorMessage) */\n      swap3\n      pop\n      pop\n      pop\n        /* \"Farm.sol\":4647:5177  function functionCallWithValue(address target, bytes memory data, uint256 value, string memory errorMessage) internal returns (bytes memory) {\r... */\n      swap5\n      swap4\n      pop\n      pop\n      pop\n      pop\n      jump\t// out\n        /* \"Farm.sol\":677:1099  function isContract(address account) internal view returns (bool) {\r... */\n    tag_290:\n        /* \"Farm.sol\":737:741  bool */\n      0x00\n        /* \"Farm.sol\":945:957  uint256 size */\n      dup1\n        /* \"Farm.sol\":1056:1063  account */\n      dup3\n        /* \"Farm.sol\":1044:1064  extcodesize(account) */\n      extcodesize\n        /* \"Farm.sol\":1036:1064  size := extcodesize(account) */\n      swap1\n      pop\n        /* \"Farm.sol\":1090:1091  0 */\n      0x00\n        /* \"Farm.sol\":1083:1087  size */\n      dup2\n        /* \"Farm.sol\":1083:1091  size > 0 */\n      gt\n        /* \"Farm.sol\":1076:1091  return size > 0 */\n      swap2\n      pop\n      pop\n        /* \"Farm.sol\":677:1099  function isContract(address account) internal view returns (bool) {\r... */\n      swap2\n      swap1\n      pop\n      jump\t// out\n        /* \"Farm.sol\":6183:6925  function _verifyCallResult(bool success, bytes memory returndata, string memory errorMessage) private pure returns(bytes memory) {\r... */\n    tag_299:\n        /* \"Farm.sol\":6298:6310  bytes memory */\n      0x60\n        /* \"Farm.sol\":6327:6334  success */\n      dup4\n        /* \"Farm.sol\":6323:6918  if (success) {\r... */\n      iszero\n      tag_302\n      jumpi\n        /* \"Farm.sol\":6358:6368  returndata */\n      dup3\n        /* \"Farm.sol\":6351:6368  return returndata */\n      swap1\n      pop\n      jump(tag_301)\n        /* \"Farm.sol\":6323:6918  if (success) {\r... */\n    tag_302:\n        /* \"Farm.sol\":6492:6493  0 */\n      0x00\n        /* \"Farm.sol\":6472:6482  returndata */\n      dup4\n        /* \"Farm.sol\":6472:6489  returndata.length */\n      mload\n        /* \"Farm.sol\":6472:6493  returndata.length > 0 */\n      gt\n        /* \"Farm.sol\":6468:6907  if (returndata.length > 0) {\r... */\n      iszero\n      tag_304\n      jumpi\n        /* \"Farm.sol\":6735:6745  returndata */\n      dup3\n        /* \"Farm.sol\":6729:6746  mload(returndata) */\n      mload\n        /* \"Farm.sol\":6796:6811  returndata_size */\n      dup1\n        /* \"Farm.sol\":6783:6793  returndata */\n      dup5\n        /* \"Farm.sol\":6779:6781  32 */\n      0x20\n        /* \"Farm.sol\":6775:6794  add(32, returndata) */\n      add\n        /* \"Farm.sol\":6768:6812  revert(add(32, returndata), returndata_size) */\n      revert\n        /* \"Farm.sol\":6683:6831  {\r... */\n    tag_304:\n        /* \"Farm.sol\":6878:6890  errorMessage */\n      dup2\n        /* \"Farm.sol\":6871:6891  revert(errorMessage) */\n      mload(0x40)\n      0x08c379a000000000000000000000000000000000000000000000000000000000\n      dup2\n      mstore\n      0x04\n      add\n      dup1\n      dup1\n      0x20\n      add\n      dup3\n      dup2\n      sub\n      dup3\n      mstore\n      dup4\n      dup2\n      dup2\n      mload\n      dup2\n      mstore\n      0x20\n      add\n      swap2\n      pop\n      dup1\n      mload\n      swap1\n      0x20\n      add\n      swap1\n      dup1\n      dup4\n      dup4\n        /* \"--CODEGEN--\":23:24   */\n      0x00\n        /* \"--CODEGEN--\":8:108   */\n    tag_306:\n        /* \"--CODEGEN--\":33:36   */\n      dup4\n        /* \"--CODEGEN--\":30:31   */\n      dup2\n        /* \"--CODEGEN--\":27:37   */\n      lt\n        /* \"--CODEGEN--\":8:108   */\n      iszero\n      tag_308\n      jumpi\n        /* \"--CODEGEN--\":99:100   */\n      dup1\n        /* \"--CODEGEN--\":94:97   */\n      dup3\n        /* \"--CODEGEN--\":90:101   */\n      add\n        /* \"--CODEGEN--\":84:102   */\n      mload\n        /* \"--CODEGEN--\":80:81   */\n      dup2\n        /* \"--CODEGEN--\":75:78   */\n      dup5\n        /* \"--CODEGEN--\":71:82   */\n      add\n        /* \"--CODEGEN--\":64:103   */\n      mstore\n        /* \"--CODEGEN--\":52:54   */\n      0x20\n        /* \"--CODEGEN--\":49:50   */\n      dup2\n        /* \"--CODEGEN--\":45:55   */\n      add\n        /* \"--CODEGEN--\":40:55   */\n      swap1\n      pop\n        /* \"--CODEGEN--\":8:108   */\n      jump(tag_306)\n    tag_308:\n        /* \"--CODEGEN--\":12:26   */\n      pop\n        /* \"Farm.sol\":6871:6891  revert(errorMessage) */\n      pop\n      pop\n      pop\n      swap1\n      pop\n      swap1\n      dup2\n      add\n      swap1\n      0x1f\n      and\n      dup1\n      iszero\n      tag_309\n      jumpi\n      dup1\n      dup3\n      sub\n      dup1\n      mload\n      0x01\n      dup4\n      0x20\n      sub\n      0x0100\n      exp\n      sub\n      not\n      and\n      dup2\n      mstore\n      0x20\n      add\n      swap2\n      pop\n    tag_309:\n      pop\n      swap3\n      pop\n      pop\n      pop\n      mload(0x40)\n      dup1\n      swap2\n      sub\n      swap1\n      revert\n        /* \"Farm.sol\":6183:6925  function _verifyCallResult(bool success, bytes memory returndata, string memory errorMessage) private pure returns(bytes memory) {\r... */\n    tag_301:\n      swap4\n      swap3\n      pop\n      pop\n      pop\n      jump\t// out\n    stop\n    data_07f2725172f5941b576a01ec7036d341e0c837e280f27b110cb3e6fd2f2c4a56 50726576696f7573207265776172647320706572696f64206d75737420626520636f6d706c657465206265666f7265206368616e67696e6720746865206475726174696f6e20666f7220746865206e657720706572696f64\n    data_245f15ff17f551913a7a18385165551503906a406f905ac1c2437281a7cd0cfe 4f776e61626c653a206e6577206f776e657220697320746865207a65726f2061646472657373\n    data_33e46392ca158ea5df202f3e8f1c6352c18f8d558a7b2ee13297c86b0124b24b 43616e6e6f7420776974686472617720746865207265776172647320746f6b656e73\n    data_565f1a77334fc4792800921178c71e4521acffab18ff9e7885b49377ee80ab4c 416464726573733a20696e73756666696369656e742062616c616e636520666f722063616c6c\n    data_9113bb53c2876a3805b2c9242029423fc540a728243ce887ab24c82cf119fba3 536166654d6174683a206d756c7469706c69636174696f6e206f766572666c6f77\n    data_af0c9f96e3436322e9da29c326b11e6accd66534db56878361aecdeda5c8936f 43616e6e6f7420776974686472617720746865207374616b696e6720746f6b656e73\n    data_e11ad79d1e4a7f2e5f376964cb99e8e8f7904e3fc16a109f7a7ecb9aa7956dcd 5361666545524332303a204552433230206f7065726174696f6e20646964206e6f742073756363656564\n\n    auxdata: 0xa2646970667358221220095d2e53cd44f3eb4dd193c377e249b63474d704c8b46bc4b2686394e872dfde64736f6c63430006080033\n}\n",
				"bytecode": {
					"linkReferences": {},
					"object": "6080604052600060045560006005553480156200001b57600080fd5b506040516200312538038062003125833981810160405260808110156200004157600080fd5b810190808051906020019092919080519060200190929190805190602001909291908051906020019092919050505060016000819055506000600160006101000a81548160ff0219169083151502179055506000620000a5620001ef60201b60201c565b9050806001806101000a81548173ffffffffffffffffffffffffffffffffffffffff021916908373ffffffffffffffffffffffffffffffffffffffff1602179055508073ffffffffffffffffffffffffffffffffffffffff16600073ffffffffffffffffffffffffffffffffffffffff167f8be0079c531659141344cd1fd0a4f28419497f9722a3daafe3b4186f6b6457e060405160405180910390a35062000156600a82620001f760201b60201c565b60098190555083600260006101000a81548173ffffffffffffffffffffffffffffffffffffffff021916908373ffffffffffffffffffffffffffffffffffffffff16021790555082600360006101000a81548173ffffffffffffffffffffffffffffffffffffffff021916908373ffffffffffffffffffffffffffffffffffffffff160217905550816006819055505050505062000577565b600033905090565b6000808214156200020c5760019050620002b1565b60018214156200021f57829050620002b1565b60006200024d8462000241600286620002b760201b620020a51790919060201c565b620001f760201b60201c565b90506200026981826200030960201b620020ef1790919060201c565b90506001620002886002856200039460201b620021751790919060201c565b1415620002ac57620002a984826200030960201b620020ef1790919060201c565b90505b809150505b92915050565b60006200030183836040518060400160405280601a81526020017f536166654d6174683a206469766973696f6e206279207a65726f000000000000815250620003e660201b60201c565b905092915050565b6000808314156200031e57600090506200038e565b60008284029050828482816200033057fe5b041462000389576040517f08c379a0000000000000000000000000000000000000000000000000000000008152600401808060200182810382526021815260200180620031046021913960400191505060405180910390fd5b809150505b92915050565b6000620003de83836040518060400160405280601881526020017f536166654d6174683a206d6f64756c6f206279207a65726f0000000000000000815250620004b160201b60201c565b905092915050565b6000808311829062000496576040517f08c379a00000000000000000000000000000000000000000000000000000000081526004018080602001828103825283818151815260200191508051906020019080838360005b838110156200045a5780820151818401526020810190506200043d565b50505050905090810190601f168015620004885780820380516001836020036101000a031916815260200191505b509250505060405180910390fd5b506000838581620004a357fe5b049050809150509392505050565b600080831415829062000562576040517f08c379a00000000000000000000000000000000000000000000000000000000081526004018080602001828103825283818151815260200191508051906020019080838360005b838110156200052657808201518184015260208101905062000509565b50505050905090810190601f168015620005545780820380516001836020036101000a031916815260200191505b509250505060405180910390fd5b508284816200056d57fe5b0690509392505050565b612b7d80620005876000396000f3fe608060405234801561001057600080fd5b50600436106101ce5760003560e01c80637b0a47ee11610104578063c8f33c91116100a2578063df136d6511610071578063df136d65146106d5578063e9fad8ee146106f3578063ebe2b12b146106fd578063f2fde38b1461071b576101ce565b8063c8f33c9114610621578063cc1a378f1461063f578063cd3daf9d1461066d578063d1af0c7d1461068b576101ce565b80638b876347116100de5780638b876347146105335780638da5cb5b1461058b578063a694fc3a146105d5578063a85fe3b714610603576101ce565b80637b0a47ee146104a957806380faa57d146104c75780638980f11f146104e5576101ce565b80633c6b16ab1161017157806370a082311161014b57806370a08231146103b1578063715018a61461040957806372f702f3146104135780637ae2b5c71461045d576101ce565b80633c6b16ab146103575780633d18b912146103855780635c975abb1461038f576101ce565b80631c1f78eb116101ad5780631c1f78eb146102a15780632e1a7d4d146102bf5780632e4c697f146102ed578063386a952514610339576101ce565b80628cc262146101d35780630700037d1461022b57806318160ddd14610283575b600080fd5b610215600480360360208110156101e957600080fd5b81019080803573ffffffffffffffffffffffffffffffffffffffff16906020019092919050505061075f565b6040518082815260200191505060405180910390f35b61026d6004803603602081101561024157600080fd5b81019080803573ffffffffffffffffffffffffffffffffffffffff169060200190929190505050610877565b6040518082815260200191505060405180910390f35b61028b61088f565b6040518082815260200191505060405180910390f35b6102a9610899565b6040518082815260200191505060405180910390f35b6102eb600480360360208110156102d557600080fd5b81019080803590602001909291905050506108b7565b005b6103236004803603604081101561030357600080fd5b810190808035906020019092919080359060200190929190505050610be9565b6040518082815260200191505060405180910390f35b610341610c80565b6040518082815260200191505060405180910390f35b6103836004803603602081101561036d57600080fd5b8101908080359060200190929190505050610c86565b005b61038d611087565b005b610397611326565b604051808215151515815260200191505060405180910390f35b6103f3600480360360208110156103c757600080fd5b81019080803573ffffffffffffffffffffffffffffffffffffffff16906020019092919050505061133d565b6040518082815260200191505060405180910390f35b610411611386565b005b61041b61150e565b604051808273ffffffffffffffffffffffffffffffffffffffff1673ffffffffffffffffffffffffffffffffffffffff16815260200191505060405180910390f35b6104936004803603604081101561047357600080fd5b810190808035906020019092919080359060200190929190505050611534565b6040518082815260200191505060405180910390f35b6104b161154d565b6040518082815260200191505060405180910390f35b6104cf611553565b6040518082815260200191505060405180910390f35b610531600480360360408110156104fb57600080fd5b81019080803573ffffffffffffffffffffffffffffffffffffffff16906020019092919080359060200190929190505050611566565b005b6105756004803603602081101561054957600080fd5b81019080803573ffffffffffffffffffffffffffffffffffffffff169060200190929190505050611822565b6040518082815260200191505060405180910390f35b61059361183a565b604051808273ffffffffffffffffffffffffffffffffffffffff1673ffffffffffffffffffffffffffffffffffffffff16815260200191505060405180910390f35b610601600480360360208110156105eb57600080fd5b8101908080359060200190929190505050611863565b005b61060b611c1a565b6040518082815260200191505060405180910390f35b610629611c20565b6040518082815260200191505060405180910390f35b61066b6004803603602081101561065557600080fd5b8101908080359060200190929190505050611c26565b005b610675611d8c565b6040518082815260200191505060405180910390f35b610693611e14565b604051808273ffffffffffffffffffffffffffffffffffffffff1673ffffffffffffffffffffffffffffffffffffffff16815260200191505060405180910390f35b6106dd611e3a565b6040518082815260200191505060405180910390f35b6106fb611e40565b005b610705611e92565b6040518082815260200191505060405180910390f35b61075d6004803603602081101561073157600080fd5b81019080803573ffffffffffffffffffffffffffffffffffffffff169060200190929190505050611e98565b005b6000610870600c60008473ffffffffffffffffffffffffffffffffffffffff1673ffffffffffffffffffffffffffffffffffffffff16815260200190815260200160002054610862600954610854610806600b60008973ffffffffffffffffffffffffffffffffffffffff1673ffffffffffffffffffffffffffffffffffffffff168152602001908152602001600020546107f8611d8c565b6121bf90919063ffffffff16565b600e60008973ffffffffffffffffffffffffffffffffffffffff1673ffffffffffffffffffffffffffffffffffffffff168152602001908152602001600020546120ef90919063ffffffff16565b6120a590919063ffffffff16565b61220990919063ffffffff16565b9050919050565b600c6020528060005260406000206000915090505481565b6000600d54905090565b60006108b26006546005546120ef90919063ffffffff16565b905090565b60026000541415610930576040517f08c379a000000000000000000000000000000000000000000000000000000000815260040180806020018281038252601f8152602001807f5265656e7472616e637947756172643a207265656e7472616e742063616c6c0081525060200191505060405180910390fd5b600260008190555033610941611d8c565b60088190555061094f611553565b600781905550600073ffffffffffffffffffffffffffffffffffffffff168173ffffffffffffffffffffffffffffffffffffffff1614610a1c576109928161075f565b600c60008373ffffffffffffffffffffffffffffffffffffffff1673ffffffffffffffffffffffffffffffffffffffff16815260200190815260200160002081905550600854600b60008373ffffffffffffffffffffffffffffffffffffffff1673ffffffffffffffffffffffffffffffffffffffff168152602001908152602001600020819055505b60008211610a92576040517f08c379a00000000000000000000000000000000000000000000000000000000081526004018080602001828103825260118152602001807f43616e6e6f74207769746864726177203000000000000000000000000000000081525060200191505060405180910390fd5b610aa782600d546121bf90919063ffffffff16565b600d81905550610aff82600e60003373ffffffffffffffffffffffffffffffffffffffff1673ffffffffffffffffffffffffffffffffffffffff168152602001908152602001600020546121bf90919063ffffffff16565b600e60003373ffffffffffffffffffffffffffffffffffffffff1673ffffffffffffffffffffffffffffffffffffffff16815260200190815260200160002081905550610b8f3383600360009054906101000a900473ffffffffffffffffffffffffffffffffffffffff1673ffffffffffffffffffffffffffffffffffffffff166122919092919063ffffffff16565b3373ffffffffffffffffffffffffffffffffffffffff167f7084f5476618d8e60b11ef0d7d3f06914655adb8793e28ff7f018d4c76d505d5836040518082815260200191505060405180910390a250600160008190555050565b600080821415610bfc5760019050610c7a565b6001821415610c0d57829050610c7a565b6000610c2c84610c276002866120a590919063ffffffff16565b610be9565b9050610c4181826120ef90919063ffffffff16565b90506001610c5960028561217590919063ffffffff16565b1415610c7557610c7284826120ef90919063ffffffff16565b90505b809150505b92915050565b60065481565b610c8e612349565b73ffffffffffffffffffffffffffffffffffffffff166001809054906101000a900473ffffffffffffffffffffffffffffffffffffffff1673ffffffffffffffffffffffffffffffffffffffff1614610d4f576040517f08c379a00000000000000000000000000000000000000000000000000000000081526004018080602001828103825260208152602001807f4f776e61626c653a2063616c6c6572206973206e6f7420746865206f776e657281525060200191505060405180910390fd5b6000610d59611d8c565b600881905550610d67611553565b600781905550600073ffffffffffffffffffffffffffffffffffffffff168173ffffffffffffffffffffffffffffffffffffffff1614610e3457610daa8161075f565b600c60008373ffffffffffffffffffffffffffffffffffffffff1673ffffffffffffffffffffffffffffffffffffffff16815260200190815260200160002081905550600854600b60008373ffffffffffffffffffffffffffffffffffffffff1673ffffffffffffffffffffffffffffffffffffffff168152602001908152602001600020819055505b6004544210610e5d57610e52600654836120a590919063ffffffff16565b600581905550610ebf565b6000610e74426004546121bf90919063ffffffff16565b90506000610e8d600554836120ef90919063ffffffff16565b9050610eb6600654610ea8838761220990919063ffffffff16565b6120a590919063ffffffff16565b60058190555050505b6000600260009054906101000a900473ffffffffffffffffffffffffffffffffffffffff1673ffffffffffffffffffffffffffffffffffffffff166370a08231306040518263ffffffff1660e01b8152600401808273ffffffffffffffffffffffffffffffffffffffff1673ffffffffffffffffffffffffffffffffffffffff16815260200191505060206040518083038186803b158015610f6057600080fd5b505afa158015610f74573d6000803e3d6000fd5b505050506040513d6020811015610f8a57600080fd5b81019080805190602001909291905050509050610fb2600654826120a590919063ffffffff16565b6005541115611029576040517f08c379a00000000000000000000000000000000000000000000000000000000081526004018080602001828103825260188152602001807f50726f76696465642072657761726420746f6f2068696768000000000000000081525060200191505060405180910390fd5b426007819055506110456006544261220990919063ffffffff16565b6004819055507fde88a922e0d3b88b24e9623efeb464919c6bf9f66857a65e2bfcf2ce87a9433d836040518082815260200191505060405180910390a1505050565b60026000541415611100576040517f08c379a000000000000000000000000000000000000000000000000000000000815260040180806020018281038252601f8152602001807f5265656e7472616e637947756172643a207265656e7472616e742063616c6c0081525060200191505060405180910390fd5b600260008190555033611111611d8c565b60088190555061111f611553565b600781905550600073ffffffffffffffffffffffffffffffffffffffff168173ffffffffffffffffffffffffffffffffffffffff16146111ec576111628161075f565b600c60008373ffffffffffffffffffffffffffffffffffffffff1673ffffffffffffffffffffffffffffffffffffffff16815260200190815260200160002081905550600854600b60008373ffffffffffffffffffffffffffffffffffffffff1673ffffffffffffffffffffffffffffffffffffffff168152602001908152602001600020819055505b6000600c60003373ffffffffffffffffffffffffffffffffffffffff1673ffffffffffffffffffffffffffffffffffffffff168152602001908152602001600020549050600081111561131a576000600c60003373ffffffffffffffffffffffffffffffffffffffff1673ffffffffffffffffffffffffffffffffffffffff168152602001908152602001600020819055506112cb3382600260009054906101000a900473ffffffffffffffffffffffffffffffffffffffff1673ffffffffffffffffffffffffffffffffffffffff166122919092919063ffffffff16565b3373ffffffffffffffffffffffffffffffffffffffff167fe2403640ba68fed3a2f88b7557551d1993f84b99bb10ff833f0cf8db0c5e0486826040518082815260200191505060405180910390a25b50506001600081905550565b6000600160009054906101000a900460ff16905090565b6000600e60008373ffffffffffffffffffffffffffffffffffffffff1673ffffffffffffffffffffffffffffffffffffffff168152602001908152602001600020549050919050565b61138e612349565b73ffffffffffffffffffffffffffffffffffffffff166001809054906101000a900473ffffffffffffffffffffffffffffffffffffffff1673ffffffffffffffffffffffffffffffffffffffff161461144f576040517f08c379a00000000000000000000000000000000000000000000000000000000081526004018080602001828103825260208152602001807f4f776e61626c653a2063616c6c6572206973206e6f7420746865206f776e657281525060200191505060405180910390fd5b600073ffffffffffffffffffffffffffffffffffffffff166001809054906101000a900473ffffffffffffffffffffffffffffffffffffffff1673ffffffffffffffffffffffffffffffffffffffff167f8be0079c531659141344cd1fd0a4f28419497f9722a3daafe3b4186f6b6457e060405160405180910390a360006001806101000a81548173ffffffffffffffffffffffffffffffffffffffff021916908373ffffffffffffffffffffffffffffffffffffffff160217905550565b600360009054906101000a900473ffffffffffffffffffffffffffffffffffffffff1681565b60008183106115435781611545565b825b905092915050565b60055481565b600061156142600454611534565b905090565b61156e612349565b73ffffffffffffffffffffffffffffffffffffffff166001809054906101000a900473ffffffffffffffffffffffffffffffffffffffff1673ffffffffffffffffffffffffffffffffffffffff161461162f576040517f08c379a00000000000000000000000000000000000000000000000000000000081526004018080602001828103825260208152602001807f4f776e61626c653a2063616c6c6572206973206e6f7420746865206f776e657281525060200191505060405180910390fd5b600260009054906101000a900473ffffffffffffffffffffffffffffffffffffffff1673ffffffffffffffffffffffffffffffffffffffff168273ffffffffffffffffffffffffffffffffffffffff1614156116d6576040517f08c379a0000000000000000000000000000000000000000000000000000000008152600401808060200182810382526022815260200180612a936022913960400191505060405180910390fd5b6000600d541461178857600360009054906101000a900473ffffffffffffffffffffffffffffffffffffffff1673ffffffffffffffffffffffffffffffffffffffff168273ffffffffffffffffffffffffffffffffffffffff161415611787576040517f08c379a0000000000000000000000000000000000000000000000000000000008152600401808060200182810382526022815260200180612afc6022913960400191505060405180910390fd5b5b6117b333828473ffffffffffffffffffffffffffffffffffffffff166122919092919063ffffffff16565b7f8c1256b8896378cd5044f80c202f9772b9d77dc85c8a6eb51967210b09bfaa288282604051808373ffffffffffffffffffffffffffffffffffffffff1673ffffffffffffffffffffffffffffffffffffffff1681526020018281526020019250505060405180910390a15050565b600b6020528060005260406000206000915090505481565b60006001809054906101000a900473ffffffffffffffffffffffffffffffffffffffff16905090565b600260005414156118dc576040517f08c379a000000000000000000000000000000000000000000000000000000000815260040180806020018281038252601f8152602001807f5265656e7472616e637947756172643a207265656e7472616e742063616c6c0081525060200191505060405180910390fd5b6002600081905550600160009054906101000a900460ff1615611967576040517f08c379a00000000000000000000000000000000000000000000000000000000081526004018080602001828103825260108152602001807f5061757361626c653a207061757365640000000000000000000000000000000081525060200191505060405180910390fd5b33611970611d8c565b60088190555061197e611553565b600781905550600073ffffffffffffffffffffffffffffffffffffffff168173ffffffffffffffffffffffffffffffffffffffff1614611a4b576119c18161075f565b600c60008373ffffffffffffffffffffffffffffffffffffffff1673ffffffffffffffffffffffffffffffffffffffff16815260200190815260200160002081905550600854600b60008373ffffffffffffffffffffffffffffffffffffffff1673ffffffffffffffffffffffffffffffffffffffff168152602001908152602001600020819055505b60008211611ac1576040517f08c379a000000000000000000000000000000000000000000000000000000000815260040180806020018281038252600e8152602001807f43616e6e6f74207374616b65203000000000000000000000000000000000000081525060200191505060405180910390fd5b611ad682600d5461220990919063ffffffff16565b600d81905550611b2e82600e60003373ffffffffffffffffffffffffffffffffffffffff1673ffffffffffffffffffffffffffffffffffffffff1681526020019081526020016000205461220990919063ffffffff16565b600e60003373ffffffffffffffffffffffffffffffffffffffff1673ffffffffffffffffffffffffffffffffffffffff16815260200190815260200160002081905550611bc0333084600360009054906101000a900473ffffffffffffffffffffffffffffffffffffffff1673ffffffffffffffffffffffffffffffffffffffff16612351909392919063ffffffff16565b3373ffffffffffffffffffffffffffffffffffffffff167f9e71bc8eea02a63969f509818f2dafb9254532904319f9dbda79b67bd34a5f3d836040518082815260200191505060405180910390a250600160008190555050565b60095481565b60075481565b611c2e612349565b73ffffffffffffffffffffffffffffffffffffffff166001809054906101000a900473ffffffffffffffffffffffffffffffffffffffff1673ffffffffffffffffffffffffffffffffffffffff1614611cef576040517f08c379a00000000000000000000000000000000000000000000000000000000081526004018080602001828103825260208152602001807f4f776e61626c653a2063616c6c6572206973206e6f7420746865206f776e657281525060200191505060405180910390fd5b6004544211611d49576040517f08c379a0000000000000000000000000000000000000000000000000000000008152600401808060200182810382526058815260200180612a156058913960600191505060405180910390fd5b806006819055507ffb46ca5a5e06d4540d6387b930a7c978bce0db5f449ec6b3f5d07c6e1d44f2d36006546040518082815260200191505060405180910390a150565b600080600d541415611da2576008549050611e11565b611e0e611dfd600d54611def600954611de1600554611dd3600754611dc5611553565b6121bf90919063ffffffff16565b6120ef90919063ffffffff16565b6120ef90919063ffffffff16565b6120a590919063ffffffff16565b60085461220990919063ffffffff16565b90505b90565b600260009054906101000a900473ffffffffffffffffffffffffffffffffffffffff1681565b60085481565b611e88600e60003373ffffffffffffffffffffffffffffffffffffffff1673ffffffffffffffffffffffffffffffffffffffff168152602001908152602001600020546108b7565b611e90611087565b565b60045481565b611ea0612349565b73ffffffffffffffffffffffffffffffffffffffff166001809054906101000a900473ffffffffffffffffffffffffffffffffffffffff1673ffffffffffffffffffffffffffffffffffffffff1614611f61576040517f08c379a00000000000000000000000000000000000000000000000000000000081526004018080602001828103825260208152602001807f4f776e61626c653a2063616c6c6572206973206e6f7420746865206f776e657281525060200191505060405180910390fd5b600073ffffffffffffffffffffffffffffffffffffffff168173ffffffffffffffffffffffffffffffffffffffff161415611fe7576040517f08c379a0000000000000000000000000000000000000000000000000000000008152600401808060200182810382526026815260200180612a6d6026913960400191505060405180910390fd5b8073ffffffffffffffffffffffffffffffffffffffff166001809054906101000a900473ffffffffffffffffffffffffffffffffffffffff1673ffffffffffffffffffffffffffffffffffffffff167f8be0079c531659141344cd1fd0a4f28419497f9722a3daafe3b4186f6b6457e060405160405180910390a3806001806101000a81548173ffffffffffffffffffffffffffffffffffffffff021916908373ffffffffffffffffffffffffffffffffffffffff16021790555050565b60006120e783836040518060400160405280601a81526020017f536166654d6174683a206469766973696f6e206279207a65726f00000000000081525061243e565b905092915050565b600080831415612102576000905061216f565b600082840290508284828161211357fe5b041461216a576040517f08c379a0000000000000000000000000000000000000000000000000000000008152600401808060200182810382526021815260200180612adb6021913960400191505060405180910390fd5b809150505b92915050565b60006121b783836040518060400160405280601881526020017f536166654d6174683a206d6f64756c6f206279207a65726f0000000000000000815250612504565b905092915050565b600061220183836040518060400160405280601e81526020017f536166654d6174683a207375627472616374696f6e206f766572666c6f7700008152506125c5565b905092915050565b600080828401905083811015612287576040517f08c379a000000000000000000000000000000000000000000000000000000000815260040180806020018281038252601b8152602001807f536166654d6174683a206164646974696f6e206f766572666c6f77000000000081525060200191505060405180910390fd5b8091505092915050565b6123448363a9059cbb60e01b8484604051602401808373ffffffffffffffffffffffffffffffffffffffff1673ffffffffffffffffffffffffffffffffffffffff16815260200182815260200192505050604051602081830303815290604052907bffffffffffffffffffffffffffffffffffffffffffffffffffffffff19166020820180517bffffffffffffffffffffffffffffffffffffffffffffffffffffffff8381831617835250505050612685565b505050565b600033905090565b612438846323b872dd60e01b858585604051602401808473ffffffffffffffffffffffffffffffffffffffff1673ffffffffffffffffffffffffffffffffffffffff1681526020018373ffffffffffffffffffffffffffffffffffffffff1673ffffffffffffffffffffffffffffffffffffffff1681526020018281526020019350505050604051602081830303815290604052907bffffffffffffffffffffffffffffffffffffffffffffffffffffffff19166020820180517bffffffffffffffffffffffffffffffffffffffffffffffffffffffff8381831617835250505050612685565b50505050565b600080831182906124ea576040517f08c379a00000000000000000000000000000000000000000000000000000000081526004018080602001828103825283818151815260200191508051906020019080838360005b838110156124af578082015181840152602081019050612494565b50505050905090810190601f1680156124dc5780820380516001836020036101000a031916815260200191505b509250505060405180910390fd5b5060008385816124f657fe5b049050809150509392505050565b60008083141582906125b1576040517f08c379a00000000000000000000000000000000000000000000000000000000081526004018080602001828103825283818151815260200191508051906020019080838360005b8381101561257657808201518184015260208101905061255b565b50505050905090810190601f1680156125a35780820380516001836020036101000a031916815260200191505b509250505060405180910390fd5b508284816125bb57fe5b0690509392505050565b6000838311158290612672576040517f08c379a00000000000000000000000000000000000000000000000000000000081526004018080602001828103825283818151815260200191508051906020019080838360005b8381101561263757808201518184015260208101905061261c565b50505050905090810190601f1680156126645780820380516001836020036101000a031916815260200191505b509250505060405180910390fd5b5060008385039050809150509392505050565b60606126e7826040518060400160405280602081526020017f5361666545524332303a206c6f772d6c6576656c2063616c6c206661696c65648152508573ffffffffffffffffffffffffffffffffffffffff166127749092919063ffffffff16565b905060008151111561276f5780806020019051602081101561270857600080fd5b810190808051906020019092919050505061276e576040517f08c379a000000000000000000000000000000000000000000000000000000000815260040180806020018281038252602a815260200180612b1e602a913960400191505060405180910390fd5b5b505050565b6060612783848460008561278c565b90509392505050565b6060824710156127e7576040517f08c379a0000000000000000000000000000000000000000000000000000000008152600401808060200182810382526026815260200180612ab56026913960400191505060405180910390fd5b6127f085612935565b612862576040517f08c379a000000000000000000000000000000000000000000000000000000000815260040180806020018281038252601d8152602001807f416464726573733a2063616c6c20746f206e6f6e2d636f6e747261637400000081525060200191505060405180910390fd5b600060608673ffffffffffffffffffffffffffffffffffffffff1685876040518082805190602001908083835b602083106128b2578051825260208201915060208101905060208303925061288f565b6001836020036101000a03801982511681845116808217855250505050505090500191505060006040518083038185875af1925050503d8060008114612914576040519150601f19603f3d011682016040523d82523d6000602084013e612919565b606091505b5091509150612929828286612948565b92505050949350505050565b600080823b905060008111915050919050565b6060831561295857829050612a0d565b60008351111561296b5782518084602001fd5b816040517f08c379a00000000000000000000000000000000000000000000000000000000081526004018080602001828103825283818151815260200191508051906020019080838360005b838110156129d25780820151818401526020810190506129b7565b50505050905090810190601f1680156129ff5780820380516001836020036101000a031916815260200191505b509250505060405180910390fd5b939250505056fe50726576696f7573207265776172647320706572696f64206d75737420626520636f6d706c657465206265666f7265206368616e67696e6720746865206475726174696f6e20666f7220746865206e657720706572696f644f776e61626c653a206e6577206f776e657220697320746865207a65726f206164647265737343616e6e6f7420776974686472617720746865207265776172647320746f6b656e73416464726573733a20696e73756666696369656e742062616c616e636520666f722063616c6c536166654d6174683a206d756c7469706c69636174696f6e206f766572666c6f7743616e6e6f7420776974686472617720746865207374616b696e6720746f6b656e735361666545524332303a204552433230206f7065726174696f6e20646964206e6f742073756363656564a2646970667358221220095d2e53cd44f3eb4dd193c377e249b63474d704c8b46bc4b2686394e872dfde64736f6c63430006080033536166654d6174683a206d756c7469706c69636174696f6e206f766572666c6f77",
					"opcodes": "PUSH1 0x80 PUSH1 0x40 MSTORE PUSH1 0x0 PUSH1 0x4 SSTORE PUSH1 0x0 PUSH1 0x5 SSTORE CALLVALUE DUP1 ISZERO PUSH3 0x1B JUMPI PUSH1 0x0 DUP1 REVERT JUMPDEST POP PUSH1 0x40 MLOAD PUSH3 0x3125 CODESIZE SUB DUP1 PUSH3 0x3125 DUP4 CODECOPY DUP2 DUP2 ADD PUSH1 0x40 MSTORE PUSH1 0x80 DUP2 LT ISZERO PUSH3 0x41 JUMPI PUSH1 0x0 DUP1 REVERT JUMPDEST DUP2 ADD SWAP1 DUP1 DUP1 MLOAD SWAP1 PUSH1 0x20 ADD SWAP1 SWAP3 SWAP2 SWAP1 DUP1 MLOAD SWAP1 PUSH1 0x20 ADD SWAP1 SWAP3 SWAP2 SWAP1 DUP1 MLOAD SWAP1 PUSH1 0x20 ADD SWAP1 SWAP3 SWAP2 SWAP1 DUP1 MLOAD SWAP1 PUSH1 0x20 ADD SWAP1 SWAP3 SWAP2 SWAP1 POP POP POP PUSH1 0x1 PUSH1 0x0 DUP2 SWAP1 SSTORE POP PUSH1 0x0 PUSH1 0x1 PUSH1 0x0 PUSH2 0x100 EXP DUP2 SLOAD DUP2 PUSH1 0xFF MUL NOT AND SWAP1 DUP4 ISZERO ISZERO MUL OR SWAP1 SSTORE POP PUSH1 0x0 PUSH3 0xA5 PUSH3 0x1EF PUSH1 0x20 SHL PUSH1 0x20 SHR JUMP JUMPDEST SWAP1 POP DUP1 PUSH1 0x1 DUP1 PUSH2 0x100 EXP DUP2 SLOAD DUP2 PUSH20 0xFFFFFFFFFFFFFFFFFFFFFFFFFFFFFFFFFFFFFFFF MUL NOT AND SWAP1 DUP4 PUSH20 0xFFFFFFFFFFFFFFFFFFFFFFFFFFFFFFFFFFFFFFFF AND MUL OR SWAP1 SSTORE POP DUP1 PUSH20 0xFFFFFFFFFFFFFFFFFFFFFFFFFFFFFFFFFFFFFFFF AND PUSH1 0x0 PUSH20 0xFFFFFFFFFFFFFFFFFFFFFFFFFFFFFFFFFFFFFFFF AND PUSH32 0x8BE0079C531659141344CD1FD0A4F28419497F9722A3DAAFE3B4186F6B6457E0 PUSH1 0x40 MLOAD PUSH1 0x40 MLOAD DUP1 SWAP2 SUB SWAP1 LOG3 POP PUSH3 0x156 PUSH1 0xA DUP3 PUSH3 0x1F7 PUSH1 0x20 SHL PUSH1 0x20 SHR JUMP JUMPDEST PUSH1 0x9 DUP2 SWAP1 SSTORE POP DUP4 PUSH1 0x2 PUSH1 0x0 PUSH2 0x100 EXP DUP2 SLOAD DUP2 PUSH20 0xFFFFFFFFFFFFFFFFFFFFFFFFFFFFFFFFFFFFFFFF MUL NOT AND SWAP1 DUP4 PUSH20 0xFFFFFFFFFFFFFFFFFFFFFFFFFFFFFFFFFFFFFFFF AND MUL OR SWAP1 SSTORE POP DUP3 PUSH1 0x3 PUSH1 0x0 PUSH2 0x100 EXP DUP2 SLOAD DUP2 PUSH20 0xFFFFFFFFFFFFFFFFFFFFFFFFFFFFFFFFFFFFFFFF MUL NOT AND SWAP1 DUP4 PUSH20 0xFFFFFFFFFFFFFFFFFFFFFFFFFFFFFFFFFFFFFFFF AND MUL OR SWAP1 SSTORE POP DUP2 PUSH1 0x6 DUP2 SWAP1 SSTORE POP POP POP POP POP PUSH3 0x577 JUMP JUMPDEST PUSH1 0x0 CALLER SWAP1 POP SWAP1 JUMP JUMPDEST PUSH1 0x0 DUP1 DUP3 EQ ISZERO PUSH3 0x20C JUMPI PUSH1 0x1 SWAP1 POP PUSH3 0x2B1 JUMP JUMPDEST PUSH1 0x1 DUP3 EQ ISZERO PUSH3 0x21F JUMPI DUP3 SWAP1 POP PUSH3 0x2B1 JUMP JUMPDEST PUSH1 0x0 PUSH3 0x24D DUP5 PUSH3 0x241 PUSH1 0x2 DUP7 PUSH3 0x2B7 PUSH1 0x20 SHL PUSH3 0x20A5 OR SWAP1 SWAP2 SWAP1 PUSH1 0x20 SHR JUMP JUMPDEST PUSH3 0x1F7 PUSH1 0x20 SHL PUSH1 0x20 SHR JUMP JUMPDEST SWAP1 POP PUSH3 0x269 DUP2 DUP3 PUSH3 0x309 PUSH1 0x20 SHL PUSH3 0x20EF OR SWAP1 SWAP2 SWAP1 PUSH1 0x20 SHR JUMP JUMPDEST SWAP1 POP PUSH1 0x1 PUSH3 0x288 PUSH1 0x2 DUP6 PUSH3 0x394 PUSH1 0x20 SHL PUSH3 0x2175 OR SWAP1 SWAP2 SWAP1 PUSH1 0x20 SHR JUMP JUMPDEST EQ ISZERO PUSH3 0x2AC JUMPI PUSH3 0x2A9 DUP5 DUP3 PUSH3 0x309 PUSH1 0x20 SHL PUSH3 0x20EF OR SWAP1 SWAP2 SWAP1 PUSH1 0x20 SHR JUMP JUMPDEST SWAP1 POP JUMPDEST DUP1 SWAP2 POP POP JUMPDEST SWAP3 SWAP2 POP POP JUMP JUMPDEST PUSH1 0x0 PUSH3 0x301 DUP4 DUP4 PUSH1 0x40 MLOAD DUP1 PUSH1 0x40 ADD PUSH1 0x40 MSTORE DUP1 PUSH1 0x1A DUP2 MSTORE PUSH1 0x20 ADD PUSH32 0x536166654D6174683A206469766973696F6E206279207A65726F000000000000 DUP2 MSTORE POP PUSH3 0x3E6 PUSH1 0x20 SHL PUSH1 0x20 SHR JUMP JUMPDEST SWAP1 POP SWAP3 SWAP2 POP POP JUMP JUMPDEST PUSH1 0x0 DUP1 DUP4 EQ ISZERO PUSH3 0x31E JUMPI PUSH1 0x0 SWAP1 POP PUSH3 0x38E JUMP JUMPDEST PUSH1 0x0 DUP3 DUP5 MUL SWAP1 POP DUP3 DUP5 DUP3 DUP2 PUSH3 0x330 JUMPI INVALID JUMPDEST DIV EQ PUSH3 0x389 JUMPI PUSH1 0x40 MLOAD PUSH32 0x8C379A000000000000000000000000000000000000000000000000000000000 DUP2 MSTORE PUSH1 0x4 ADD DUP1 DUP1 PUSH1 0x20 ADD DUP3 DUP2 SUB DUP3 MSTORE PUSH1 0x21 DUP2 MSTORE PUSH1 0x20 ADD DUP1 PUSH3 0x3104 PUSH1 0x21 SWAP2 CODECOPY PUSH1 0x40 ADD SWAP2 POP POP PUSH1 0x40 MLOAD DUP1 SWAP2 SUB SWAP1 REVERT JUMPDEST DUP1 SWAP2 POP POP JUMPDEST SWAP3 SWAP2 POP POP JUMP JUMPDEST PUSH1 0x0 PUSH3 0x3DE DUP4 DUP4 PUSH1 0x40 MLOAD DUP1 PUSH1 0x40 ADD PUSH1 0x40 MSTORE DUP1 PUSH1 0x18 DUP2 MSTORE PUSH1 0x20 ADD PUSH32 0x536166654D6174683A206D6F64756C6F206279207A65726F0000000000000000 DUP2 MSTORE POP PUSH3 0x4B1 PUSH1 0x20 SHL PUSH1 0x20 SHR JUMP JUMPDEST SWAP1 POP SWAP3 SWAP2 POP POP JUMP JUMPDEST PUSH1 0x0 DUP1 DUP4 GT DUP3 SWAP1 PUSH3 0x496 JUMPI PUSH1 0x40 MLOAD PUSH32 0x8C379A000000000000000000000000000000000000000000000000000000000 DUP2 MSTORE PUSH1 0x4 ADD DUP1 DUP1 PUSH1 0x20 ADD DUP3 DUP2 SUB DUP3 MSTORE DUP4 DUP2 DUP2 MLOAD DUP2 MSTORE PUSH1 0x20 ADD SWAP2 POP DUP1 MLOAD SWAP1 PUSH1 0x20 ADD SWAP1 DUP1 DUP4 DUP4 PUSH1 0x0 JUMPDEST DUP4 DUP2 LT ISZERO PUSH3 0x45A JUMPI DUP1 DUP3 ADD MLOAD DUP2 DUP5 ADD MSTORE PUSH1 0x20 DUP2 ADD SWAP1 POP PUSH3 0x43D JUMP JUMPDEST POP POP POP POP SWAP1 POP SWAP1 DUP2 ADD SWAP1 PUSH1 0x1F AND DUP1 ISZERO PUSH3 0x488 JUMPI DUP1 DUP3 SUB DUP1 MLOAD PUSH1 0x1 DUP4 PUSH1 0x20 SUB PUSH2 0x100 EXP SUB NOT AND DUP2 MSTORE PUSH1 0x20 ADD SWAP2 POP JUMPDEST POP SWAP3 POP POP POP PUSH1 0x40 MLOAD DUP1 SWAP2 SUB SWAP1 REVERT JUMPDEST POP PUSH1 0x0 DUP4 DUP6 DUP2 PUSH3 0x4A3 JUMPI INVALID JUMPDEST DIV SWAP1 POP DUP1 SWAP2 POP POP SWAP4 SWAP3 POP POP POP JUMP JUMPDEST PUSH1 0x0 DUP1 DUP4 EQ ISZERO DUP3 SWAP1 PUSH3 0x562 JUMPI PUSH1 0x40 MLOAD PUSH32 0x8C379A000000000000000000000000000000000000000000000000000000000 DUP2 MSTORE PUSH1 0x4 ADD DUP1 DUP1 PUSH1 0x20 ADD DUP3 DUP2 SUB DUP3 MSTORE DUP4 DUP2 DUP2 MLOAD DUP2 MSTORE PUSH1 0x20 ADD SWAP2 POP DUP1 MLOAD SWAP1 PUSH1 0x20 ADD SWAP1 DUP1 DUP4 DUP4 PUSH1 0x0 JUMPDEST DUP4 DUP2 LT ISZERO PUSH3 0x526 JUMPI DUP1 DUP3 ADD MLOAD DUP2 DUP5 ADD MSTORE PUSH1 0x20 DUP2 ADD SWAP1 POP PUSH3 0x509 JUMP JUMPDEST POP POP POP POP SWAP1 POP SWAP1 DUP2 ADD SWAP1 PUSH1 0x1F AND DUP1 ISZERO PUSH3 0x554 JUMPI DUP1 DUP3 SUB DUP1 MLOAD PUSH1 0x1 DUP4 PUSH1 0x20 SUB PUSH2 0x100 EXP SUB NOT AND DUP2 MSTORE PUSH1 0x20 ADD SWAP2 POP JUMPDEST POP SWAP3 POP POP POP PUSH1 0x40 MLOAD DUP1 SWAP2 SUB SWAP1 REVERT JUMPDEST POP DUP3 DUP5 DUP2 PUSH3 0x56D JUMPI INVALID JUMPDEST MOD SWAP1 POP SWAP4 SWAP3 POP POP POP JUMP JUMPDEST PUSH2 0x2B7D DUP1 PUSH3 0x587 PUSH1 0x0 CODECOPY PUSH1 0x0 RETURN INVALID PUSH1 0x80 PUSH1 0x40 MSTORE CALLVALUE DUP1 ISZERO PUSH2 0x10 JUMPI PUSH1 0x0 DUP1 REVERT JUMPDEST POP PUSH1 0x4 CALLDATASIZE LT PUSH2 0x1CE JUMPI PUSH1 0x0 CALLDATALOAD PUSH1 0xE0 SHR DUP1 PUSH4 0x7B0A47EE GT PUSH2 0x104 JUMPI DUP1 PUSH4 0xC8F33C91 GT PUSH2 0xA2 JUMPI DUP1 PUSH4 0xDF136D65 GT PUSH2 0x71 JUMPI DUP1 PUSH4 0xDF136D65 EQ PUSH2 0x6D5 JUMPI DUP1 PUSH4 0xE9FAD8EE EQ PUSH2 0x6F3 JUMPI DUP1 PUSH4 0xEBE2B12B EQ PUSH2 0x6FD JUMPI DUP1 PUSH4 0xF2FDE38B EQ PUSH2 0x71B JUMPI PUSH2 0x1CE JUMP JUMPDEST DUP1 PUSH4 0xC8F33C91 EQ PUSH2 0x621 JUMPI DUP1 PUSH4 0xCC1A378F EQ PUSH2 0x63F JUMPI DUP1 PUSH4 0xCD3DAF9D EQ PUSH2 0x66D JUMPI DUP1 PUSH4 0xD1AF0C7D EQ PUSH2 0x68B JUMPI PUSH2 0x1CE JUMP JUMPDEST DUP1 PUSH4 0x8B876347 GT PUSH2 0xDE JUMPI DUP1 PUSH4 0x8B876347 EQ PUSH2 0x533 JUMPI DUP1 PUSH4 0x8DA5CB5B EQ PUSH2 0x58B JUMPI DUP1 PUSH4 0xA694FC3A EQ PUSH2 0x5D5 JUMPI DUP1 PUSH4 0xA85FE3B7 EQ PUSH2 0x603 JUMPI PUSH2 0x1CE JUMP JUMPDEST DUP1 PUSH4 0x7B0A47EE EQ PUSH2 0x4A9 JUMPI DUP1 PUSH4 0x80FAA57D EQ PUSH2 0x4C7 JUMPI DUP1 PUSH4 0x8980F11F EQ PUSH2 0x4E5 JUMPI PUSH2 0x1CE JUMP JUMPDEST DUP1 PUSH4 0x3C6B16AB GT PUSH2 0x171 JUMPI DUP1 PUSH4 0x70A08231 GT PUSH2 0x14B JUMPI DUP1 PUSH4 0x70A08231 EQ PUSH2 0x3B1 JUMPI DUP1 PUSH4 0x715018A6 EQ PUSH2 0x409 JUMPI DUP1 PUSH4 0x72F702F3 EQ PUSH2 0x413 JUMPI DUP1 PUSH4 0x7AE2B5C7 EQ PUSH2 0x45D JUMPI PUSH2 0x1CE JUMP JUMPDEST DUP1 PUSH4 0x3C6B16AB EQ PUSH2 0x357 JUMPI DUP1 PUSH4 0x3D18B912 EQ PUSH2 0x385 JUMPI DUP1 PUSH4 0x5C975ABB EQ PUSH2 0x38F JUMPI PUSH2 0x1CE JUMP JUMPDEST DUP1 PUSH4 0x1C1F78EB GT PUSH2 0x1AD JUMPI DUP1 PUSH4 0x1C1F78EB EQ PUSH2 0x2A1 JUMPI DUP1 PUSH4 0x2E1A7D4D EQ PUSH2 0x2BF JUMPI DUP1 PUSH4 0x2E4C697F EQ PUSH2 0x2ED JUMPI DUP1 PUSH4 0x386A9525 EQ PUSH2 0x339 JUMPI PUSH2 0x1CE JUMP JUMPDEST DUP1 PUSH3 0x8CC262 EQ PUSH2 0x1D3 JUMPI DUP1 PUSH4 0x700037D EQ PUSH2 0x22B JUMPI DUP1 PUSH4 0x18160DDD EQ PUSH2 0x283 JUMPI JUMPDEST PUSH1 0x0 DUP1 REVERT JUMPDEST PUSH2 0x215 PUSH1 0x4 DUP1 CALLDATASIZE SUB PUSH1 0x20 DUP2 LT ISZERO PUSH2 0x1E9 JUMPI PUSH1 0x0 DUP1 REVERT JUMPDEST DUP2 ADD SWAP1 DUP1 DUP1 CALLDATALOAD PUSH20 0xFFFFFFFFFFFFFFFFFFFFFFFFFFFFFFFFFFFFFFFF AND SWAP1 PUSH1 0x20 ADD SWAP1 SWAP3 SWAP2 SWAP1 POP POP POP PUSH2 0x75F JUMP JUMPDEST PUSH1 0x40 MLOAD DUP1 DUP3 DUP2 MSTORE PUSH1 0x20 ADD SWAP2 POP POP PUSH1 0x40 MLOAD DUP1 SWAP2 SUB SWAP1 RETURN JUMPDEST PUSH2 0x26D PUSH1 0x4 DUP1 CALLDATASIZE SUB PUSH1 0x20 DUP2 LT ISZERO PUSH2 0x241 JUMPI PUSH1 0x0 DUP1 REVERT JUMPDEST DUP2 ADD SWAP1 DUP1 DUP1 CALLDATALOAD PUSH20 0xFFFFFFFFFFFFFFFFFFFFFFFFFFFFFFFFFFFFFFFF AND SWAP1 PUSH1 0x20 ADD SWAP1 SWAP3 SWAP2 SWAP1 POP POP POP PUSH2 0x877 JUMP JUMPDEST PUSH1 0x40 MLOAD DUP1 DUP3 DUP2 MSTORE PUSH1 0x20 ADD SWAP2 POP POP PUSH1 0x40 MLOAD DUP1 SWAP2 SUB SWAP1 RETURN JUMPDEST PUSH2 0x28B PUSH2 0x88F JUMP JUMPDEST PUSH1 0x40 MLOAD DUP1 DUP3 DUP2 MSTORE PUSH1 0x20 ADD SWAP2 POP POP PUSH1 0x40 MLOAD DUP1 SWAP2 SUB SWAP1 RETURN JUMPDEST PUSH2 0x2A9 PUSH2 0x899 JUMP JUMPDEST PUSH1 0x40 MLOAD DUP1 DUP3 DUP2 MSTORE PUSH1 0x20 ADD SWAP2 POP POP PUSH1 0x40 MLOAD DUP1 SWAP2 SUB SWAP1 RETURN JUMPDEST PUSH2 0x2EB PUSH1 0x4 DUP1 CALLDATASIZE SUB PUSH1 0x20 DUP2 LT ISZERO PUSH2 0x2D5 JUMPI PUSH1 0x0 DUP1 REVERT JUMPDEST DUP2 ADD SWAP1 DUP1 DUP1 CALLDATALOAD SWAP1 PUSH1 0x20 ADD SWAP1 SWAP3 SWAP2 SWAP1 POP POP POP PUSH2 0x8B7 JUMP JUMPDEST STOP JUMPDEST PUSH2 0x323 PUSH1 0x4 DUP1 CALLDATASIZE SUB PUSH1 0x40 DUP2 LT ISZERO PUSH2 0x303 JUMPI PUSH1 0x0 DUP1 REVERT JUMPDEST DUP2 ADD SWAP1 DUP1 DUP1 CALLDATALOAD SWAP1 PUSH1 0x20 ADD SWAP1 SWAP3 SWAP2 SWAP1 DUP1 CALLDATALOAD SWAP1 PUSH1 0x20 ADD SWAP1 SWAP3 SWAP2 SWAP1 POP POP POP PUSH2 0xBE9 JUMP JUMPDEST PUSH1 0x40 MLOAD DUP1 DUP3 DUP2 MSTORE PUSH1 0x20 ADD SWAP2 POP POP PUSH1 0x40 MLOAD DUP1 SWAP2 SUB SWAP1 RETURN JUMPDEST PUSH2 0x341 PUSH2 0xC80 JUMP JUMPDEST PUSH1 0x40 MLOAD DUP1 DUP3 DUP2 MSTORE PUSH1 0x20 ADD SWAP2 POP POP PUSH1 0x40 MLOAD DUP1 SWAP2 SUB SWAP1 RETURN JUMPDEST PUSH2 0x383 PUSH1 0x4 DUP1 CALLDATASIZE SUB PUSH1 0x20 DUP2 LT ISZERO PUSH2 0x36D JUMPI PUSH1 0x0 DUP1 REVERT JUMPDEST DUP2 ADD SWAP1 DUP1 DUP1 CALLDATALOAD SWAP1 PUSH1 0x20 ADD SWAP1 SWAP3 SWAP2 SWAP1 POP POP POP PUSH2 0xC86 JUMP JUMPDEST STOP JUMPDEST PUSH2 0x38D PUSH2 0x1087 JUMP JUMPDEST STOP JUMPDEST PUSH2 0x397 PUSH2 0x1326 JUMP JUMPDEST PUSH1 0x40 MLOAD DUP1 DUP3 ISZERO ISZERO ISZERO ISZERO DUP2 MSTORE PUSH1 0x20 ADD SWAP2 POP POP PUSH1 0x40 MLOAD DUP1 SWAP2 SUB SWAP1 RETURN JUMPDEST PUSH2 0x3F3 PUSH1 0x4 DUP1 CALLDATASIZE SUB PUSH1 0x20 DUP2 LT ISZERO PUSH2 0x3C7 JUMPI PUSH1 0x0 DUP1 REVERT JUMPDEST DUP2 ADD SWAP1 DUP1 DUP1 CALLDATALOAD PUSH20 0xFFFFFFFFFFFFFFFFFFFFFFFFFFFFFFFFFFFFFFFF AND SWAP1 PUSH1 0x20 ADD SWAP1 SWAP3 SWAP2 SWAP1 POP POP POP PUSH2 0x133D JUMP JUMPDEST PUSH1 0x40 MLOAD DUP1 DUP3 DUP2 MSTORE PUSH1 0x20 ADD SWAP2 POP POP PUSH1 0x40 MLOAD DUP1 SWAP2 SUB SWAP1 RETURN JUMPDEST PUSH2 0x411 PUSH2 0x1386 JUMP JUMPDEST STOP JUMPDEST PUSH2 0x41B PUSH2 0x150E JUMP JUMPDEST PUSH1 0x40 MLOAD DUP1 DUP3 PUSH20 0xFFFFFFFFFFFFFFFFFFFFFFFFFFFFFFFFFFFFFFFF AND PUSH20 0xFFFFFFFFFFFFFFFFFFFFFFFFFFFFFFFFFFFFFFFF AND DUP2 MSTORE PUSH1 0x20 ADD SWAP2 POP POP PUSH1 0x40 MLOAD DUP1 SWAP2 SUB SWAP1 RETURN JUMPDEST PUSH2 0x493 PUSH1 0x4 DUP1 CALLDATASIZE SUB PUSH1 0x40 DUP2 LT ISZERO PUSH2 0x473 JUMPI PUSH1 0x0 DUP1 REVERT JUMPDEST DUP2 ADD SWAP1 DUP1 DUP1 CALLDATALOAD SWAP1 PUSH1 0x20 ADD SWAP1 SWAP3 SWAP2 SWAP1 DUP1 CALLDATALOAD SWAP1 PUSH1 0x20 ADD SWAP1 SWAP3 SWAP2 SWAP1 POP POP POP PUSH2 0x1534 JUMP JUMPDEST PUSH1 0x40 MLOAD DUP1 DUP3 DUP2 MSTORE PUSH1 0x20 ADD SWAP2 POP POP PUSH1 0x40 MLOAD DUP1 SWAP2 SUB SWAP1 RETURN JUMPDEST PUSH2 0x4B1 PUSH2 0x154D JUMP JUMPDEST PUSH1 0x40 MLOAD DUP1 DUP3 DUP2 MSTORE PUSH1 0x20 ADD SWAP2 POP POP PUSH1 0x40 MLOAD DUP1 SWAP2 SUB SWAP1 RETURN JUMPDEST PUSH2 0x4CF PUSH2 0x1553 JUMP JUMPDEST PUSH1 0x40 MLOAD DUP1 DUP3 DUP2 MSTORE PUSH1 0x20 ADD SWAP2 POP POP PUSH1 0x40 MLOAD DUP1 SWAP2 SUB SWAP1 RETURN JUMPDEST PUSH2 0x531 PUSH1 0x4 DUP1 CALLDATASIZE SUB PUSH1 0x40 DUP2 LT ISZERO PUSH2 0x4FB JUMPI PUSH1 0x0 DUP1 REVERT JUMPDEST DUP2 ADD SWAP1 DUP1 DUP1 CALLDATALOAD PUSH20 0xFFFFFFFFFFFFFFFFFFFFFFFFFFFFFFFFFFFFFFFF AND SWAP1 PUSH1 0x20 ADD SWAP1 SWAP3 SWAP2 SWAP1 DUP1 CALLDATALOAD SWAP1 PUSH1 0x20 ADD SWAP1 SWAP3 SWAP2 SWAP1 POP POP POP PUSH2 0x1566 JUMP JUMPDEST STOP JUMPDEST PUSH2 0x575 PUSH1 0x4 DUP1 CALLDATASIZE SUB PUSH1 0x20 DUP2 LT ISZERO PUSH2 0x549 JUMPI PUSH1 0x0 DUP1 REVERT JUMPDEST DUP2 ADD SWAP1 DUP1 DUP1 CALLDATALOAD PUSH20 0xFFFFFFFFFFFFFFFFFFFFFFFFFFFFFFFFFFFFFFFF AND SWAP1 PUSH1 0x20 ADD SWAP1 SWAP3 SWAP2 SWAP1 POP POP POP PUSH2 0x1822 JUMP JUMPDEST PUSH1 0x40 MLOAD DUP1 DUP3 DUP2 MSTORE PUSH1 0x20 ADD SWAP2 POP POP PUSH1 0x40 MLOAD DUP1 SWAP2 SUB SWAP1 RETURN JUMPDEST PUSH2 0x593 PUSH2 0x183A JUMP JUMPDEST PUSH1 0x40 MLOAD DUP1 DUP3 PUSH20 0xFFFFFFFFFFFFFFFFFFFFFFFFFFFFFFFFFFFFFFFF AND PUSH20 0xFFFFFFFFFFFFFFFFFFFFFFFFFFFFFFFFFFFFFFFF AND DUP2 MSTORE PUSH1 0x20 ADD SWAP2 POP POP PUSH1 0x40 MLOAD DUP1 SWAP2 SUB SWAP1 RETURN JUMPDEST PUSH2 0x601 PUSH1 0x4 DUP1 CALLDATASIZE SUB PUSH1 0x20 DUP2 LT ISZERO PUSH2 0x5EB JUMPI PUSH1 0x0 DUP1 REVERT JUMPDEST DUP2 ADD SWAP1 DUP1 DUP1 CALLDATALOAD SWAP1 PUSH1 0x20 ADD SWAP1 SWAP3 SWAP2 SWAP1 POP POP POP PUSH2 0x1863 JUMP JUMPDEST STOP JUMPDEST PUSH2 0x60B PUSH2 0x1C1A JUMP JUMPDEST PUSH1 0x40 MLOAD DUP1 DUP3 DUP2 MSTORE PUSH1 0x20 ADD SWAP2 POP POP PUSH1 0x40 MLOAD DUP1 SWAP2 SUB SWAP1 RETURN JUMPDEST PUSH2 0x629 PUSH2 0x1C20 JUMP JUMPDEST PUSH1 0x40 MLOAD DUP1 DUP3 DUP2 MSTORE PUSH1 0x20 ADD SWAP2 POP POP PUSH1 0x40 MLOAD DUP1 SWAP2 SUB SWAP1 RETURN JUMPDEST PUSH2 0x66B PUSH1 0x4 DUP1 CALLDATASIZE SUB PUSH1 0x20 DUP2 LT ISZERO PUSH2 0x655 JUMPI PUSH1 0x0 DUP1 REVERT JUMPDEST DUP2 ADD SWAP1 DUP1 DUP1 CALLDATALOAD SWAP1 PUSH1 0x20 ADD SWAP1 SWAP3 SWAP2 SWAP1 POP POP POP PUSH2 0x1C26 JUMP JUMPDEST STOP JUMPDEST PUSH2 0x675 PUSH2 0x1D8C JUMP JUMPDEST PUSH1 0x40 MLOAD DUP1 DUP3 DUP2 MSTORE PUSH1 0x20 ADD SWAP2 POP POP PUSH1 0x40 MLOAD DUP1 SWAP2 SUB SWAP1 RETURN JUMPDEST PUSH2 0x693 PUSH2 0x1E14 JUMP JUMPDEST PUSH1 0x40 MLOAD DUP1 DUP3 PUSH20 0xFFFFFFFFFFFFFFFFFFFFFFFFFFFFFFFFFFFFFFFF AND PUSH20 0xFFFFFFFFFFFFFFFFFFFFFFFFFFFFFFFFFFFFFFFF AND DUP2 MSTORE PUSH1 0x20 ADD SWAP2 POP POP PUSH1 0x40 MLOAD DUP1 SWAP2 SUB SWAP1 RETURN JUMPDEST PUSH2 0x6DD PUSH2 0x1E3A JUMP JUMPDEST PUSH1 0x40 MLOAD DUP1 DUP3 DUP2 MSTORE PUSH1 0x20 ADD SWAP2 POP POP PUSH1 0x40 MLOAD DUP1 SWAP2 SUB SWAP1 RETURN JUMPDEST PUSH2 0x6FB PUSH2 0x1E40 JUMP JUMPDEST STOP JUMPDEST PUSH2 0x705 PUSH2 0x1E92 JUMP JUMPDEST PUSH1 0x40 MLOAD DUP1 DUP3 DUP2 MSTORE PUSH1 0x20 ADD SWAP2 POP POP PUSH1 0x40 MLOAD DUP1 SWAP2 SUB SWAP1 RETURN JUMPDEST PUSH2 0x75D PUSH1 0x4 DUP1 CALLDATASIZE SUB PUSH1 0x20 DUP2 LT ISZERO PUSH2 0x731 JUMPI PUSH1 0x0 DUP1 REVERT JUMPDEST DUP2 ADD SWAP1 DUP1 DUP1 CALLDATALOAD PUSH20 0xFFFFFFFFFFFFFFFFFFFFFFFFFFFFFFFFFFFFFFFF AND SWAP1 PUSH1 0x20 ADD SWAP1 SWAP3 SWAP2 SWAP1 POP POP POP PUSH2 0x1E98 JUMP JUMPDEST STOP JUMPDEST PUSH1 0x0 PUSH2 0x870 PUSH1 0xC PUSH1 0x0 DUP5 PUSH20 0xFFFFFFFFFFFFFFFFFFFFFFFFFFFFFFFFFFFFFFFF AND PUSH20 0xFFFFFFFFFFFFFFFFFFFFFFFFFFFFFFFFFFFFFFFF AND DUP2 MSTORE PUSH1 0x20 ADD SWAP1 DUP2 MSTORE PUSH1 0x20 ADD PUSH1 0x0 KECCAK256 SLOAD PUSH2 0x862 PUSH1 0x9 SLOAD PUSH2 0x854 PUSH2 0x806 PUSH1 0xB PUSH1 0x0 DUP10 PUSH20 0xFFFFFFFFFFFFFFFFFFFFFFFFFFFFFFFFFFFFFFFF AND PUSH20 0xFFFFFFFFFFFFFFFFFFFFFFFFFFFFFFFFFFFFFFFF AND DUP2 MSTORE PUSH1 0x20 ADD SWAP1 DUP2 MSTORE PUSH1 0x20 ADD PUSH1 0x0 KECCAK256 SLOAD PUSH2 0x7F8 PUSH2 0x1D8C JUMP JUMPDEST PUSH2 0x21BF SWAP1 SWAP2 SWAP1 PUSH4 0xFFFFFFFF AND JUMP JUMPDEST PUSH1 0xE PUSH1 0x0 DUP10 PUSH20 0xFFFFFFFFFFFFFFFFFFFFFFFFFFFFFFFFFFFFFFFF AND PUSH20 0xFFFFFFFFFFFFFFFFFFFFFFFFFFFFFFFFFFFFFFFF AND DUP2 MSTORE PUSH1 0x20 ADD SWAP1 DUP2 MSTORE PUSH1 0x20 ADD PUSH1 0x0 KECCAK256 SLOAD PUSH2 0x20EF SWAP1 SWAP2 SWAP1 PUSH4 0xFFFFFFFF AND JUMP JUMPDEST PUSH2 0x20A5 SWAP1 SWAP2 SWAP1 PUSH4 0xFFFFFFFF AND JUMP JUMPDEST PUSH2 0x2209 SWAP1 SWAP2 SWAP1 PUSH4 0xFFFFFFFF AND JUMP JUMPDEST SWAP1 POP SWAP2 SWAP1 POP JUMP JUMPDEST PUSH1 0xC PUSH1 0x20 MSTORE DUP1 PUSH1 0x0 MSTORE PUSH1 0x40 PUSH1 0x0 KECCAK256 PUSH1 0x0 SWAP2 POP SWAP1 POP SLOAD DUP2 JUMP JUMPDEST PUSH1 0x0 PUSH1 0xD SLOAD SWAP1 POP SWAP1 JUMP JUMPDEST PUSH1 0x0 PUSH2 0x8B2 PUSH1 0x6 SLOAD PUSH1 0x5 SLOAD PUSH2 0x20EF SWAP1 SWAP2 SWAP1 PUSH4 0xFFFFFFFF AND JUMP JUMPDEST SWAP1 POP SWAP1 JUMP JUMPDEST PUSH1 0x2 PUSH1 0x0 SLOAD EQ ISZERO PUSH2 0x930 JUMPI PUSH1 0x40 MLOAD PUSH32 0x8C379A000000000000000000000000000000000000000000000000000000000 DUP2 MSTORE PUSH1 0x4 ADD DUP1 DUP1 PUSH1 0x20 ADD DUP3 DUP2 SUB DUP3 MSTORE PUSH1 0x1F DUP2 MSTORE PUSH1 0x20 ADD DUP1 PUSH32 0x5265656E7472616E637947756172643A207265656E7472616E742063616C6C00 DUP2 MSTORE POP PUSH1 0x20 ADD SWAP2 POP POP PUSH1 0x40 MLOAD DUP1 SWAP2 SUB SWAP1 REVERT JUMPDEST PUSH1 0x2 PUSH1 0x0 DUP2 SWAP1 SSTORE POP CALLER PUSH2 0x941 PUSH2 0x1D8C JUMP JUMPDEST PUSH1 0x8 DUP2 SWAP1 SSTORE POP PUSH2 0x94F PUSH2 0x1553 JUMP JUMPDEST PUSH1 0x7 DUP2 SWAP1 SSTORE POP PUSH1 0x0 PUSH20 0xFFFFFFFFFFFFFFFFFFFFFFFFFFFFFFFFFFFFFFFF AND DUP2 PUSH20 0xFFFFFFFFFFFFFFFFFFFFFFFFFFFFFFFFFFFFFFFF AND EQ PUSH2 0xA1C JUMPI PUSH2 0x992 DUP2 PUSH2 0x75F JUMP JUMPDEST PUSH1 0xC PUSH1 0x0 DUP4 PUSH20 0xFFFFFFFFFFFFFFFFFFFFFFFFFFFFFFFFFFFFFFFF AND PUSH20 0xFFFFFFFFFFFFFFFFFFFFFFFFFFFFFFFFFFFFFFFF AND DUP2 MSTORE PUSH1 0x20 ADD SWAP1 DUP2 MSTORE PUSH1 0x20 ADD PUSH1 0x0 KECCAK256 DUP2 SWAP1 SSTORE POP PUSH1 0x8 SLOAD PUSH1 0xB PUSH1 0x0 DUP4 PUSH20 0xFFFFFFFFFFFFFFFFFFFFFFFFFFFFFFFFFFFFFFFF AND PUSH20 0xFFFFFFFFFFFFFFFFFFFFFFFFFFFFFFFFFFFFFFFF AND DUP2 MSTORE PUSH1 0x20 ADD SWAP1 DUP2 MSTORE PUSH1 0x20 ADD PUSH1 0x0 KECCAK256 DUP2 SWAP1 SSTORE POP JUMPDEST PUSH1 0x0 DUP3 GT PUSH2 0xA92 JUMPI PUSH1 0x40 MLOAD PUSH32 0x8C379A000000000000000000000000000000000000000000000000000000000 DUP2 MSTORE PUSH1 0x4 ADD DUP1 DUP1 PUSH1 0x20 ADD DUP3 DUP2 SUB DUP3 MSTORE PUSH1 0x11 DUP2 MSTORE PUSH1 0x20 ADD DUP1 PUSH32 0x43616E6E6F742077697468647261772030000000000000000000000000000000 DUP2 MSTORE POP PUSH1 0x20 ADD SWAP2 POP POP PUSH1 0x40 MLOAD DUP1 SWAP2 SUB SWAP1 REVERT JUMPDEST PUSH2 0xAA7 DUP3 PUSH1 0xD SLOAD PUSH2 0x21BF SWAP1 SWAP2 SWAP1 PUSH4 0xFFFFFFFF AND JUMP JUMPDEST PUSH1 0xD DUP2 SWAP1 SSTORE POP PUSH2 0xAFF DUP3 PUSH1 0xE PUSH1 0x0 CALLER PUSH20 0xFFFFFFFFFFFFFFFFFFFFFFFFFFFFFFFFFFFFFFFF AND PUSH20 0xFFFFFFFFFFFFFFFFFFFFFFFFFFFFFFFFFFFFFFFF AND DUP2 MSTORE PUSH1 0x20 ADD SWAP1 DUP2 MSTORE PUSH1 0x20 ADD PUSH1 0x0 KECCAK256 SLOAD PUSH2 0x21BF SWAP1 SWAP2 SWAP1 PUSH4 0xFFFFFFFF AND JUMP JUMPDEST PUSH1 0xE PUSH1 0x0 CALLER PUSH20 0xFFFFFFFFFFFFFFFFFFFFFFFFFFFFFFFFFFFFFFFF AND PUSH20 0xFFFFFFFFFFFFFFFFFFFFFFFFFFFFFFFFFFFFFFFF AND DUP2 MSTORE PUSH1 0x20 ADD SWAP1 DUP2 MSTORE PUSH1 0x20 ADD PUSH1 0x0 KECCAK256 DUP2 SWAP1 SSTORE POP PUSH2 0xB8F CALLER DUP4 PUSH1 0x3 PUSH1 0x0 SWAP1 SLOAD SWAP1 PUSH2 0x100 EXP SWAP1 DIV PUSH20 0xFFFFFFFFFFFFFFFFFFFFFFFFFFFFFFFFFFFFFFFF AND PUSH20 0xFFFFFFFFFFFFFFFFFFFFFFFFFFFFFFFFFFFFFFFF AND PUSH2 0x2291 SWAP1 SWAP3 SWAP2 SWAP1 PUSH4 0xFFFFFFFF AND JUMP JUMPDEST CALLER PUSH20 0xFFFFFFFFFFFFFFFFFFFFFFFFFFFFFFFFFFFFFFFF AND PUSH32 0x7084F5476618D8E60B11EF0D7D3F06914655ADB8793E28FF7F018D4C76D505D5 DUP4 PUSH1 0x40 MLOAD DUP1 DUP3 DUP2 MSTORE PUSH1 0x20 ADD SWAP2 POP POP PUSH1 0x40 MLOAD DUP1 SWAP2 SUB SWAP1 LOG2 POP PUSH1 0x1 PUSH1 0x0 DUP2 SWAP1 SSTORE POP POP JUMP JUMPDEST PUSH1 0x0 DUP1 DUP3 EQ ISZERO PUSH2 0xBFC JUMPI PUSH1 0x1 SWAP1 POP PUSH2 0xC7A JUMP JUMPDEST PUSH1 0x1 DUP3 EQ ISZERO PUSH2 0xC0D JUMPI DUP3 SWAP1 POP PUSH2 0xC7A JUMP JUMPDEST PUSH1 0x0 PUSH2 0xC2C DUP5 PUSH2 0xC27 PUSH1 0x2 DUP7 PUSH2 0x20A5 SWAP1 SWAP2 SWAP1 PUSH4 0xFFFFFFFF AND JUMP JUMPDEST PUSH2 0xBE9 JUMP JUMPDEST SWAP1 POP PUSH2 0xC41 DUP2 DUP3 PUSH2 0x20EF SWAP1 SWAP2 SWAP1 PUSH4 0xFFFFFFFF AND JUMP JUMPDEST SWAP1 POP PUSH1 0x1 PUSH2 0xC59 PUSH1 0x2 DUP6 PUSH2 0x2175 SWAP1 SWAP2 SWAP1 PUSH4 0xFFFFFFFF AND JUMP JUMPDEST EQ ISZERO PUSH2 0xC75 JUMPI PUSH2 0xC72 DUP5 DUP3 PUSH2 0x20EF SWAP1 SWAP2 SWAP1 PUSH4 0xFFFFFFFF AND JUMP JUMPDEST SWAP1 POP JUMPDEST DUP1 SWAP2 POP POP JUMPDEST SWAP3 SWAP2 POP POP JUMP JUMPDEST PUSH1 0x6 SLOAD DUP2 JUMP JUMPDEST PUSH2 0xC8E PUSH2 0x2349 JUMP JUMPDEST PUSH20 0xFFFFFFFFFFFFFFFFFFFFFFFFFFFFFFFFFFFFFFFF AND PUSH1 0x1 DUP1 SWAP1 SLOAD SWAP1 PUSH2 0x100 EXP SWAP1 DIV PUSH20 0xFFFFFFFFFFFFFFFFFFFFFFFFFFFFFFFFFFFFFFFF AND PUSH20 0xFFFFFFFFFFFFFFFFFFFFFFFFFFFFFFFFFFFFFFFF AND EQ PUSH2 0xD4F JUMPI PUSH1 0x40 MLOAD PUSH32 0x8C379A000000000000000000000000000000000000000000000000000000000 DUP2 MSTORE PUSH1 0x4 ADD DUP1 DUP1 PUSH1 0x20 ADD DUP3 DUP2 SUB DUP3 MSTORE PUSH1 0x20 DUP2 MSTORE PUSH1 0x20 ADD DUP1 PUSH32 0x4F776E61626C653A2063616C6C6572206973206E6F7420746865206F776E6572 DUP2 MSTORE POP PUSH1 0x20 ADD SWAP2 POP POP PUSH1 0x40 MLOAD DUP1 SWAP2 SUB SWAP1 REVERT JUMPDEST PUSH1 0x0 PUSH2 0xD59 PUSH2 0x1D8C JUMP JUMPDEST PUSH1 0x8 DUP2 SWAP1 SSTORE POP PUSH2 0xD67 PUSH2 0x1553 JUMP JUMPDEST PUSH1 0x7 DUP2 SWAP1 SSTORE POP PUSH1 0x0 PUSH20 0xFFFFFFFFFFFFFFFFFFFFFFFFFFFFFFFFFFFFFFFF AND DUP2 PUSH20 0xFFFFFFFFFFFFFFFFFFFFFFFFFFFFFFFFFFFFFFFF AND EQ PUSH2 0xE34 JUMPI PUSH2 0xDAA DUP2 PUSH2 0x75F JUMP JUMPDEST PUSH1 0xC PUSH1 0x0 DUP4 PUSH20 0xFFFFFFFFFFFFFFFFFFFFFFFFFFFFFFFFFFFFFFFF AND PUSH20 0xFFFFFFFFFFFFFFFFFFFFFFFFFFFFFFFFFFFFFFFF AND DUP2 MSTORE PUSH1 0x20 ADD SWAP1 DUP2 MSTORE PUSH1 0x20 ADD PUSH1 0x0 KECCAK256 DUP2 SWAP1 SSTORE POP PUSH1 0x8 SLOAD PUSH1 0xB PUSH1 0x0 DUP4 PUSH20 0xFFFFFFFFFFFFFFFFFFFFFFFFFFFFFFFFFFFFFFFF AND PUSH20 0xFFFFFFFFFFFFFFFFFFFFFFFFFFFFFFFFFFFFFFFF AND DUP2 MSTORE PUSH1 0x20 ADD SWAP1 DUP2 MSTORE PUSH1 0x20 ADD PUSH1 0x0 KECCAK256 DUP2 SWAP1 SSTORE POP JUMPDEST PUSH1 0x4 SLOAD TIMESTAMP LT PUSH2 0xE5D JUMPI PUSH2 0xE52 PUSH1 0x6 SLOAD DUP4 PUSH2 0x20A5 SWAP1 SWAP2 SWAP1 PUSH4 0xFFFFFFFF AND JUMP JUMPDEST PUSH1 0x5 DUP2 SWAP1 SSTORE POP PUSH2 0xEBF JUMP JUMPDEST PUSH1 0x0 PUSH2 0xE74 TIMESTAMP PUSH1 0x4 SLOAD PUSH2 0x21BF SWAP1 SWAP2 SWAP1 PUSH4 0xFFFFFFFF AND JUMP JUMPDEST SWAP1 POP PUSH1 0x0 PUSH2 0xE8D PUSH1 0x5 SLOAD DUP4 PUSH2 0x20EF SWAP1 SWAP2 SWAP1 PUSH4 0xFFFFFFFF AND JUMP JUMPDEST SWAP1 POP PUSH2 0xEB6 PUSH1 0x6 SLOAD PUSH2 0xEA8 DUP4 DUP8 PUSH2 0x2209 SWAP1 SWAP2 SWAP1 PUSH4 0xFFFFFFFF AND JUMP JUMPDEST PUSH2 0x20A5 SWAP1 SWAP2 SWAP1 PUSH4 0xFFFFFFFF AND JUMP JUMPDEST PUSH1 0x5 DUP2 SWAP1 SSTORE POP POP POP JUMPDEST PUSH1 0x0 PUSH1 0x2 PUSH1 0x0 SWAP1 SLOAD SWAP1 PUSH2 0x100 EXP SWAP1 DIV PUSH20 0xFFFFFFFFFFFFFFFFFFFFFFFFFFFFFFFFFFFFFFFF AND PUSH20 0xFFFFFFFFFFFFFFFFFFFFFFFFFFFFFFFFFFFFFFFF AND PUSH4 0x70A08231 ADDRESS PUSH1 0x40 MLOAD DUP3 PUSH4 0xFFFFFFFF AND PUSH1 0xE0 SHL DUP2 MSTORE PUSH1 0x4 ADD DUP1 DUP3 PUSH20 0xFFFFFFFFFFFFFFFFFFFFFFFFFFFFFFFFFFFFFFFF AND PUSH20 0xFFFFFFFFFFFFFFFFFFFFFFFFFFFFFFFFFFFFFFFF AND DUP2 MSTORE PUSH1 0x20 ADD SWAP2 POP POP PUSH1 0x20 PUSH1 0x40 MLOAD DUP1 DUP4 SUB DUP2 DUP7 DUP1 EXTCODESIZE ISZERO DUP1 ISZERO PUSH2 0xF60 JUMPI PUSH1 0x0 DUP1 REVERT JUMPDEST POP GAS STATICCALL ISZERO DUP1 ISZERO PUSH2 0xF74 JUMPI RETURNDATASIZE PUSH1 0x0 DUP1 RETURNDATACOPY RETURNDATASIZE PUSH1 0x0 REVERT JUMPDEST POP POP POP POP PUSH1 0x40 MLOAD RETURNDATASIZE PUSH1 0x20 DUP2 LT ISZERO PUSH2 0xF8A JUMPI PUSH1 0x0 DUP1 REVERT JUMPDEST DUP2 ADD SWAP1 DUP1 DUP1 MLOAD SWAP1 PUSH1 0x20 ADD SWAP1 SWAP3 SWAP2 SWAP1 POP POP POP SWAP1 POP PUSH2 0xFB2 PUSH1 0x6 SLOAD DUP3 PUSH2 0x20A5 SWAP1 SWAP2 SWAP1 PUSH4 0xFFFFFFFF AND JUMP JUMPDEST PUSH1 0x5 SLOAD GT ISZERO PUSH2 0x1029 JUMPI PUSH1 0x40 MLOAD PUSH32 0x8C379A000000000000000000000000000000000000000000000000000000000 DUP2 MSTORE PUSH1 0x4 ADD DUP1 DUP1 PUSH1 0x20 ADD DUP3 DUP2 SUB DUP3 MSTORE PUSH1 0x18 DUP2 MSTORE PUSH1 0x20 ADD DUP1 PUSH32 0x50726F76696465642072657761726420746F6F20686967680000000000000000 DUP2 MSTORE POP PUSH1 0x20 ADD SWAP2 POP POP PUSH1 0x40 MLOAD DUP1 SWAP2 SUB SWAP1 REVERT JUMPDEST TIMESTAMP PUSH1 0x7 DUP2 SWAP1 SSTORE POP PUSH2 0x1045 PUSH1 0x6 SLOAD TIMESTAMP PUSH2 0x2209 SWAP1 SWAP2 SWAP1 PUSH4 0xFFFFFFFF AND JUMP JUMPDEST PUSH1 0x4 DUP2 SWAP1 SSTORE POP PUSH32 0xDE88A922E0D3B88B24E9623EFEB464919C6BF9F66857A65E2BFCF2CE87A9433D DUP4 PUSH1 0x40 MLOAD DUP1 DUP3 DUP2 MSTORE PUSH1 0x20 ADD SWAP2 POP POP PUSH1 0x40 MLOAD DUP1 SWAP2 SUB SWAP1 LOG1 POP POP POP JUMP JUMPDEST PUSH1 0x2 PUSH1 0x0 SLOAD EQ ISZERO PUSH2 0x1100 JUMPI PUSH1 0x40 MLOAD PUSH32 0x8C379A000000000000000000000000000000000000000000000000000000000 DUP2 MSTORE PUSH1 0x4 ADD DUP1 DUP1 PUSH1 0x20 ADD DUP3 DUP2 SUB DUP3 MSTORE PUSH1 0x1F DUP2 MSTORE PUSH1 0x20 ADD DUP1 PUSH32 0x5265656E7472616E637947756172643A207265656E7472616E742063616C6C00 DUP2 MSTORE POP PUSH1 0x20 ADD SWAP2 POP POP PUSH1 0x40 MLOAD DUP1 SWAP2 SUB SWAP1 REVERT JUMPDEST PUSH1 0x2 PUSH1 0x0 DUP2 SWAP1 SSTORE POP CALLER PUSH2 0x1111 PUSH2 0x1D8C JUMP JUMPDEST PUSH1 0x8 DUP2 SWAP1 SSTORE POP PUSH2 0x111F PUSH2 0x1553 JUMP JUMPDEST PUSH1 0x7 DUP2 SWAP1 SSTORE POP PUSH1 0x0 PUSH20 0xFFFFFFFFFFFFFFFFFFFFFFFFFFFFFFFFFFFFFFFF AND DUP2 PUSH20 0xFFFFFFFFFFFFFFFFFFFFFFFFFFFFFFFFFFFFFFFF AND EQ PUSH2 0x11EC JUMPI PUSH2 0x1162 DUP2 PUSH2 0x75F JUMP JUMPDEST PUSH1 0xC PUSH1 0x0 DUP4 PUSH20 0xFFFFFFFFFFFFFFFFFFFFFFFFFFFFFFFFFFFFFFFF AND PUSH20 0xFFFFFFFFFFFFFFFFFFFFFFFFFFFFFFFFFFFFFFFF AND DUP2 MSTORE PUSH1 0x20 ADD SWAP1 DUP2 MSTORE PUSH1 0x20 ADD PUSH1 0x0 KECCAK256 DUP2 SWAP1 SSTORE POP PUSH1 0x8 SLOAD PUSH1 0xB PUSH1 0x0 DUP4 PUSH20 0xFFFFFFFFFFFFFFFFFFFFFFFFFFFFFFFFFFFFFFFF AND PUSH20 0xFFFFFFFFFFFFFFFFFFFFFFFFFFFFFFFFFFFFFFFF AND DUP2 MSTORE PUSH1 0x20 ADD SWAP1 DUP2 MSTORE PUSH1 0x20 ADD PUSH1 0x0 KECCAK256 DUP2 SWAP1 SSTORE POP JUMPDEST PUSH1 0x0 PUSH1 0xC PUSH1 0x0 CALLER PUSH20 0xFFFFFFFFFFFFFFFFFFFFFFFFFFFFFFFFFFFFFFFF AND PUSH20 0xFFFFFFFFFFFFFFFFFFFFFFFFFFFFFFFFFFFFFFFF AND DUP2 MSTORE PUSH1 0x20 ADD SWAP1 DUP2 MSTORE PUSH1 0x20 ADD PUSH1 0x0 KECCAK256 SLOAD SWAP1 POP PUSH1 0x0 DUP2 GT ISZERO PUSH2 0x131A JUMPI PUSH1 0x0 PUSH1 0xC PUSH1 0x0 CALLER PUSH20 0xFFFFFFFFFFFFFFFFFFFFFFFFFFFFFFFFFFFFFFFF AND PUSH20 0xFFFFFFFFFFFFFFFFFFFFFFFFFFFFFFFFFFFFFFFF AND DUP2 MSTORE PUSH1 0x20 ADD SWAP1 DUP2 MSTORE PUSH1 0x20 ADD PUSH1 0x0 KECCAK256 DUP2 SWAP1 SSTORE POP PUSH2 0x12CB CALLER DUP3 PUSH1 0x2 PUSH1 0x0 SWAP1 SLOAD SWAP1 PUSH2 0x100 EXP SWAP1 DIV PUSH20 0xFFFFFFFFFFFFFFFFFFFFFFFFFFFFFFFFFFFFFFFF AND PUSH20 0xFFFFFFFFFFFFFFFFFFFFFFFFFFFFFFFFFFFFFFFF AND PUSH2 0x2291 SWAP1 SWAP3 SWAP2 SWAP1 PUSH4 0xFFFFFFFF AND JUMP JUMPDEST CALLER PUSH20 0xFFFFFFFFFFFFFFFFFFFFFFFFFFFFFFFFFFFFFFFF AND PUSH32 0xE2403640BA68FED3A2F88B7557551D1993F84B99BB10FF833F0CF8DB0C5E0486 DUP3 PUSH1 0x40 MLOAD DUP1 DUP3 DUP2 MSTORE PUSH1 0x20 ADD SWAP2 POP POP PUSH1 0x40 MLOAD DUP1 SWAP2 SUB SWAP1 LOG2 JUMPDEST POP POP PUSH1 0x1 PUSH1 0x0 DUP2 SWAP1 SSTORE POP JUMP JUMPDEST PUSH1 0x0 PUSH1 0x1 PUSH1 0x0 SWAP1 SLOAD SWAP1 PUSH2 0x100 EXP SWAP1 DIV PUSH1 0xFF AND SWAP1 POP SWAP1 JUMP JUMPDEST PUSH1 0x0 PUSH1 0xE PUSH1 0x0 DUP4 PUSH20 0xFFFFFFFFFFFFFFFFFFFFFFFFFFFFFFFFFFFFFFFF AND PUSH20 0xFFFFFFFFFFFFFFFFFFFFFFFFFFFFFFFFFFFFFFFF AND DUP2 MSTORE PUSH1 0x20 ADD SWAP1 DUP2 MSTORE PUSH1 0x20 ADD PUSH1 0x0 KECCAK256 SLOAD SWAP1 POP SWAP2 SWAP1 POP JUMP JUMPDEST PUSH2 0x138E PUSH2 0x2349 JUMP JUMPDEST PUSH20 0xFFFFFFFFFFFFFFFFFFFFFFFFFFFFFFFFFFFFFFFF AND PUSH1 0x1 DUP1 SWAP1 SLOAD SWAP1 PUSH2 0x100 EXP SWAP1 DIV PUSH20 0xFFFFFFFFFFFFFFFFFFFFFFFFFFFFFFFFFFFFFFFF AND PUSH20 0xFFFFFFFFFFFFFFFFFFFFFFFFFFFFFFFFFFFFFFFF AND EQ PUSH2 0x144F JUMPI PUSH1 0x40 MLOAD PUSH32 0x8C379A000000000000000000000000000000000000000000000000000000000 DUP2 MSTORE PUSH1 0x4 ADD DUP1 DUP1 PUSH1 0x20 ADD DUP3 DUP2 SUB DUP3 MSTORE PUSH1 0x20 DUP2 MSTORE PUSH1 0x20 ADD DUP1 PUSH32 0x4F776E61626C653A2063616C6C6572206973206E6F7420746865206F776E6572 DUP2 MSTORE POP PUSH1 0x20 ADD SWAP2 POP POP PUSH1 0x40 MLOAD DUP1 SWAP2 SUB SWAP1 REVERT JUMPDEST PUSH1 0x0 PUSH20 0xFFFFFFFFFFFFFFFFFFFFFFFFFFFFFFFFFFFFFFFF AND PUSH1 0x1 DUP1 SWAP1 SLOAD SWAP1 PUSH2 0x100 EXP SWAP1 DIV PUSH20 0xFFFFFFFFFFFFFFFFFFFFFFFFFFFFFFFFFFFFFFFF AND PUSH20 0xFFFFFFFFFFFFFFFFFFFFFFFFFFFFFFFFFFFFFFFF AND PUSH32 0x8BE0079C531659141344CD1FD0A4F28419497F9722A3DAAFE3B4186F6B6457E0 PUSH1 0x40 MLOAD PUSH1 0x40 MLOAD DUP1 SWAP2 SUB SWAP1 LOG3 PUSH1 0x0 PUSH1 0x1 DUP1 PUSH2 0x100 EXP DUP2 SLOAD DUP2 PUSH20 0xFFFFFFFFFFFFFFFFFFFFFFFFFFFFFFFFFFFFFFFF MUL NOT AND SWAP1 DUP4 PUSH20 0xFFFFFFFFFFFFFFFFFFFFFFFFFFFFFFFFFFFFFFFF AND MUL OR SWAP1 SSTORE POP JUMP JUMPDEST PUSH1 0x3 PUSH1 0x0 SWAP1 SLOAD SWAP1 PUSH2 0x100 EXP SWAP1 DIV PUSH20 0xFFFFFFFFFFFFFFFFFFFFFFFFFFFFFFFFFFFFFFFF AND DUP2 JUMP JUMPDEST PUSH1 0x0 DUP2 DUP4 LT PUSH2 0x1543 JUMPI DUP2 PUSH2 0x1545 JUMP JUMPDEST DUP3 JUMPDEST SWAP1 POP SWAP3 SWAP2 POP POP JUMP JUMPDEST PUSH1 0x5 SLOAD DUP2 JUMP JUMPDEST PUSH1 0x0 PUSH2 0x1561 TIMESTAMP PUSH1 0x4 SLOAD PUSH2 0x1534 JUMP JUMPDEST SWAP1 POP SWAP1 JUMP JUMPDEST PUSH2 0x156E PUSH2 0x2349 JUMP JUMPDEST PUSH20 0xFFFFFFFFFFFFFFFFFFFFFFFFFFFFFFFFFFFFFFFF AND PUSH1 0x1 DUP1 SWAP1 SLOAD SWAP1 PUSH2 0x100 EXP SWAP1 DIV PUSH20 0xFFFFFFFFFFFFFFFFFFFFFFFFFFFFFFFFFFFFFFFF AND PUSH20 0xFFFFFFFFFFFFFFFFFFFFFFFFFFFFFFFFFFFFFFFF AND EQ PUSH2 0x162F JUMPI PUSH1 0x40 MLOAD PUSH32 0x8C379A000000000000000000000000000000000000000000000000000000000 DUP2 MSTORE PUSH1 0x4 ADD DUP1 DUP1 PUSH1 0x20 ADD DUP3 DUP2 SUB DUP3 MSTORE PUSH1 0x20 DUP2 MSTORE PUSH1 0x20 ADD DUP1 PUSH32 0x4F776E61626C653A2063616C6C6572206973206E6F7420746865206F776E6572 DUP2 MSTORE POP PUSH1 0x20 ADD SWAP2 POP POP PUSH1 0x40 MLOAD DUP1 SWAP2 SUB SWAP1 REVERT JUMPDEST PUSH1 0x2 PUSH1 0x0 SWAP1 SLOAD SWAP1 PUSH2 0x100 EXP SWAP1 DIV PUSH20 0xFFFFFFFFFFFFFFFFFFFFFFFFFFFFFFFFFFFFFFFF AND PUSH20 0xFFFFFFFFFFFFFFFFFFFFFFFFFFFFFFFFFFFFFFFF AND DUP3 PUSH20 0xFFFFFFFFFFFFFFFFFFFFFFFFFFFFFFFFFFFFFFFF AND EQ ISZERO PUSH2 0x16D6 JUMPI PUSH1 0x40 MLOAD PUSH32 0x8C379A000000000000000000000000000000000000000000000000000000000 DUP2 MSTORE PUSH1 0x4 ADD DUP1 DUP1 PUSH1 0x20 ADD DUP3 DUP2 SUB DUP3 MSTORE PUSH1 0x22 DUP2 MSTORE PUSH1 0x20 ADD DUP1 PUSH2 0x2A93 PUSH1 0x22 SWAP2 CODECOPY PUSH1 0x40 ADD SWAP2 POP POP PUSH1 0x40 MLOAD DUP1 SWAP2 SUB SWAP1 REVERT JUMPDEST PUSH1 0x0 PUSH1 0xD SLOAD EQ PUSH2 0x1788 JUMPI PUSH1 0x3 PUSH1 0x0 SWAP1 SLOAD SWAP1 PUSH2 0x100 EXP SWAP1 DIV PUSH20 0xFFFFFFFFFFFFFFFFFFFFFFFFFFFFFFFFFFFFFFFF AND PUSH20 0xFFFFFFFFFFFFFFFFFFFFFFFFFFFFFFFFFFFFFFFF AND DUP3 PUSH20 0xFFFFFFFFFFFFFFFFFFFFFFFFFFFFFFFFFFFFFFFF AND EQ ISZERO PUSH2 0x1787 JUMPI PUSH1 0x40 MLOAD PUSH32 0x8C379A000000000000000000000000000000000000000000000000000000000 DUP2 MSTORE PUSH1 0x4 ADD DUP1 DUP1 PUSH1 0x20 ADD DUP3 DUP2 SUB DUP3 MSTORE PUSH1 0x22 DUP2 MSTORE PUSH1 0x20 ADD DUP1 PUSH2 0x2AFC PUSH1 0x22 SWAP2 CODECOPY PUSH1 0x40 ADD SWAP2 POP POP PUSH1 0x40 MLOAD DUP1 SWAP2 SUB SWAP1 REVERT JUMPDEST JUMPDEST PUSH2 0x17B3 CALLER DUP3 DUP5 PUSH20 0xFFFFFFFFFFFFFFFFFFFFFFFFFFFFFFFFFFFFFFFF AND PUSH2 0x2291 SWAP1 SWAP3 SWAP2 SWAP1 PUSH4 0xFFFFFFFF AND JUMP JUMPDEST PUSH32 0x8C1256B8896378CD5044F80C202F9772B9D77DC85C8A6EB51967210B09BFAA28 DUP3 DUP3 PUSH1 0x40 MLOAD DUP1 DUP4 PUSH20 0xFFFFFFFFFFFFFFFFFFFFFFFFFFFFFFFFFFFFFFFF AND PUSH20 0xFFFFFFFFFFFFFFFFFFFFFFFFFFFFFFFFFFFFFFFF AND DUP2 MSTORE PUSH1 0x20 ADD DUP3 DUP2 MSTORE PUSH1 0x20 ADD SWAP3 POP POP POP PUSH1 0x40 MLOAD DUP1 SWAP2 SUB SWAP1 LOG1 POP POP JUMP JUMPDEST PUSH1 0xB PUSH1 0x20 MSTORE DUP1 PUSH1 0x0 MSTORE PUSH1 0x40 PUSH1 0x0 KECCAK256 PUSH1 0x0 SWAP2 POP SWAP1 POP SLOAD DUP2 JUMP JUMPDEST PUSH1 0x0 PUSH1 0x1 DUP1 SWAP1 SLOAD SWAP1 PUSH2 0x100 EXP SWAP1 DIV PUSH20 0xFFFFFFFFFFFFFFFFFFFFFFFFFFFFFFFFFFFFFFFF AND SWAP1 POP SWAP1 JUMP JUMPDEST PUSH1 0x2 PUSH1 0x0 SLOAD EQ ISZERO PUSH2 0x18DC JUMPI PUSH1 0x40 MLOAD PUSH32 0x8C379A000000000000000000000000000000000000000000000000000000000 DUP2 MSTORE PUSH1 0x4 ADD DUP1 DUP1 PUSH1 0x20 ADD DUP3 DUP2 SUB DUP3 MSTORE PUSH1 0x1F DUP2 MSTORE PUSH1 0x20 ADD DUP1 PUSH32 0x5265656E7472616E637947756172643A207265656E7472616E742063616C6C00 DUP2 MSTORE POP PUSH1 0x20 ADD SWAP2 POP POP PUSH1 0x40 MLOAD DUP1 SWAP2 SUB SWAP1 REVERT JUMPDEST PUSH1 0x2 PUSH1 0x0 DUP2 SWAP1 SSTORE POP PUSH1 0x1 PUSH1 0x0 SWAP1 SLOAD SWAP1 PUSH2 0x100 EXP SWAP1 DIV PUSH1 0xFF AND ISZERO PUSH2 0x1967 JUMPI PUSH1 0x40 MLOAD PUSH32 0x8C379A000000000000000000000000000000000000000000000000000000000 DUP2 MSTORE PUSH1 0x4 ADD DUP1 DUP1 PUSH1 0x20 ADD DUP3 DUP2 SUB DUP3 MSTORE PUSH1 0x10 DUP2 MSTORE PUSH1 0x20 ADD DUP1 PUSH32 0x5061757361626C653A2070617573656400000000000000000000000000000000 DUP2 MSTORE POP PUSH1 0x20 ADD SWAP2 POP POP PUSH1 0x40 MLOAD DUP1 SWAP2 SUB SWAP1 REVERT JUMPDEST CALLER PUSH2 0x1970 PUSH2 0x1D8C JUMP JUMPDEST PUSH1 0x8 DUP2 SWAP1 SSTORE POP PUSH2 0x197E PUSH2 0x1553 JUMP JUMPDEST PUSH1 0x7 DUP2 SWAP1 SSTORE POP PUSH1 0x0 PUSH20 0xFFFFFFFFFFFFFFFFFFFFFFFFFFFFFFFFFFFFFFFF AND DUP2 PUSH20 0xFFFFFFFFFFFFFFFFFFFFFFFFFFFFFFFFFFFFFFFF AND EQ PUSH2 0x1A4B JUMPI PUSH2 0x19C1 DUP2 PUSH2 0x75F JUMP JUMPDEST PUSH1 0xC PUSH1 0x0 DUP4 PUSH20 0xFFFFFFFFFFFFFFFFFFFFFFFFFFFFFFFFFFFFFFFF AND PUSH20 0xFFFFFFFFFFFFFFFFFFFFFFFFFFFFFFFFFFFFFFFF AND DUP2 MSTORE PUSH1 0x20 ADD SWAP1 DUP2 MSTORE PUSH1 0x20 ADD PUSH1 0x0 KECCAK256 DUP2 SWAP1 SSTORE POP PUSH1 0x8 SLOAD PUSH1 0xB PUSH1 0x0 DUP4 PUSH20 0xFFFFFFFFFFFFFFFFFFFFFFFFFFFFFFFFFFFFFFFF AND PUSH20 0xFFFFFFFFFFFFFFFFFFFFFFFFFFFFFFFFFFFFFFFF AND DUP2 MSTORE PUSH1 0x20 ADD SWAP1 DUP2 MSTORE PUSH1 0x20 ADD PUSH1 0x0 KECCAK256 DUP2 SWAP1 SSTORE POP JUMPDEST PUSH1 0x0 DUP3 GT PUSH2 0x1AC1 JUMPI PUSH1 0x40 MLOAD PUSH32 0x8C379A000000000000000000000000000000000000000000000000000000000 DUP2 MSTORE PUSH1 0x4 ADD DUP1 DUP1 PUSH1 0x20 ADD DUP3 DUP2 SUB DUP3 MSTORE PUSH1 0xE DUP2 MSTORE PUSH1 0x20 ADD DUP1 PUSH32 0x43616E6E6F74207374616B652030000000000000000000000000000000000000 DUP2 MSTORE POP PUSH1 0x20 ADD SWAP2 POP POP PUSH1 0x40 MLOAD DUP1 SWAP2 SUB SWAP1 REVERT JUMPDEST PUSH2 0x1AD6 DUP3 PUSH1 0xD SLOAD PUSH2 0x2209 SWAP1 SWAP2 SWAP1 PUSH4 0xFFFFFFFF AND JUMP JUMPDEST PUSH1 0xD DUP2 SWAP1 SSTORE POP PUSH2 0x1B2E DUP3 PUSH1 0xE PUSH1 0x0 CALLER PUSH20 0xFFFFFFFFFFFFFFFFFFFFFFFFFFFFFFFFFFFFFFFF AND PUSH20 0xFFFFFFFFFFFFFFFFFFFFFFFFFFFFFFFFFFFFFFFF AND DUP2 MSTORE PUSH1 0x20 ADD SWAP1 DUP2 MSTORE PUSH1 0x20 ADD PUSH1 0x0 KECCAK256 SLOAD PUSH2 0x2209 SWAP1 SWAP2 SWAP1 PUSH4 0xFFFFFFFF AND JUMP JUMPDEST PUSH1 0xE PUSH1 0x0 CALLER PUSH20 0xFFFFFFFFFFFFFFFFFFFFFFFFFFFFFFFFFFFFFFFF AND PUSH20 0xFFFFFFFFFFFFFFFFFFFFFFFFFFFFFFFFFFFFFFFF AND DUP2 MSTORE PUSH1 0x20 ADD SWAP1 DUP2 MSTORE PUSH1 0x20 ADD PUSH1 0x0 KECCAK256 DUP2 SWAP1 SSTORE POP PUSH2 0x1BC0 CALLER ADDRESS DUP5 PUSH1 0x3 PUSH1 0x0 SWAP1 SLOAD SWAP1 PUSH2 0x100 EXP SWAP1 DIV PUSH20 0xFFFFFFFFFFFFFFFFFFFFFFFFFFFFFFFFFFFFFFFF AND PUSH20 0xFFFFFFFFFFFFFFFFFFFFFFFFFFFFFFFFFFFFFFFF AND PUSH2 0x2351 SWAP1 SWAP4 SWAP3 SWAP2 SWAP1 PUSH4 0xFFFFFFFF AND JUMP JUMPDEST CALLER PUSH20 0xFFFFFFFFFFFFFFFFFFFFFFFFFFFFFFFFFFFFFFFF AND PUSH32 0x9E71BC8EEA02A63969F509818F2DAFB9254532904319F9DBDA79B67BD34A5F3D DUP4 PUSH1 0x40 MLOAD DUP1 DUP3 DUP2 MSTORE PUSH1 0x20 ADD SWAP2 POP POP PUSH1 0x40 MLOAD DUP1 SWAP2 SUB SWAP1 LOG2 POP PUSH1 0x1 PUSH1 0x0 DUP2 SWAP1 SSTORE POP POP JUMP JUMPDEST PUSH1 0x9 SLOAD DUP2 JUMP JUMPDEST PUSH1 0x7 SLOAD DUP2 JUMP JUMPDEST PUSH2 0x1C2E PUSH2 0x2349 JUMP JUMPDEST PUSH20 0xFFFFFFFFFFFFFFFFFFFFFFFFFFFFFFFFFFFFFFFF AND PUSH1 0x1 DUP1 SWAP1 SLOAD SWAP1 PUSH2 0x100 EXP SWAP1 DIV PUSH20 0xFFFFFFFFFFFFFFFFFFFFFFFFFFFFFFFFFFFFFFFF AND PUSH20 0xFFFFFFFFFFFFFFFFFFFFFFFFFFFFFFFFFFFFFFFF AND EQ PUSH2 0x1CEF JUMPI PUSH1 0x40 MLOAD PUSH32 0x8C379A000000000000000000000000000000000000000000000000000000000 DUP2 MSTORE PUSH1 0x4 ADD DUP1 DUP1 PUSH1 0x20 ADD DUP3 DUP2 SUB DUP3 MSTORE PUSH1 0x20 DUP2 MSTORE PUSH1 0x20 ADD DUP1 PUSH32 0x4F776E61626C653A2063616C6C6572206973206E6F7420746865206F776E6572 DUP2 MSTORE POP PUSH1 0x20 ADD SWAP2 POP POP PUSH1 0x40 MLOAD DUP1 SWAP2 SUB SWAP1 REVERT JUMPDEST PUSH1 0x4 SLOAD TIMESTAMP GT PUSH2 0x1D49 JUMPI PUSH1 0x40 MLOAD PUSH32 0x8C379A000000000000000000000000000000000000000000000000000000000 DUP2 MSTORE PUSH1 0x4 ADD DUP1 DUP1 PUSH1 0x20 ADD DUP3 DUP2 SUB DUP3 MSTORE PUSH1 0x58 DUP2 MSTORE PUSH1 0x20 ADD DUP1 PUSH2 0x2A15 PUSH1 0x58 SWAP2 CODECOPY PUSH1 0x60 ADD SWAP2 POP POP PUSH1 0x40 MLOAD DUP1 SWAP2 SUB SWAP1 REVERT JUMPDEST DUP1 PUSH1 0x6 DUP2 SWAP1 SSTORE POP PUSH32 0xFB46CA5A5E06D4540D6387B930A7C978BCE0DB5F449EC6B3F5D07C6E1D44F2D3 PUSH1 0x6 SLOAD PUSH1 0x40 MLOAD DUP1 DUP3 DUP2 MSTORE PUSH1 0x20 ADD SWAP2 POP POP PUSH1 0x40 MLOAD DUP1 SWAP2 SUB SWAP1 LOG1 POP JUMP JUMPDEST PUSH1 0x0 DUP1 PUSH1 0xD SLOAD EQ ISZERO PUSH2 0x1DA2 JUMPI PUSH1 0x8 SLOAD SWAP1 POP PUSH2 0x1E11 JUMP JUMPDEST PUSH2 0x1E0E PUSH2 0x1DFD PUSH1 0xD SLOAD PUSH2 0x1DEF PUSH1 0x9 SLOAD PUSH2 0x1DE1 PUSH1 0x5 SLOAD PUSH2 0x1DD3 PUSH1 0x7 SLOAD PUSH2 0x1DC5 PUSH2 0x1553 JUMP JUMPDEST PUSH2 0x21BF SWAP1 SWAP2 SWAP1 PUSH4 0xFFFFFFFF AND JUMP JUMPDEST PUSH2 0x20EF SWAP1 SWAP2 SWAP1 PUSH4 0xFFFFFFFF AND JUMP JUMPDEST PUSH2 0x20EF SWAP1 SWAP2 SWAP1 PUSH4 0xFFFFFFFF AND JUMP JUMPDEST PUSH2 0x20A5 SWAP1 SWAP2 SWAP1 PUSH4 0xFFFFFFFF AND JUMP JUMPDEST PUSH1 0x8 SLOAD PUSH2 0x2209 SWAP1 SWAP2 SWAP1 PUSH4 0xFFFFFFFF AND JUMP JUMPDEST SWAP1 POP JUMPDEST SWAP1 JUMP JUMPDEST PUSH1 0x2 PUSH1 0x0 SWAP1 SLOAD SWAP1 PUSH2 0x100 EXP SWAP1 DIV PUSH20 0xFFFFFFFFFFFFFFFFFFFFFFFFFFFFFFFFFFFFFFFF AND DUP2 JUMP JUMPDEST PUSH1 0x8 SLOAD DUP2 JUMP JUMPDEST PUSH2 0x1E88 PUSH1 0xE PUSH1 0x0 CALLER PUSH20 0xFFFFFFFFFFFFFFFFFFFFFFFFFFFFFFFFFFFFFFFF AND PUSH20 0xFFFFFFFFFFFFFFFFFFFFFFFFFFFFFFFFFFFFFFFF AND DUP2 MSTORE PUSH1 0x20 ADD SWAP1 DUP2 MSTORE PUSH1 0x20 ADD PUSH1 0x0 KECCAK256 SLOAD PUSH2 0x8B7 JUMP JUMPDEST PUSH2 0x1E90 PUSH2 0x1087 JUMP JUMPDEST JUMP JUMPDEST PUSH1 0x4 SLOAD DUP2 JUMP JUMPDEST PUSH2 0x1EA0 PUSH2 0x2349 JUMP JUMPDEST PUSH20 0xFFFFFFFFFFFFFFFFFFFFFFFFFFFFFFFFFFFFFFFF AND PUSH1 0x1 DUP1 SWAP1 SLOAD SWAP1 PUSH2 0x100 EXP SWAP1 DIV PUSH20 0xFFFFFFFFFFFFFFFFFFFFFFFFFFFFFFFFFFFFFFFF AND PUSH20 0xFFFFFFFFFFFFFFFFFFFFFFFFFFFFFFFFFFFFFFFF AND EQ PUSH2 0x1F61 JUMPI PUSH1 0x40 MLOAD PUSH32 0x8C379A000000000000000000000000000000000000000000000000000000000 DUP2 MSTORE PUSH1 0x4 ADD DUP1 DUP1 PUSH1 0x20 ADD DUP3 DUP2 SUB DUP3 MSTORE PUSH1 0x20 DUP2 MSTORE PUSH1 0x20 ADD DUP1 PUSH32 0x4F776E61626C653A2063616C6C6572206973206E6F7420746865206F776E6572 DUP2 MSTORE POP PUSH1 0x20 ADD SWAP2 POP POP PUSH1 0x40 MLOAD DUP1 SWAP2 SUB SWAP1 REVERT JUMPDEST PUSH1 0x0 PUSH20 0xFFFFFFFFFFFFFFFFFFFFFFFFFFFFFFFFFFFFFFFF AND DUP2 PUSH20 0xFFFFFFFFFFFFFFFFFFFFFFFFFFFFFFFFFFFFFFFF AND EQ ISZERO PUSH2 0x1FE7 JUMPI PUSH1 0x40 MLOAD PUSH32 0x8C379A000000000000000000000000000000000000000000000000000000000 DUP2 MSTORE PUSH1 0x4 ADD DUP1 DUP1 PUSH1 0x20 ADD DUP3 DUP2 SUB DUP3 MSTORE PUSH1 0x26 DUP2 MSTORE PUSH1 0x20 ADD DUP1 PUSH2 0x2A6D PUSH1 0x26 SWAP2 CODECOPY PUSH1 0x40 ADD SWAP2 POP POP PUSH1 0x40 MLOAD DUP1 SWAP2 SUB SWAP1 REVERT JUMPDEST DUP1 PUSH20 0xFFFFFFFFFFFFFFFFFFFFFFFFFFFFFFFFFFFFFFFF AND PUSH1 0x1 DUP1 SWAP1 SLOAD SWAP1 PUSH2 0x100 EXP SWAP1 DIV PUSH20 0xFFFFFFFFFFFFFFFFFFFFFFFFFFFFFFFFFFFFFFFF AND PUSH20 0xFFFFFFFFFFFFFFFFFFFFFFFFFFFFFFFFFFFFFFFF AND PUSH32 0x8BE0079C531659141344CD1FD0A4F28419497F9722A3DAAFE3B4186F6B6457E0 PUSH1 0x40 MLOAD PUSH1 0x40 MLOAD DUP1 SWAP2 SUB SWAP1 LOG3 DUP1 PUSH1 0x1 DUP1 PUSH2 0x100 EXP DUP2 SLOAD DUP2 PUSH20 0xFFFFFFFFFFFFFFFFFFFFFFFFFFFFFFFFFFFFFFFF MUL NOT AND SWAP1 DUP4 PUSH20 0xFFFFFFFFFFFFFFFFFFFFFFFFFFFFFFFFFFFFFFFF AND MUL OR SWAP1 SSTORE POP POP JUMP JUMPDEST PUSH1 0x0 PUSH2 0x20E7 DUP4 DUP4 PUSH1 0x40 MLOAD DUP1 PUSH1 0x40 ADD PUSH1 0x40 MSTORE DUP1 PUSH1 0x1A DUP2 MSTORE PUSH1 0x20 ADD PUSH32 0x536166654D6174683A206469766973696F6E206279207A65726F000000000000 DUP2 MSTORE POP PUSH2 0x243E JUMP JUMPDEST SWAP1 POP SWAP3 SWAP2 POP POP JUMP JUMPDEST PUSH1 0x0 DUP1 DUP4 EQ ISZERO PUSH2 0x2102 JUMPI PUSH1 0x0 SWAP1 POP PUSH2 0x216F JUMP JUMPDEST PUSH1 0x0 DUP3 DUP5 MUL SWAP1 POP DUP3 DUP5 DUP3 DUP2 PUSH2 0x2113 JUMPI INVALID JUMPDEST DIV EQ PUSH2 0x216A JUMPI PUSH1 0x40 MLOAD PUSH32 0x8C379A000000000000000000000000000000000000000000000000000000000 DUP2 MSTORE PUSH1 0x4 ADD DUP1 DUP1 PUSH1 0x20 ADD DUP3 DUP2 SUB DUP3 MSTORE PUSH1 0x21 DUP2 MSTORE PUSH1 0x20 ADD DUP1 PUSH2 0x2ADB PUSH1 0x21 SWAP2 CODECOPY PUSH1 0x40 ADD SWAP2 POP POP PUSH1 0x40 MLOAD DUP1 SWAP2 SUB SWAP1 REVERT JUMPDEST DUP1 SWAP2 POP POP JUMPDEST SWAP3 SWAP2 POP POP JUMP JUMPDEST PUSH1 0x0 PUSH2 0x21B7 DUP4 DUP4 PUSH1 0x40 MLOAD DUP1 PUSH1 0x40 ADD PUSH1 0x40 MSTORE DUP1 PUSH1 0x18 DUP2 MSTORE PUSH1 0x20 ADD PUSH32 0x536166654D6174683A206D6F64756C6F206279207A65726F0000000000000000 DUP2 MSTORE POP PUSH2 0x2504 JUMP JUMPDEST SWAP1 POP SWAP3 SWAP2 POP POP JUMP JUMPDEST PUSH1 0x0 PUSH2 0x2201 DUP4 DUP4 PUSH1 0x40 MLOAD DUP1 PUSH1 0x40 ADD PUSH1 0x40 MSTORE DUP1 PUSH1 0x1E DUP2 MSTORE PUSH1 0x20 ADD PUSH32 0x536166654D6174683A207375627472616374696F6E206F766572666C6F770000 DUP2 MSTORE POP PUSH2 0x25C5 JUMP JUMPDEST SWAP1 POP SWAP3 SWAP2 POP POP JUMP JUMPDEST PUSH1 0x0 DUP1 DUP3 DUP5 ADD SWAP1 POP DUP4 DUP2 LT ISZERO PUSH2 0x2287 JUMPI PUSH1 0x40 MLOAD PUSH32 0x8C379A000000000000000000000000000000000000000000000000000000000 DUP2 MSTORE PUSH1 0x4 ADD DUP1 DUP1 PUSH1 0x20 ADD DUP3 DUP2 SUB DUP3 MSTORE PUSH1 0x1B DUP2 MSTORE PUSH1 0x20 ADD DUP1 PUSH32 0x536166654D6174683A206164646974696F6E206F766572666C6F770000000000 DUP2 MSTORE POP PUSH1 0x20 ADD SWAP2 POP POP PUSH1 0x40 MLOAD DUP1 SWAP2 SUB SWAP1 REVERT JUMPDEST DUP1 SWAP2 POP POP SWAP3 SWAP2 POP POP JUMP JUMPDEST PUSH2 0x2344 DUP4 PUSH4 0xA9059CBB PUSH1 0xE0 SHL DUP5 DUP5 PUSH1 0x40 MLOAD PUSH1 0x24 ADD DUP1 DUP4 PUSH20 0xFFFFFFFFFFFFFFFFFFFFFFFFFFFFFFFFFFFFFFFF AND PUSH20 0xFFFFFFFFFFFFFFFFFFFFFFFFFFFFFFFFFFFFFFFF AND DUP2 MSTORE PUSH1 0x20 ADD DUP3 DUP2 MSTORE PUSH1 0x20 ADD SWAP3 POP POP POP PUSH1 0x40 MLOAD PUSH1 0x20 DUP2 DUP4 SUB SUB DUP2 MSTORE SWAP1 PUSH1 0x40 MSTORE SWAP1 PUSH28 0xFFFFFFFFFFFFFFFFFFFFFFFFFFFFFFFFFFFFFFFFFFFFFFFFFFFFFFFF NOT AND PUSH1 0x20 DUP3 ADD DUP1 MLOAD PUSH28 0xFFFFFFFFFFFFFFFFFFFFFFFFFFFFFFFFFFFFFFFFFFFFFFFFFFFFFFFF DUP4 DUP2 DUP4 AND OR DUP4 MSTORE POP POP POP POP PUSH2 0x2685 JUMP JUMPDEST POP POP POP JUMP JUMPDEST PUSH1 0x0 CALLER SWAP1 POP SWAP1 JUMP JUMPDEST PUSH2 0x2438 DUP5 PUSH4 0x23B872DD PUSH1 0xE0 SHL DUP6 DUP6 DUP6 PUSH1 0x40 MLOAD PUSH1 0x24 ADD DUP1 DUP5 PUSH20 0xFFFFFFFFFFFFFFFFFFFFFFFFFFFFFFFFFFFFFFFF AND PUSH20 0xFFFFFFFFFFFFFFFFFFFFFFFFFFFFFFFFFFFFFFFF AND DUP2 MSTORE PUSH1 0x20 ADD DUP4 PUSH20 0xFFFFFFFFFFFFFFFFFFFFFFFFFFFFFFFFFFFFFFFF AND PUSH20 0xFFFFFFFFFFFFFFFFFFFFFFFFFFFFFFFFFFFFFFFF AND DUP2 MSTORE PUSH1 0x20 ADD DUP3 DUP2 MSTORE PUSH1 0x20 ADD SWAP4 POP POP POP POP PUSH1 0x40 MLOAD PUSH1 0x20 DUP2 DUP4 SUB SUB DUP2 MSTORE SWAP1 PUSH1 0x40 MSTORE SWAP1 PUSH28 0xFFFFFFFFFFFFFFFFFFFFFFFFFFFFFFFFFFFFFFFFFFFFFFFFFFFFFFFF NOT AND PUSH1 0x20 DUP3 ADD DUP1 MLOAD PUSH28 0xFFFFFFFFFFFFFFFFFFFFFFFFFFFFFFFFFFFFFFFFFFFFFFFFFFFFFFFF DUP4 DUP2 DUP4 AND OR DUP4 MSTORE POP POP POP POP PUSH2 0x2685 JUMP JUMPDEST POP POP POP POP JUMP JUMPDEST PUSH1 0x0 DUP1 DUP4 GT DUP3 SWAP1 PUSH2 0x24EA JUMPI PUSH1 0x40 MLOAD PUSH32 0x8C379A000000000000000000000000000000000000000000000000000000000 DUP2 MSTORE PUSH1 0x4 ADD DUP1 DUP1 PUSH1 0x20 ADD DUP3 DUP2 SUB DUP3 MSTORE DUP4 DUP2 DUP2 MLOAD DUP2 MSTORE PUSH1 0x20 ADD SWAP2 POP DUP1 MLOAD SWAP1 PUSH1 0x20 ADD SWAP1 DUP1 DUP4 DUP4 PUSH1 0x0 JUMPDEST DUP4 DUP2 LT ISZERO PUSH2 0x24AF JUMPI DUP1 DUP3 ADD MLOAD DUP2 DUP5 ADD MSTORE PUSH1 0x20 DUP2 ADD SWAP1 POP PUSH2 0x2494 JUMP JUMPDEST POP POP POP POP SWAP1 POP SWAP1 DUP2 ADD SWAP1 PUSH1 0x1F AND DUP1 ISZERO PUSH2 0x24DC JUMPI DUP1 DUP3 SUB DUP1 MLOAD PUSH1 0x1 DUP4 PUSH1 0x20 SUB PUSH2 0x100 EXP SUB NOT AND DUP2 MSTORE PUSH1 0x20 ADD SWAP2 POP JUMPDEST POP SWAP3 POP POP POP PUSH1 0x40 MLOAD DUP1 SWAP2 SUB SWAP1 REVERT JUMPDEST POP PUSH1 0x0 DUP4 DUP6 DUP2 PUSH2 0x24F6 JUMPI INVALID JUMPDEST DIV SWAP1 POP DUP1 SWAP2 POP POP SWAP4 SWAP3 POP POP POP JUMP JUMPDEST PUSH1 0x0 DUP1 DUP4 EQ ISZERO DUP3 SWAP1 PUSH2 0x25B1 JUMPI PUSH1 0x40 MLOAD PUSH32 0x8C379A000000000000000000000000000000000000000000000000000000000 DUP2 MSTORE PUSH1 0x4 ADD DUP1 DUP1 PUSH1 0x20 ADD DUP3 DUP2 SUB DUP3 MSTORE DUP4 DUP2 DUP2 MLOAD DUP2 MSTORE PUSH1 0x20 ADD SWAP2 POP DUP1 MLOAD SWAP1 PUSH1 0x20 ADD SWAP1 DUP1 DUP4 DUP4 PUSH1 0x0 JUMPDEST DUP4 DUP2 LT ISZERO PUSH2 0x2576 JUMPI DUP1 DUP3 ADD MLOAD DUP2 DUP5 ADD MSTORE PUSH1 0x20 DUP2 ADD SWAP1 POP PUSH2 0x255B JUMP JUMPDEST POP POP POP POP SWAP1 POP SWAP1 DUP2 ADD SWAP1 PUSH1 0x1F AND DUP1 ISZERO PUSH2 0x25A3 JUMPI DUP1 DUP3 SUB DUP1 MLOAD PUSH1 0x1 DUP4 PUSH1 0x20 SUB PUSH2 0x100 EXP SUB NOT AND DUP2 MSTORE PUSH1 0x20 ADD SWAP2 POP JUMPDEST POP SWAP3 POP POP POP PUSH1 0x40 MLOAD DUP1 SWAP2 SUB SWAP1 REVERT JUMPDEST POP DUP3 DUP5 DUP2 PUSH2 0x25BB JUMPI INVALID JUMPDEST MOD SWAP1 POP SWAP4 SWAP3 POP POP POP JUMP JUMPDEST PUSH1 0x0 DUP4 DUP4 GT ISZERO DUP3 SWAP1 PUSH2 0x2672 JUMPI PUSH1 0x40 MLOAD PUSH32 0x8C379A000000000000000000000000000000000000000000000000000000000 DUP2 MSTORE PUSH1 0x4 ADD DUP1 DUP1 PUSH1 0x20 ADD DUP3 DUP2 SUB DUP3 MSTORE DUP4 DUP2 DUP2 MLOAD DUP2 MSTORE PUSH1 0x20 ADD SWAP2 POP DUP1 MLOAD SWAP1 PUSH1 0x20 ADD SWAP1 DUP1 DUP4 DUP4 PUSH1 0x0 JUMPDEST DUP4 DUP2 LT ISZERO PUSH2 0x2637 JUMPI DUP1 DUP3 ADD MLOAD DUP2 DUP5 ADD MSTORE PUSH1 0x20 DUP2 ADD SWAP1 POP PUSH2 0x261C JUMP JUMPDEST POP POP POP POP SWAP1 POP SWAP1 DUP2 ADD SWAP1 PUSH1 0x1F AND DUP1 ISZERO PUSH2 0x2664 JUMPI DUP1 DUP3 SUB DUP1 MLOAD PUSH1 0x1 DUP4 PUSH1 0x20 SUB PUSH2 0x100 EXP SUB NOT AND DUP2 MSTORE PUSH1 0x20 ADD SWAP2 POP JUMPDEST POP SWAP3 POP POP POP PUSH1 0x40 MLOAD DUP1 SWAP2 SUB SWAP1 REVERT JUMPDEST POP PUSH1 0x0 DUP4 DUP6 SUB SWAP1 POP DUP1 SWAP2 POP POP SWAP4 SWAP3 POP POP POP JUMP JUMPDEST PUSH1 0x60 PUSH2 0x26E7 DUP3 PUSH1 0x40 MLOAD DUP1 PUSH1 0x40 ADD PUSH1 0x40 MSTORE DUP1 PUSH1 0x20 DUP2 MSTORE PUSH1 0x20 ADD PUSH32 0x5361666545524332303A206C6F772D6C6576656C2063616C6C206661696C6564 DUP2 MSTORE POP DUP6 PUSH20 0xFFFFFFFFFFFFFFFFFFFFFFFFFFFFFFFFFFFFFFFF AND PUSH2 0x2774 SWAP1 SWAP3 SWAP2 SWAP1 PUSH4 0xFFFFFFFF AND JUMP JUMPDEST SWAP1 POP PUSH1 0x0 DUP2 MLOAD GT ISZERO PUSH2 0x276F JUMPI DUP1 DUP1 PUSH1 0x20 ADD SWAP1 MLOAD PUSH1 0x20 DUP2 LT ISZERO PUSH2 0x2708 JUMPI PUSH1 0x0 DUP1 REVERT JUMPDEST DUP2 ADD SWAP1 DUP1 DUP1 MLOAD SWAP1 PUSH1 0x20 ADD SWAP1 SWAP3 SWAP2 SWAP1 POP POP POP PUSH2 0x276E JUMPI PUSH1 0x40 MLOAD PUSH32 0x8C379A000000000000000000000000000000000000000000000000000000000 DUP2 MSTORE PUSH1 0x4 ADD DUP1 DUP1 PUSH1 0x20 ADD DUP3 DUP2 SUB DUP3 MSTORE PUSH1 0x2A DUP2 MSTORE PUSH1 0x20 ADD DUP1 PUSH2 0x2B1E PUSH1 0x2A SWAP2 CODECOPY PUSH1 0x40 ADD SWAP2 POP POP PUSH1 0x40 MLOAD DUP1 SWAP2 SUB SWAP1 REVERT JUMPDEST JUMPDEST POP POP POP JUMP JUMPDEST PUSH1 0x60 PUSH2 0x2783 DUP5 DUP5 PUSH1 0x0 DUP6 PUSH2 0x278C JUMP JUMPDEST SWAP1 POP SWAP4 SWAP3 POP POP POP JUMP JUMPDEST PUSH1 0x60 DUP3 SELFBALANCE LT ISZERO PUSH2 0x27E7 JUMPI PUSH1 0x40 MLOAD PUSH32 0x8C379A000000000000000000000000000000000000000000000000000000000 DUP2 MSTORE PUSH1 0x4 ADD DUP1 DUP1 PUSH1 0x20 ADD DUP3 DUP2 SUB DUP3 MSTORE PUSH1 0x26 DUP2 MSTORE PUSH1 0x20 ADD DUP1 PUSH2 0x2AB5 PUSH1 0x26 SWAP2 CODECOPY PUSH1 0x40 ADD SWAP2 POP POP PUSH1 0x40 MLOAD DUP1 SWAP2 SUB SWAP1 REVERT JUMPDEST PUSH2 0x27F0 DUP6 PUSH2 0x2935 JUMP JUMPDEST PUSH2 0x2862 JUMPI PUSH1 0x40 MLOAD PUSH32 0x8C379A000000000000000000000000000000000000000000000000000000000 DUP2 MSTORE PUSH1 0x4 ADD DUP1 DUP1 PUSH1 0x20 ADD DUP3 DUP2 SUB DUP3 MSTORE PUSH1 0x1D DUP2 MSTORE PUSH1 0x20 ADD DUP1 PUSH32 0x416464726573733A2063616C6C20746F206E6F6E2D636F6E7472616374000000 DUP2 MSTORE POP PUSH1 0x20 ADD SWAP2 POP POP PUSH1 0x40 MLOAD DUP1 SWAP2 SUB SWAP1 REVERT JUMPDEST PUSH1 0x0 PUSH1 0x60 DUP7 PUSH20 0xFFFFFFFFFFFFFFFFFFFFFFFFFFFFFFFFFFFFFFFF AND DUP6 DUP8 PUSH1 0x40 MLOAD DUP1 DUP3 DUP1 MLOAD SWAP1 PUSH1 0x20 ADD SWAP1 DUP1 DUP4 DUP4 JUMPDEST PUSH1 0x20 DUP4 LT PUSH2 0x28B2 JUMPI DUP1 MLOAD DUP3 MSTORE PUSH1 0x20 DUP3 ADD SWAP2 POP PUSH1 0x20 DUP2 ADD SWAP1 POP PUSH1 0x20 DUP4 SUB SWAP3 POP PUSH2 0x288F JUMP JUMPDEST PUSH1 0x1 DUP4 PUSH1 0x20 SUB PUSH2 0x100 EXP SUB DUP1 NOT DUP3 MLOAD AND DUP2 DUP5 MLOAD AND DUP1 DUP3 OR DUP6 MSTORE POP POP POP POP POP POP SWAP1 POP ADD SWAP2 POP POP PUSH1 0x0 PUSH1 0x40 MLOAD DUP1 DUP4 SUB DUP2 DUP6 DUP8 GAS CALL SWAP3 POP POP POP RETURNDATASIZE DUP1 PUSH1 0x0 DUP2 EQ PUSH2 0x2914 JUMPI PUSH1 0x40 MLOAD SWAP2 POP PUSH1 0x1F NOT PUSH1 0x3F RETURNDATASIZE ADD AND DUP3 ADD PUSH1 0x40 MSTORE RETURNDATASIZE DUP3 MSTORE RETURNDATASIZE PUSH1 0x0 PUSH1 0x20 DUP5 ADD RETURNDATACOPY PUSH2 0x2919 JUMP JUMPDEST PUSH1 0x60 SWAP2 POP JUMPDEST POP SWAP2 POP SWAP2 POP PUSH2 0x2929 DUP3 DUP3 DUP7 PUSH2 0x2948 JUMP JUMPDEST SWAP3 POP POP POP SWAP5 SWAP4 POP POP POP POP JUMP JUMPDEST PUSH1 0x0 DUP1 DUP3 EXTCODESIZE SWAP1 POP PUSH1 0x0 DUP2 GT SWAP2 POP POP SWAP2 SWAP1 POP JUMP JUMPDEST PUSH1 0x60 DUP4 ISZERO PUSH2 0x2958 JUMPI DUP3 SWAP1 POP PUSH2 0x2A0D JUMP JUMPDEST PUSH1 0x0 DUP4 MLOAD GT ISZERO PUSH2 0x296B JUMPI DUP3 MLOAD DUP1 DUP5 PUSH1 0x20 ADD REVERT JUMPDEST DUP2 PUSH1 0x40 MLOAD PUSH32 0x8C379A000000000000000000000000000000000000000000000000000000000 DUP2 MSTORE PUSH1 0x4 ADD DUP1 DUP1 PUSH1 0x20 ADD DUP3 DUP2 SUB DUP3 MSTORE DUP4 DUP2 DUP2 MLOAD DUP2 MSTORE PUSH1 0x20 ADD SWAP2 POP DUP1 MLOAD SWAP1 PUSH1 0x20 ADD SWAP1 DUP1 DUP4 DUP4 PUSH1 0x0 JUMPDEST DUP4 DUP2 LT ISZERO PUSH2 0x29D2 JUMPI DUP1 DUP3 ADD MLOAD DUP2 DUP5 ADD MSTORE PUSH1 0x20 DUP2 ADD SWAP1 POP PUSH2 0x29B7 JUMP JUMPDEST POP POP POP POP SWAP1 POP SWAP1 DUP2 ADD SWAP1 PUSH1 0x1F AND DUP1 ISZERO PUSH2 0x29FF JUMPI DUP1 DUP3 SUB DUP1 MLOAD PUSH1 0x1 DUP4 PUSH1 0x20 SUB PUSH2 0x100 EXP SUB NOT AND DUP2 MSTORE PUSH1 0x20 ADD SWAP2 POP JUMPDEST POP SWAP3 POP POP POP PUSH1 0x40 MLOAD DUP1 SWAP2 SUB SWAP1 REVERT JUMPDEST SWAP4 SWAP3 POP POP POP JUMP INVALID POP PUSH19 0x6576696F757320726577617264732070657269 PUSH16 0x64206D75737420626520636F6D706C65 PUSH21 0x65206265666F7265206368616E67696E6720746865 KECCAK256 PUSH5 0x7572617469 PUSH16 0x6E20666F7220746865206E6577207065 PUSH19 0x696F644F776E61626C653A206E6577206F776E PUSH6 0x722069732074 PUSH9 0x65207A65726F206164 PUSH5 0x7265737343 PUSH2 0x6E6E PUSH16 0x74207769746864726177207468652072 PUSH6 0x776172647320 PUSH21 0x6F6B656E73416464726573733A20696E7375666669 PUSH4 0x69656E74 KECCAK256 PUSH3 0x616C61 PUSH15 0x636520666F722063616C6C53616665 0x4D PUSH2 0x7468 GASPRICE KECCAK256 PUSH14 0x756C7469706C69636174696F6E20 PUSH16 0x766572666C6F7743616E6E6F74207769 PUSH21 0x686472617720746865207374616B696E6720746F6B PUSH6 0x6E7353616665 GASLIMIT MSTORE NUMBER ORIGIN ADDRESS GASPRICE KECCAK256 GASLIMIT MSTORE NUMBER ORIGIN ADDRESS KECCAK256 PUSH16 0x7065726174696F6E20646964206E6F74 KECCAK256 PUSH20 0x756363656564A2646970667358221220095D2E53 0xCD DIFFICULTY RETURN 0xEB 0x4D 0xD1 SWAP4 0xC3 PUSH24 0xE249B63474D704C8B46BC4B2686394E872DFDE64736F6C63 NUMBER STOP MOD ADDMOD STOP CALLER MSTORE8 PUSH2 0x6665 0x4D PUSH2 0x7468 GASPRICE KECCAK256 PUSH14 0x756C7469706C69636174696F6E20 PUSH16 0x766572666C6F77000000000000000000 "
				},
				"gasEstimates": {
					"creation": {
						"codeDepositCost": "2226600",
						"executionCost": "infinite",
						"totalCost": "infinite"
					},
					"external": {
						"balanceOf(address)": "1241",
						"earned(address)": "infinite",
						"exit()": "infinite",
						"getReward()": "infinite",
						"getRewardForDuration()": "infinite",
						"lastTimeRewardApplicable()": "1162",
						"lastUpdateTime()": "1050",
						"min(uint256,uint256)": "474",
						"notifyRewardAmount(uint256)": "infinite",
						"owner()": "1178",
						"paused()": "1151",
						"periodFinish()": "1093",
						"pow(uint256,uint256)": "infinite",
						"recoverERC20(address,uint256)": "infinite",
						"renounceOwnership()": "24514",
						"rewardPerToken()": "infinite",
						"rewardPerTokenStored()": "1049",
						"rewardRate()": "1051",
						"rewards(address)": "1238",
						"rewardsDuration()": "1117",
						"rewardsToken()": "1164",
						"setRewardsDuration(uint256)": "infinite",
						"stake(uint256)": "infinite",
						"stakingToken()": "1142",
						"stakingTokensDecimalRate()": "1116",
						"totalSupply()": "1104",
						"transferOwnership(address)": "infinite",
						"userRewardPerTokenPaid(address)": "1214",
						"withdraw(uint256)": "infinite"
					}
				},
				"methodIdentifiers": {
					"balanceOf(address)": "70a08231",
					"earned(address)": "008cc262",
					"exit()": "e9fad8ee",
					"getReward()": "3d18b912",
					"getRewardForDuration()": "1c1f78eb",
					"lastTimeRewardApplicable()": "80faa57d",
					"lastUpdateTime()": "c8f33c91",
					"min(uint256,uint256)": "7ae2b5c7",
					"notifyRewardAmount(uint256)": "3c6b16ab",
					"owner()": "8da5cb5b",
					"paused()": "5c975abb",
					"periodFinish()": "ebe2b12b",
					"pow(uint256,uint256)": "2e4c697f",
					"recoverERC20(address,uint256)": "8980f11f",
					"renounceOwnership()": "715018a6",
					"rewardPerToken()": "cd3daf9d",
					"rewardPerTokenStored()": "df136d65",
					"rewardRate()": "7b0a47ee",
					"rewards(address)": "0700037d",
					"rewardsDuration()": "386a9525",
					"rewardsToken()": "d1af0c7d",
					"setRewardsDuration(uint256)": "cc1a378f",
					"stake(uint256)": "a694fc3a",
					"stakingToken()": "72f702f3",
					"stakingTokensDecimalRate()": "a85fe3b7",
					"totalSupply()": "18160ddd",
					"transferOwnership(address)": "f2fde38b",
					"userRewardPerTokenPaid(address)": "8b876347",
					"withdraw(uint256)": "2e1a7d4d"
				}
			},
			"storageLayout": {
				"storage": [
					{
						"astId": 432,
						"contract": "Farm.sol:Farm",
						"label": "_status",
						"offset": 0,
						"slot": "0",
						"type": "t_uint256"
					},
					{
						"astId": 352,
						"contract": "Farm.sol:Farm",
						"label": "_paused",
						"offset": 0,
						"slot": "1",
						"type": "t_bool"
					},
					{
						"astId": 865,
						"contract": "Farm.sol:Farm",
						"label": "_owner",
						"offset": 1,
						"slot": "1",
						"type": "t_address"
					},
					{
						"astId": 980,
						"contract": "Farm.sol:Farm",
						"label": "rewardsToken",
						"offset": 0,
						"slot": "2",
						"type": "t_contract(IERC20)317"
					},
					{
						"astId": 982,
						"contract": "Farm.sol:Farm",
						"label": "stakingToken",
						"offset": 0,
						"slot": "3",
						"type": "t_contract(IERC20)317"
					},
					{
						"astId": 985,
						"contract": "Farm.sol:Farm",
						"label": "periodFinish",
						"offset": 0,
						"slot": "4",
						"type": "t_uint256"
					},
					{
						"astId": 988,
						"contract": "Farm.sol:Farm",
						"label": "rewardRate",
						"offset": 0,
						"slot": "5",
						"type": "t_uint256"
					},
					{
						"astId": 990,
						"contract": "Farm.sol:Farm",
						"label": "rewardsDuration",
						"offset": 0,
						"slot": "6",
						"type": "t_uint256"
					},
					{
						"astId": 992,
						"contract": "Farm.sol:Farm",
						"label": "lastUpdateTime",
						"offset": 0,
						"slot": "7",
						"type": "t_uint256"
					},
					{
						"astId": 994,
						"contract": "Farm.sol:Farm",
						"label": "rewardPerTokenStored",
						"offset": 0,
						"slot": "8",
						"type": "t_uint256"
					},
					{
						"astId": 996,
						"contract": "Farm.sol:Farm",
						"label": "stakingTokensDecimalRate",
						"offset": 0,
						"slot": "9",
						"type": "t_uint256"
					},
					{
						"astId": 998,
						"contract": "Farm.sol:Farm",
						"label": "initialised",
						"offset": 0,
						"slot": "10",
						"type": "t_bool"
					},
					{
						"astId": 1002,
						"contract": "Farm.sol:Farm",
						"label": "userRewardPerTokenPaid",
						"offset": 0,
						"slot": "11",
						"type": "t_mapping(t_address,t_uint256)"
					},
					{
						"astId": 1006,
						"contract": "Farm.sol:Farm",
						"label": "rewards",
						"offset": 0,
						"slot": "12",
						"type": "t_mapping(t_address,t_uint256)"
					},
					{
						"astId": 1008,
						"contract": "Farm.sol:Farm",
						"label": "_totalSupply",
						"offset": 0,
						"slot": "13",
						"type": "t_uint256"
					},
					{
						"astId": 1012,
						"contract": "Farm.sol:Farm",
						"label": "_balances",
						"offset": 0,
						"slot": "14",
						"type": "t_mapping(t_address,t_uint256)"
					}
				],
				"types": {
					"t_address": {
						"encoding": "inplace",
						"label": "address",
						"numberOfBytes": "20"
					},
					"t_bool": {
						"encoding": "inplace",
						"label": "bool",
						"numberOfBytes": "1"
					},
					"t_contract(IERC20)317": {
						"encoding": "inplace",
						"label": "contract IERC20",
						"numberOfBytes": "20"
					},
					"t_mapping(t_address,t_uint256)": {
						"encoding": "mapping",
						"key": "t_address",
						"label": "mapping(address => uint256)",
						"numberOfBytes": "32",
						"value": "t_uint256"
					},
					"t_uint256": {
						"encoding": "inplace",
						"label": "uint256",
						"numberOfBytes": "32"
					}
				}
			},
			"userdoc": {
				"methods": {}
			}
		}
	}
}